:020000040040BA
:1000000090304020B1294000AD294000AD2940008A
:10001000AD294000AD294000AD294000000000009E
:10002000000000000000000000000000AD294000BA
:10003000AD29400000000000AD294000AD2940007E
:10004000AD294000AD294000AD294000AD29400058
:10005000AD294000AD294000AD294000AD29400048
:10006000AD294000000000000D12400021124000A8
:1000700035124000AD294000AD294000AD294000B7
:10008000491240005D124000AD294000AD294000FA
:10009000AD294000AD294000AD294000AD29400008
:1000A000AD294000AD294000AD294000AD294000F8
:1000B000AD294000AD294000AD294000AD294000E8
:1000C000AD294000AD294000B51B4000AD294000DE
:1000D000AD294000AD294000AD294000AD294000C8
:1000E000AD294000AD294000AD294000AD294000B8
:1000F000AD294000AD294000AD294000AD294000A8
:10010000AD294000AD294000AD294000AD29400097
:10011000AD294000AD2940000000000000000000B3
:10012000AD294000AD294000AD294000AD29400077
:10013000AD294000AD294000AD294000AD29400067
:10014000AD294000AD294000AD294000AD29400057
:10015000AD294000AD294000AD294000AD29400047
:10016000AD294000AD29400010B5054C237833B9C6
:10017000044B13B10448AFF300800123237010BD7A
:10018000A00A402000000000D06F40000C4B43B19B
:100190000C480D4910B5AFF300800C48036823B933
:1001A00010BD0A48036833B97047094B002BF7D0DC
:1001B000BDE810401847064B002BF5D0184700BF8C
:1001C00000000000D06F4000A40A4020D06F400023
:1001D000000000002DE9F04180B90C469046002A4D
:1001E0000FDD8F18084E094D306821462B6898475F
:1001F0000134BC42F8D14046BDE8F0814FF0FF38F1
:10020000F9E78046F7E700BF301040202810402073
:100210000138022815D82DE9F0410E4614469AB14E
:100220000D46DFF838800C4FD8F8000015F8011B98
:100230003B68984700280ADBA81B013CF4D1BDE8C5
:10024000F0814FF0FF3070471046BDE8F0814FF06D
:10025000FF30BDE8F08100BF2C104020301040205E
:10026000436913F0020F04D0C1F30801C1610020FB
:10027000704701207047436913F0010F05D083696F
:10028000C3F308030B600020704701207047000093
:10029000514B1B78FF2B00F09D80F0B482B0EFF340
:1002A0001083B3FA83F35B09009372B6BFF35F8FD9
:1002B00000224A4B1A70009C474A1378013313708E
:1002C0002CB10122454B1A70BFF35F8F62B6836871
:1002D000434A93600023136153620193414BA3FB94
:1002E00001239A0C4FF47A7303FB02F33E4AA2FBFC
:1002F00003239B08019A934205D9019A0132019286
:10030000019A9A42F9D3364D01222A604FF0E04417
:100310000022228002262E6022800192019A9A42B7
:1003200005D2019A01320192019A9A42F9D32C4ADC
:10033000042414604FF0E04501262E80146002264C
:100340002E80146003262E8014602C8014600527F4
:100350002F80146006272F80146007272F801460D9
:1003600008242C801660426852002A444CF6FE2471
:10037000148000220192019A9A4205D2019A013218
:100380000192019A9A42F9D3154A05231360006835
:100390000223834003F1E0430020188010604FF0F7
:1003A000E0431880114BA3FB01139B0901930199B2
:1003B00043F6095303FB01F30193019B0949A1FB98
:1003C00003139B0C0193019BC3F30B03536002B017
:1003D000F0BC7047FEE700BF34104020E70040202B
:1003E0000040084083DE1B43ABAAAAAAD34D62108B
:1003F00010B4AC2303600B684A68B3FBF2F31B092B
:100400005C1E4FF6FE72944208D803628B6843600C
:100410005023036000205DF8044B70470120FAE789
:10042000402303607047436913F0020F02D0C1619B
:100430000020704701207047436913F0010F03D07B
:1004400083690B7000207047012070474FF4000251
:10045000034B1A634FF4007203F580631A6370470D
:10046000000E0E404FF40002014B5A63704700BF6C
:10047000000E0E4020B94FF40072044B1A6370470F
:100480004FF40072014B5A63704700BF00120E40D8
:100490000B4BA3FB00239B094FF47A7202FB130062
:1004A00080B220B94FF40002064B5A637047B0F592
:1004B000FA7F03D14FF40002024B1A63704700BF6A
:1004C000D34D6210000E0E4008B5044B9847002033
:1004D000034B9847034B984708BD00BF911340005A
:1004E000C9134000DD13400010B51048104B984769
:1004F0003E2100200F4B98470F4CA0470028FCD00E
:100500000E4B98470E4A0F4B9A620F4CA04700289B
:10051000FCD002200D4B984700200D4B98470D4B07
:1005200098470248024B984710BD00BF80D1F008A1
:10053000852B40000D1340006113400071134000F3
:10054000013F182000060E40811340007112400048
:10055000A9124000792A4000014B1878704700BF6B
:10056000BC0A402008B5064B9847C378054A13706B
:10057000012B01D0012008BD034B984708BD00BFE7
:1005800049084000BC0A4020353D400008B5044BF6
:100590001B78012B00D008BD024B9847FBE700BF3A
:1005A000BC0A40207531400008B5134B1B7813F08E
:1005B000800F05D103F06003402B0FD0002008BD51
:1005C00003F06003402B01D0002008BD0A4B5B788C
:1005D0000BB1002008BD094B984708BD064B5B785E
:1005E0003BB9054BDB880BB9002008BD044B98478D
:1005F00008BD002008BD00BF3C104020A1314000D4
:100600008131400010B582B000920B4602460021B5
:100610008120024CA04702B010BD00BF212640003F
:1006200010B582B000920B46024600210220024C17
:10063000A04702B010BD00BF2126400010B582B017
:1006400000920B46024600218320024CA04702B0D4
:1006500010BD00BF2126400010B582B000920B46AD
:10066000024600210420024CA04702B010BD00BF8A
:100670002126400010B582B000920B4602460021B0
:100680008520024CA04702B010BD00BF21264000CB
:1006900010B582B000920B46024600210620024CA3
:1006A000A04702B010BD00BF21264000104B1B68C0
:1006B0001A6853881A4403781844904211D2437838
:1006C000042B10D08B4209D003781844904206D2F4
:1006D0004378042B09D08B42F6D107E07047002005
:1006E000704700207047002070470020704700BF0F
:1006F000CC0A402008B5034B987800F07F00024BED
:10070000984708BD3C1040207D234000194B1B78C2
:100710004BB3194B1B681B681A79824225D970B4F8
:10072000164A13605C881C44A34220D2002501268F
:1007300007E0124A13600FE01A7813443546A342CB
:100740000CD25A78042AF7D19A788242F4D1DA7816
:100750008A42F1D1002DECD1012002E0074A13605A
:10076000002070BC704700207047002070470020B8
:10077000F7E700BFC80A4020CC0A4020D00A40203A
:100780002DE9F84304460021134B9847804610B9E1
:100790004046BDE8F883114B1B685B6853F8249012
:1007A000D9F80C309847014620460B4B98478046B5
:1007B0000028EDD00A4B1C6805260A4D0A4F314629
:1007C0002046A847044610B18078B847F7E7D9F823
:1007D00004309847DCE700BF0D074000CC0A4020FA
:1007E000D00A4020AD064000D12340002DE9F04161
:1007F0008046104B98470346C8B10F4B1C6805262E
:100800000E4D0F4F31462046A847044638B1828826
:10081000C1788078B84703460028F3D107E0094B38
:100820001B685B6853F828301B68984703461846D6
:10083000BDE8F0810D074000D00A4020AD06400021
:100840002D274000CC0A4020014B1868704700BF9C
:10085000D00A402008B5014B984708BD312240001E
:1008600070B50D4B1B7883B10C4B1B681B681B7953
:100870005BB100240A4E094D2046B0470134E4B272
:100880002B681B681B79A342F6D80022024B1A7012
:100890000122044B1A8070BDC80A4020CC0A4020B7
:1008A00081074000BE0A402038B50D4B1B78B3B11C
:1008B0000C4B1B681A6812798AB10024094D06E0B6
:1008C0000134E4B22B681A681279A24207D95B6836
:1008D00053F824301B69002BF2D09847F0E738BD5D
:1008E000C80A4020CC0A4020F8B5884B00229A81E3
:1008F0001A615A611B7813F0800F14D113F0600F46
:1009000000F0D580814B1B7803F01F03012B00F012
:100910006C817E4B1B7803F01F03022B00F0C78114
:1009200000231846F8BD794AD288002A00F0E881F1
:1009300013F0600FE6D113F01F0306D17349497815
:10094000062914D0082974D051B1012B79D0022B7B
:10095000D8D16E4B5B78002B00F09B80002388E1A0
:10096000022AD6D102216A486A4B9847BBE0674BFE
:100970005A88130A013B0E2B00F27881DFE813F04E
:100980000F001D00370076017601760176017601B1
:100990007601760176017601760176012F005E4BB5
:1009A000186801785B4B9847584BDA889B899342CB
:1009B00040F29980554B9A8195E0D2B2564B1B6814
:1009C0005B7C9342A5D9544B5B6853F83200418855
:1009D000504B98474D4B9B6802225A70E4E74E4BB0
:1009E0009868002895D041884A4B9847DCE7D2B2F6
:1009F000012A1BD0AAB1022A84D1484A0A24013A0A
:100A00004749002312F8010F21F8020F0133DBB22E
:100A1000A342F7D361000231414801703D4B984732
:100A2000C2E704213F483B4B9847BDE73E4A1524A7
:100A3000E5E7012A7FF46DAF01213C48354B98472B
:100A400051E0324949780A2981D1012A40F0CD800C
:100A5000364B1B78002B00F0C8802C4B1C79344B94
:100A60001D682B681B79A34240F2BF8000212046FD
:100A7000304B984700283FF445AF6B6853F824305B
:100A8000DB6898472C4B187001211846214B98477A
:100A900029E0022A7FF43DAF1C4B1879274B984779
:100AA000274B1880022118461A4B98471BE013F079
:100AB0001F0340F08380154A5278013A082A7DD8F6
:100AC000DFE812F013007C00D6007C0009007C00F7
:100AD0007C007C0042000D4BDB88002B7FF419AFBB
:100AE000184A0A4B1A6101231BE7084BDB88002BCD
:100AF0007FF40FAF054B5B88012B7FF40AAF044AEC
:100B0000138823F002031380EDE700BF3C10402060
:100B1000BE0A4020C523400020004020DC004020C9
:100B200094004020C0004020C4004020C80A40205B
:100B3000CC0A40200D074000C40A40202D2440006C
:100B4000C00A4020F50640006F4BDB88002B7FF485
:100B5000E0AE6E4B984700283FF4D4AE6A4B9A78CB
:100B60006B4B1B685B7C9A423FF7CCAE694B984756
:100B7000654B9A78684B1A70002AB4D06FF06043C6
:100B80001344634A526802EBC3006449086052F898
:100B900033301B79002BA6D000242646604D0F462B
:100BA00031462046A84700283FF4ACAE0134E4B2F9
:100BB0003B681B681B79A342F2D894E7012B0AD04B
:100BC000022B7FF49FAE504B5B78012B2BD0032B75
:100BD00039D000234DE04C4A52780B2AF0D14A4BD1
:100BE000DB8813B94C4B1B7873B94B4B1B78002B2C
:100BF00000F08880444B1C79484B1D682B681B799A
:100C0000A3423AD800238CE63F4B1C795D882046EE
:100C1000444B984700283FF475AEE9B22046404B5C
:100C20009847034625E0384BDB88002B7FF471AEF4
:100C3000354B5B88002B7FF46CAE334B18793A4B05
:100C40009847034615E0304BDB88002B7FF461AEFC
:100C50002D4B5B88002B7FF45CAE2B4C2079334B03
:100C600098472079324B9847034602E0002300E082
:100C70000023002B7FF455AE44E6002120462D4B87
:100C8000984700283FF445AE6B6853F82450EB6852
:100C9000984701462046274B984700283FF439AE35
:100CA000AB689847034600287FF43BAE31E61A4B09
:100CB0001B780BB3194B1A6813681B79F3B1002426
:100CC0001C4E164F536853F82450EB689847014662
:100CD0002046B047034600283FF423AEAB68984750
:100CE000034600287FF41DAE0134E4B23A6811686F
:100CF0000979A142E6D814E6002312E6002310E6A3
:100D000000230EE600230CE63C104020A523400003
:100D10002000402061084000C80A4020CC0A402042
:100D2000ED0740008107400045254000252940008F
:100D3000412440000D07400070B54FF400428C4B39
:100D40005A60A3F545638B4A5A60A2F580725A60D7
:100D5000BFF34F8FBFF36F8F874BD3F8902222F0F2
:100D60000102C3F89022D3F8942222F00102C3F8C2
:100D70009422BFF34F8FBFF36F8F0A207F4CA047A1
:100D80000B20A0470C20A0471020A0471120A0470F
:100D90007B4B4FF400021A61C3F8A0201A63794913
:100DA0004FF400720A61C1F8A0200A635A61C3F8C7
:100DB000A0205A66C3F890205A651A62C3F88420AE
:100DC000196F21F400711967596F21F40071596787
:100DD000C3F8C020C3F8D420C3F8B0204FF40012E9
:100DE0001A66C3F890205A655A62C3F88020196FBA
:100DF00021F400111967596F21F4001159675A60E5
:100E0000614ED6F8143143F01003C6F814315F4B2D
:100E100010251D66C3F890505D655D62C3F8805073
:100E20001A6F2A431A675A6F2A435A675D604FF058
:100E300000615420564CA0474FF000615520A04758
:100E40004FF000615620A0474FF000615720A047A7
:100E50004FF000615820A0474FF000615920A04793
:100E60004FF000615A20A0474FF000615B20A0477F
:100E70004FF000615C20A0474FF000615D20A0476B
:100E80004FF0C0516D20A0474FF000615F20A04798
:100E90004FF0C0511220A0474FF0C0511420A0477E
:100EA0004FF0C0510020A0474FF0C0517720A0471D
:100EB0004FF0C0516E20A0474FF000614F20A04777
:100EC0004FF0C0517020A0474FF0C0517120A04793
:100ED0004FF0C0517D20A0474FF000615220A04745
:100EE0004FF0C0516F20A0474FF000614020A04755
:100EF0004FF000614120A0474FF000614220A04721
:100F00004FF000614320A0474FF000614420A0470C
:100F10004FF000614520A0474FF000614620A047F8
:100F20004FF000614720A0474FF000618020A047AC
:100F30004FF000618120A0474FF000618220A04760
:100F40004FF000618320A0474FF000618420A0474C
:100F50004FF000618520A0474FF000610F20A047AF
:100F60004FF000612846A047C6F8245170BD00BF6D
:100F700050180E400C08005A00ED00E0A913400084
:100F8000000E0E4000120E400080084000100E407F
:100F90008D1040004264B1F1C05F3AD013D8B1F176
:100FA000006F25D0B1F1805F0AD1036F134303674F
:100FB000436F416F0B4023EA02034367426070476F
:100FC0000029FBD17047B1F1205F21D009D8B1F1E0
:100FD000005FF3D1036F13430367436F134343670A
:100FE000ECE7B1F1405F13D0B1F1605F10D0E5E7FD
:100FF00010B4016F046FD34321401C4619400167B0
:10100000436F416F0B402340436742605DF8044BE0
:101010007047036F016F0B4023EA02030367436FBE
:1010200013434367CAE7416412F0010F0DD1016613
:1010300012F00A0F0BD0016212F0020F09D112F068
:10104000080F08D0C0F8841005E04166F0E741625F
:10105000F2E7C0F8801041610160704710B4019C54
:1010600041644CB901664BB101654AB94163016104
:1010700001605DF8044B70474166F4E74165F4E7B1
:101080000163F4E7C06C7047806C704770B582B044
:101090000D46464C04EB5014640201F0F043B3F1EA
:1010A000005F59D00AD8B3F1805F2FD0B3F1C05F91
:1010B0003FD0B3F1006F16D0002012E0B3F1405FD3
:1010C0005DD0B3F1605F5AD0B3F1205FF4D100F08E
:1010D0001F0101262A4606FA01F12046344B9847A3
:1010E000304602B070BD00F01F0001268640324637
:1010F0004FF0006120462F4B984715F0010F02D1A9
:1011000026660120EDE766660120EAE700F01F0091
:101110000126864032464FF080512046254B9847A5
:1011200015F0010F02D126660120DAE7666601207C
:10113000D7E700F01F000126864032464FF0C0512D
:1011400020461C4B984715F0010F02D1266601205E
:10115000C7E766660120C4E700F01F00012686404D
:1011600032464FF000512046124B984715F0010FC0
:1011700002D126660120B4E766660120B1E705F0DA
:10118000605200F01F01012605EA06030093C5F333
:101190008003B2F1605F14BF0022012206FA01F160
:1011A0002046054CA04730469BE700BF07072000BC
:1011B00027104000950F40005D1040002DE9F041E0
:1011C000044688460E4B9847054620460D4B9847E7
:1011D000054013D00C4C04F1600603E0B4420DD07E
:1011E00010345DB120684045F8D161682942F5D0DE
:1011F000E3689847636825EA0305EFE7BDE8F081F7
:101200008510400089104000D40A402008B50A210A
:101210000148024B984708BD000E0E40BD1140002A
:1012200008B50B210148024B984708BD00100E403D
:10123000BD11400008B50C210148024B984708BD7C
:1012400000120E40BD11400008B510210148024BAC
:10125000984708BD00140E40BD11400008B511218B
:101260000148024B984708BD00160E40BD114000D2
:10127000032811D0042812D002280CBF4FF480712B
:101280000021084A136B23F440730B431363936EDE
:1012900013F0080FFBD070474FF44071F1E74FF4A3
:1012A0000071EEE700060E40174A136B23F070033F
:1012B00018431063936E13F0080F0AD14FF40063C4
:1012C00011498A6E12F0080F03D1013BF9D10120B8
:1012D00070470D4A136B23F0030343F002031363BB
:1012E000936E13F0080F0AD14FF4006306498A6E1B
:1012F00012F0080F05D1013BF9D101207047002001
:1013000070470020704700BF00060E40A0B90E488D
:10131000036A090289B20D4A1A400D4B134319435F
:1013200001620246936E13F0010FFBD0064A116A68
:10133000084B0B431362704703490B6A064A1A4075
:10134000064B13430B62704700060E40FCFFC8FFBC
:101350000100370000003701FCFFC8FE0200370122
:10136000024B986E00F48030704700BF00060E40BC
:101370004FF00052014B9A62704700BF00060E40CA
:10138000024B986E00F00200704700BF00060E404E
:101390004FF44412034BDA611A46936E13F0400F78
:1013A000FBD0704700060E4000F07F00054BC3F8ED
:1013B0000C01D3F80C2142F01022C3F80C210020BC
:1013C000704700BF00060E40000200F4706040F05D
:1013D0000100014B9863704700060E402022014B2C
:1013E0001A60704700060E40034B1A6FC0F31200DC
:1013F00010431867704700BF00060E40704700009A
:10140000104A136F23F4C00343F480031367116A77
:101410000D4B0B431362936E13F0080FFBD04FF488
:10142000FA7300BF013BFCD1064A136A13F0080FA0
:10143000FBD0044A136F23F4C00343F48003136703
:10144000704700BF00060E40040037002DE9F84346
:10145000431E042B00F20781DFE813F005000500AE
:1014600015001500F600814A136923F00403136187
:1014700001227F4B1A70BFF35F8F62B6BFF34F8FAD
:1014800030BFBDE8F883044603280CBF00204FF4AA
:101490000010784B984772B6BFF35F8F0022744BF1
:1014A0001A700122744B1A70744B1F6A1D6B744AB8
:1014B000D2F800809E6A734A3A431A6205F0030923
:1014C000B9F1010F40F2898025F0030141F00101DB
:1014D00019631A46936E13F0080FFBD011F0700FCA
:1014E00008D021F07001654B19631A46936E13F012
:1014F000080FFBD0644B9847604A936E13F4003F8B
:10150000FBD05E4A116A614B0B4043F45C131362DB
:10151000936E13F4803FFBD028F47063584A136035
:10152000042C5CD0524C01232370BFF35F8F62B652
:10153000574B984772B6BFF35F8F0023237017F0A5
:10154000020F55D04D4A136A52491940524B0B4372
:101550001362116A514B0B4043F45C131362504BFE
:101560003340002B6ED046F00056444B9E62022161
:10157000B9F1020F04D1414A936E13F0020FFBD070
:101580003E4A136B23F0700305F0700003431363AE
:10159000936E13F0080FFBD0394BC3F80080A3F50E
:1015A000C0631D631A46936E13F0080FFBD0334AD5
:1015B000936E0B42FCD000222F4B1A70394B1B68E4
:1015C0001BB198470022374B1A600122284B1A7032
:1015D000BFF35F8F62B6BDE8F88329467EE7A2F5C8
:1015E000C062116A304B0B4043F45C13136299E7FD
:1015F00017F0010FB3D0214B1B6A13F0010F0BD171
:101600001E490B6A294A1A40294B13430B620A46AA
:10161000936E13F0010FFBD0184B1B6A13F0807F01
:1016200008D1164A116A234B0B431362936E13F4CD
:10163000803FFBD0114A116A184B0B4043F45C13F6
:1016400013628CE7002193E7084A136943F004030F
:101650001361194A194B1A600122054B1A70BFF326
:101660005F8F62B630BFBDE8F88300BF00ED00E0D9
:10167000E7004020FD134000440B402000060E40D0
:10168000000C0E400800370071134000FFFFC8FE39
:1016900001144000FCFFC8FE0200370187FFC8FFAD
:1016A0000000FF07480B4020FEFFC8FFFCFFC8FFFB
:1016B0000100370000003701040000A510180E409B
:1016C000024B187880F00100704700BF440B4020A7
:1016D00082B0014628BB244B1B781BB9224B1970E2
:1016E00002B07047214B9B7803B9FEE7EFF31083FC
:1016F000B3FA83F35B09009372B6BFF35F8F0022E6
:101700001B4B1A700098194A9378013B937000287C
:10171000E4D00122164B1A70BFF35F8F62B6DDE78B
:10172000FEE7114B1B78002BD8D1104B9B78FF2B79
:10173000F6D0EFF31083B3FA83F35B09019372B62B
:10174000BFF35F8F00220A4B1A700198074A937803
:10175000013393700028C1D00122054B1A70BFF3EA
:101760005F8F62B6BAE700BF4D0B402034104020B7
:10177000E700402082B0EFF31083B3FA83F35B09F4
:10178000019372B6BFF35F8F00220C4B1A70019B5E
:1017900001210B4A116023B1084B1970BFF35F8F11
:1017A00062B60222074B1A60074A00231361536195
:1017B0009381064A137002B0704700BFE7004020D3
:1017C00020820340608103403C104020540B4020A5
:1017D0000522034B1A704FF40022024B1A60704727
:1017E000540B4020F081034082B003220F4B1A704B
:1017F000EFF31083B3FA83F35B09019372B6BFF37F
:101800005F8F00220A4B1A7001980A4901220A6070
:10181000094B1A6008220A601A6028B10122044BA1
:101820001A70BFF35F8F62B602B07047540B40204E
:10183000E700402060810340F081034008B5024B7F
:101840001B6903B1984708BD3C10402030B585B0F6
:10185000EFF31083B3FA83F35B09019372B6BFF31E
:101860005F8F00224F4B1A70019B01214E4A11607D
:1018700023B14C4B1970BFF35F8F62B64B4B1B7893
:10188000032B5DD04A4B1B884A4A9489E41AA4B2C0
:10189000C4B9494A11880B449BB21380454AD28887
:1018A0009A4252D0454B1B78002B4ED1414B5B697D
:1018B000002B67D09847002864D000223C4B1A8048
:1018C0003C4B9C893F2C5DD900223C4B1A70402434
:1018D000384B9968364B1888EFF31083B3FA83F3CB
:1018E0005B09029372B6BFF35F8F00222D4B1A7013
:1018F000029D334B1B6813F0020F47D154B10144D2
:101900003048431C0A78D2B2027018460131DBB26B
:10191000A342F6D3264B1A8814441C80BFF34F8F82
:10192000BFF36F8F0123284A136090321360002D9C
:1019300036D01A461B4B1A70BFF35F8F62B62FE08A
:10194000224B9847224B98472AE00422174B1A70E3
:10195000EFF31083B3FA83F35B09039372B6BFF31B
:101960005F8F00220F4B1A70039A102316490B60E9
:1019700090310B60A2B101220A4B1A70BFF35F8F46
:1019800062B60DE001220D4B1A70A1E72DB10122C4
:10199000044B1A70BFF35F8F62B60422034B1A70B8
:1019A00005B030BDE700402020820340540B4020AA
:1019B000500B40203C104020520B40204C0B40204C
:1019C00030810340000010A0608103403D184000BA
:1019D00075174000037D13F0010F13D010B50C46AE
:1019E000037D6FF300030375036853B1064951F893
:1019F000221011F4807F18BF42F0800281682046D7
:101A0000984710BD704700BF00810340431E03EBA1
:101A100043015F4A02EBC102127D12F0010F00F098
:101A2000B680F0B583B00A46594901EBC202D168CD
:101A30009268914278D0521AB2F5803F1BD81704B1
:101A4000544C54F8205015F4807F18D054F820508E
:101A5000C5F302150824AC40013C144217D047F0EE
:101A6000080703EB43044A4D05EBC404257D6FF3DF
:101A7000410525750BE04FF480320027E0E754F86C
:101A80002050C5F3C125012D37D047F01407424C33
:101A900004EB001403EB43053D4E06EBC5056D68F2
:101AA00029446160EFF31081B1FA81F14909019194
:101AB00072B6BFF35F8F002538490D70019DE16854
:101AC00011F0100F22D147F02107A76003EB43006C
:101AD00006EBC001C8681044C8600A614FF000708E
:101AE00000FA03F32E4A9361002D4ED001222B4BB6
:101AF0001A70BFF35F8F62B647E054F82050C5F309
:101B000002150824AC40A242C1D8BEE72DB1012184
:101B1000224A1170BFF35F8F62B603EB43021C4988
:101B200001EBC202D16891601A4A52F8202012F4E7
:101B3000807F21D003EB4302154901EBC202127DE5
:101B400012F0020F18D00122164B43F82020303B30
:101B500053F8203013F4803F02D0134B43F8202079
:101B60000122124B43F820204FF4805202FA00F079
:101B7000A3F5F873986108E0024603EB43030021E4
:101B8000034800EBC3000A4B984703B0F0BD704711
:101B9000580B40200081034000830340E7004020B1
:101BA000008003406081034090810340F081034046
:101BB000D51940002DE9F04385B0874B984720B9EF
:101BC000864B5B6813F0010F11D0844B5B6813F0F8
:101BD000040F16D0814B04229A60D3F8043813F412
:101BE000405F0BD07E4B984705B0BDE8F08372B6DE
:101BF000BFF35F8F00227B4B1A70F5E77A4B984753
:101C0000F0E7764B5B6813F0020F33D1734B5B68E0
:101C100013F4805F26D0754B10221A6008221A60D8
:101C2000F03B1B6813F0040F2AD1714B1B6813F0B3
:101C3000010F05D06F4B1B6813F0010F40F08B8034
:101C40006B4B1B6813F0020F40F08880684B1B68D9
:101C500013F0080F40F03581654B1B6813F0100F2F
:101C600040F04281644E01235C4A4FF0007E4FF405
:101C7000805C84E10222594B9A605B4B9847B3E742
:101C80005E4B1B78002B47D1594B1B68C3F30A539B
:101C9000082B46D1564B1868C0F30A5048B1584B30
:101CA000584C5A1C1978DBB219551346D2B28242ED
:101CB000F7D3554B9847002839D00422534B1A606C
:101CC000504B93F90030002B37DB4E4BDB88002B59
:101CD0003ED000224E4B1A804E4B1A800121474BBA
:101CE00019701021494B1960EFF31083B3FA83F395
:101CF0005B09019372B6BFF35F8F3A4B1A70019B79
:101D0000454A1160002B3FF46FAF0122354B1A702A
:101D1000BFF35F8F62B667E7404B9847404B9847E9
:101D2000B2E7404B98470422384B1A605CE73D4BC2
:101D300098470422354B1A6056E70023344A138033
:101D4000344A138002222D4B1A70374B98474BE7C9
:101D5000364B984748E7344B984745E7274B1B7865
:101D6000012B0BD0022B04D0042B02D02D4B984713
:101D700001E02A4B98472A4B984735E71C4B1868D7
:101D8000C0F30A501F4B9B89224A148822189342A1
:101D900001DA1B1B98B21B4B9968214478B1184A91
:101DA000531C1278D2B20A7001311A46DBB2834258
:101DB000F6D30444A4B2174B1C80402838D0114BF2
:101DC0009C815B6913B1984700285AD002220F4BBF
:101DD0001A60164B984707E7C11640000080034081
:101DE00055314000E7004020A90840002082034010
:101DF00030810340C081034034810340540B4020B4
:101E0000000010A03C104020E90840006081034021
:101E1000520B4020500B4020F08103403D18400001
:101E200075174000D11740004D184000E9174000D9
:101E3000A84BDA88A84B1B8823449A42BFDDA54BE8
:101E40009B89A34223D0A54B02221A6010221A605C
:101E5000EFF31083B3FA83F35B09029372B6BFF317
:101E60005F8F00219E4B1970029B9E490A60002BD8
:101E70003FF4BAAE01229A4B1A70BFF35F8F62B67D
:101E8000B2E6994B98470222944B1A60ACE6914B0C
:101E90005B6953B1984770B18F49944A0B88108899
:101EA00003440B8000231380CDE78F4B9847022219
:101EB0008A4B1A6098E68C4B98470222874B1A602F
:101EC00092E60822854B1A60303B1B6813F0010F25
:101ED0007FF48AAE864B1B78032B7FF485AE4FF4DC
:101EE0000022804B1A607FE610227C4B1A60303B48
:101EF0001B6813F0020F7FF477AE7D4B1B78012B2C
:101F000007D0042B7FF470AE4FF40022754B1A609B
:101F10006AE6784B984767E6774B03EB0013DA687D
:101F200012F0010F7FF460AE744A5161DB681B0C44
:101F300008D0734A7C00E51902EBC505E968CB1AA5
:101F4000EB60AB606F4B98474EE66F4B012249F850
:101F50000320624949F801204FF4804249F80320E8
:101F600007EB470702460021654800EBC700674BB7
:101F7000984739E601330436072B00F0D580D8B2F4
:101F80001D465F1EB84614690EFA07F10C4202D0D6
:101F900054682142C0D111690CFA05F52942E9D0F3
:101FA0004FEA830906F19004D6F8901011F0010F62
:101FB00003D0316811F0010FC7D1216811F4805F9F
:101FC000D8D0316811F4405FD4D14FF480524E4BD9
:101FD00049F80320A3F508735D6108EB4808484BF6
:101FE00003EBC80898F814206FF3820288F81420D5
:101FF000474A59F8023023F4007349F80230394B4C
:102000004FF4002249F803204FF4802249F80320BE
:10201000EAE50822394B9A60394D002401273B4EEE
:102020000134E4B2224639462846B0471835062C1A
:10203000F6D1384B9847314B1A6822F07F021A606C
:102040001A6842F080021A6031490868324A024038
:1020500042F030020A600A6842F002020A60DA695D
:1020600042F00102DA61EFF31082B2FA82F2520911
:10207000039272B6BFF35F8F0021194A1170039962
:10208000184A04201060022010604FF480529A61B8
:1020900029B10122124B1A70BFF35F8F62B61F4B3A
:1020A0009847A1E5154BD3F8002822F48042C3F8E5
:1020B000002801225A6110229A61D3F8002842F4C4
:1020C0008042C3F800280020154B9847154B9847CD
:1020D0008AE500BF3C104020520B40206081034045
:1020E000E7004020F0810340D1174000500B402012
:1020F000540B4020E9174000008303400080034058
:10210000580B40200D1A400020820340D519400092
:10211000008103406108400083E6FFFF751740001F
:10212000D1164000253140001B4B5B6813F0080FAF
:102130007FF46FAF184B1B6913F0010F04D0164BDF
:102140005B6813F0010FADD1134B1B6913F0100F37
:102150003FF44AAD104B5B6813F0100F3FF444ADF1
:102160000D4AD2F8003823F48043C2F800381346F1
:10217000D3F8042812F4804F03D15A6812F0010FEB
:10218000F6D0054B10225A6101209861034B984705
:10219000034B984728E500BF00800340D11640005C
:1021A0003D31400030B583B0EFF31083B3FA83F3D1
:1021B0005B09019372B6BFF35F8F0022194B1A704F
:1021C000019C0120184B9847184AD2F8003823F494
:1021D0008043C2F80038D2F8043813F4804FFAD0A4
:1021E000124B1A6822F480721A6008259D61012141
:1021F000996110229A61042098619D609860022084
:102200009860D9609A60D3F8002842F48042C3F8FD
:10221000002824B1034B1970BFF35F8F62B603B07F
:1022200030BD00BFE7004020D116400000800340D1
:1022300010B582B0EFF31083B3FA83F35B09009318
:1022400072B6BFF35F8F00223F4B1A70009C2220B2
:102250003E4B98473E4B98473E4BA02283F82223A3
:1022600004225A604FF480203B4B98473B4B4FF081
:102270000072C3F80028D3F8002842F40042C3F8E3
:1022800000281A6822F480521A601A6842F44062E8
:102290001A60D3F8002822F48042C3F800281A46B6
:1022A000D2F8043813F4804FFAD000222C4853009F
:1022B000991800EBC101097D134400EBC30301F041
:1022C000FE016FF3820119750132062AEFD1234A0C
:1022D000D2F8003843F48043C2F80038214B1B7811
:1022E0001BBB01221F4B1A7000221F4B1A701F4B81
:1022F000DB78FF2B18D0EFF31083B3FA83F35B097D
:10230000019372B6BFF35F8F00220F4B1A700199D1
:10231000164AD3780133D37051B101220A4B1A7097
:10232000BFF35F8F62B603E0FEE70020104B9847D3
:10233000104B98472CB10122034B1A70BFF35F8FEB
:1023400062B602B010BD00BFE7004020A9134000F4
:10235000C904400000E100E0E913400000800340B0
:10236000580B40204E0B40204D0B40203410402095
:10237000D1164000A521400000207047084B1A6884
:1023800022F080021A601A6822F07F0200F07F00BB
:1023900002431A601A6842F080021A60704700BF58
:1023A00000800340024B186800F07F00704700BFB8
:1023B00000800340024B186AC0F3CA00704700BF98
:1023C00000800340014B9860998170473C10402089
:1023D00000F00F02062A00D9704770B51048C36993
:1023E000012101FA02F423EA0403C36100F58070BD
:1023F00050F8223023F0020340F82230561E094CD8
:1024000006FA01F5A81904EBC000074B98473544BC
:1024100004EBC504237D6FF38203237570BD00BFF9
:1024200000800340580B4020D519400000F00F00F9
:10243000024B53F82000C0F3C0407047C0810340F6
:1024400000F00F03062B5DD8364A52F8232012F411
:10245000002F59D110B483B0591E01EB4104324A08
:1024600002EBC402127D12F0040F4FD112F0010FE3
:1024700051D1EFF31082B2FA82F25209019272B690
:10248000BFF35F8F0024294A1470019C10F0800F65
:1024900018D1274951F8232022F4007241F8232053
:1024A0004021244A42F823104FF40021903242F890
:1024B0002310002C33D001201C4B1870BFF35F8F0A
:1024C00062B624E01C4A52F8232012F4405FE0D0A8
:1024D00001EB4101144A02EBC1010A7D42F0040202
:1024E0000A754FF48052154941F8232002FA03F38C
:1024F000134A93618CB101200C4B1870BFF35F8FAE
:1025000062B604E00020704701207047012003B04C
:102510005DF8044B70470020F9E70120F7E7012040
:10252000F5E700BFC0810340580B4020E700402082
:10253000008103406081034030810340F08103400B
:102540000080034000F00F00062851D810B5431E4C
:1025500003EB43012C4A02EBC102127D12F0040F7F
:1025600048D00A46284901EBC202117D6FF382016F
:10257000117582004FF48051244C44F820108140A2
:10258000A4F508746161224951F8201011F4002F5C
:1025900014D02049515811F0400F06D040201E4958
:1025A00050504FF48020903150504FF40020174984
:1025B00050501A48115841F40071115003EB430276
:1025C000114901EBC202127D12F0010F01D101206D
:1025D00010BD08465900CA1800EBC202147D6FF303
:1025E000000414750B4450F833309847012010BD97
:1025F000002070478200064951F8201011F4002F86
:10260000C7D1012010BD00BF580B402020820340DD
:10261000C08103403081034060810340008103405A
:10262000F0B583B000F00F003A4C54F82040062873
:1026300064D8394CE569012484402C4261D0374C80
:1026400054F8204014F4002F5DD1441E04EB4406DE
:10265000334D05EBC6052D7D15F0040F55D1EFF375
:102660001085B5FA85F56D09019572B6BFF35F8FD8
:1026700000262C4D2E70019F04EB4405284E06EBDE
:10268000C5052D7D15F0010F09D0002F3FD0012287
:10269000244B1A70BFF35F8F62B600202FE004EB6B
:1026A00044051F4E06EBC5052E7D46F001062E752E
:1026B0002FB101261B4D2E70BFF35F8F62B6184DF0
:1026C00066003719FF0005EB070ECEF80420CEF8A0
:1026D00008300022CEF80C20CEF81020089AEA51DB
:1026E000002B08BF41F001019EF8143061F3410353
:1026F0008EF814300C4B9847012000E0002003B006
:10270000F0BD0020FBE70020F9E70020F7E70020FC
:10271000F5E700BF0081034000800340C081034013
:10272000580B4020E70040200D1A40002DE9F04FE3
:1027300083B000F00F04062C00F2DF80734BDD69DC
:102740000123A3402B4040F0DD8001F00305022D62
:1027500005D0032D20D0012D1ED00023CEE04FF058
:10276000010E6B4E06EB840556F824C0694F0CEA47
:102770000707C90201F4C05140B20028B8BF4FF4A6
:102780008073A2F5806080B2B0F57C4F07D3082A31
:1027900024D95200013A04E04FF0000EE1E740F284
:1027A000FF72B2FA82F241EA8E010B43C2F11C02BF
:1027B00043EA021323F4D06323F00303DB04DB0CAE
:1027C0003B4346F824300127A740BFB2052C1CD854
:1027D000514A06234D484FF0010E06E00F22E0E774
:1027E000013B043AD9B28C420FD2C6690EFA03F10A
:1027F0000E42F5D00F43BFB2C66926EA0101C1619E
:10280000116821F002011160EAE704EB4403434E32
:1028100006EBC306DFF80491DFF8F080DFF800A1D3
:102820001DE001EB41033D4A52F83340002C6BD0D0
:102830002B6813F4807F18BF40F0800001EB41014A
:10284000364B03EBC1010246C9680120A0470023B3
:1028500054E0013404351836E3B2062B4BD8E0B20D
:1028600047FA04F313F0010FF3D0611E01EB4103AB
:1028700009EBC30393F814E00EF001026FF3000EAE
:1028800083F814E02B6843F002032B60D8F81CE0B7
:102890000123A34043EA0E03C8F81C302B6B13F44A
:1028A000802FBED02B6843F400732B60002AD0D059
:1028B00056F80C3C56F8082C9A1A46F80C2C2B6843
:1028C00013F4807F18BF40F0800056F810BC56F813
:1028D00014CC01EB410109EBC101097D56F8183C0C
:1028E0000093ABEB02036244C1F34001D0470346BF
:1028F0000028AED102E0012300E00023184603B017
:10290000BDE8F08F0023F9E70023F7E700800340DC
:102910000081034083E6FFFF18810340580B4020ED
:102920002126400070B500F00F02541E4FF00073D6
:10293000A34018494B61184B03EB021300259D601F
:102940004FF4805393404B61BFF34F8FBFF36F8FB2
:1029500010F0800F08D104EB440401210F4800EB74
:10296000C4000F4B984770BD93000E4818440E4D9D
:102970001D444FF4005601F5E071194404E02E6047
:102980000B6813F4005FFBD1036813F4405FF6D1CA
:10299000E1E700BF0080034000830340580B402064
:1029A000D519400030810340F0810340FEE700006C
:1029B00000B583B0254B264A9A4210D0254B234AB6
:1029C0009A420CD2013B9B1A23F0030304331344B5
:1029D0001F4951F8040B42F8040B9A42F9D11E4BDF
:1029E0001E4A9A420AD2013B9B1A23F00303043386
:1029F0001344002142F8041B9342FBD1184A194B9F
:102A000023F07F039360EFF31083B3FA83F35B0942
:102A1000019372B6BFF35F8F0022134B1A700199B6
:102A2000124A136843F470031360BFF34F8FBFF370
:102A30006F8F29B101220C4B1A70BFF35F8F62B602
:102A40000B4B98470B4B9847FEE700BF0000402018
:102A5000D06F4000A00A402090104020A00A4020E3
:102A600000ED00E000004000E700402088ED00E0BD
:102A70008D3D4000013B40003B4B1B6B03F00303CB
:102A8000012B1DD083B1022B36D0374B1B6B03F0CB
:102A90007003702B5FD0344B1A6B3449C2F30212AF
:102AA0000B68D3400B607047314B5B6913F0800FAC
:102AB00014BF4FF400424FF4FA422C4B1A60E4E783
:102AC000294B1B6A13F0807F03D02A4A274B1A60D8
:102AD000DBE7294A254B1A60234B1B6A03F070037E
:102AE000102B05D0202BD0D1224A204B1A60CCE7E6
:102AF000224A1E4B1A60C8E71B4B1B6A13F0807FEB
:102B000016D01C4A194B1A60174B1B6B03F00303BA
:102B1000022BBAD1144A916A926A1448C1F30A414D
:102B2000036801FB0333D2B2B3FBF2F30360ACE7FB
:102B3000114A0E4B1A600C4B1B6A03F07003102BEA
:102B400005D0202BE0D10B4A084B1A60DCE70B4A7A
:102B5000064B1A60D8E7054A13680949A1FB03131D
:102B60005B081360704700BF00060E40E80040207D
:102B700010180E40001BB70000093D0000127A003B
:102B8000ABAAAAAA164B984213D9164B984215D94C
:102B9000154B984216D9154B984217D9144B9842A9
:102BA00018D9144B984294BF134A144A144B1A6014
:102BB00070474FF08062124B1A607047114A104BF9
:102BC0001A607047104A0E4B1A6070470F4A0C4B40
:102BD0001A6070474FF00422094B1A60704700BF1B
:102BE000BFF35E017FE7BD023FDB1C04FFCE7B0528
:102BF000BFC2DA067FB639080005000400060004EB
:102C0000000C0E4000010004000200040003000458
:102C10000A4B1B6853B1094B1B681A1808499142AB
:102C200008DB1046054A106018467047054A034BFA
:102C30001A60F0E74FF0FF30704700BFE80B40200C
:102C4000FCFF4520903240204FF0FF3070474FF49A
:102C500000534B60002070470120704700207047F0
:102C6000F0B51B4BD3F88070C7F34E3607F0070062
:102C70000430C7F3C907B7FA87FE0EF01F0EBFF383
:102C80004F8F4FF0FF3404FA00FC06FA00F004FA0C
:102C90000EF407FA0EFE1D463A46734643EA00015B
:102CA000C5F86012013A2344B2F1FF3FF6D1013E6C
:102CB0006044B6F1FF3FEFD1BFF34F8F044A536931
:102CC00043F480335361BFF34F8FBFF36F8FF0BD79
:102CD00000ED00E0F0B5184BD3F88070C7F34E3626
:102CE00007F007000430C7F3C907B7FA87FE0EF0F4
:102CF0001F0EBFF34F8F4FF0FF3404FA00FC06FAAB
:102D000000F004FA0EF407FA0EFE1D463A4673462A
:102D100043EA0001C5F87412013A2344B2F1FF3FBF
:102D2000F6D1013E6044B6F1FF3FEFD1BFF34F8FC4
:102D3000BFF36F8FF0BD00BF00ED00E0F0B583B0D2
:102D400005460C46002301932A4B984213D02A4B88
:102D5000984218D0294B98421DD0294B9D4222D031
:102D6000284B9D4227D0284B9D422ED0274B9D4279
:102D700035D003B0F0BD1F46254E21463846B0473A
:102D80000028FAD1E9E71F46214E21463846B047D0
:102D90000028FAD1E4E71F461D4E21463846B047C9
:102DA0000028FAD1DFE71F46194E21463846B047C2
:102DB0000028FAD1DAE71E46164D01A93046A84789
:102DC0000028FAD1019B2370D3E71E46114D01A9BB
:102DD0003046A8470028FAD1019B2370C9E71E4658
:102DE0000C4D01A93046A8470028FAD1019B237059
:102DF000BFE700BF00080E40000A0E40001A0E4058
:102E0000001C0E40004002400080024000C0024012
:102E1000390440007702400070B50C462A4B9842B6
:102E200013D02A4B984219D0294B98421FD0294BD6
:102E3000984225D0284B98422BD0284B984231D02D
:102E4000274B984237D0002070BD1E46254D2146A5
:102E50003046A8470028FAD1012070BD1E46214DFA
:102E600021463046A8470028FAD1012070BD1E46F1
:102E70001C4D21463046A8470028FAD1012070BDDC
:102E80001E46184D21463046A8470028FAD1012099
:102E900070BD1E46144D21463046A8470028FAD181
:102EA000012070BD1E46104D21463046A84700281F
:102EB000FAD1012070BD1E460B4D21463046A84771
:102EC0000028FAD1012070BD00080E40000A0E4013
:102ED000001A0E40001C0E400040024000800240DC
:102EE00000C00240270440006102400000B170476A
:102EF00010B584B00A4C0B4A20460B4B9847A37878
:102F000062782178A079039060790290207901900D
:102F1000E07800900548064CA04704B010BD00BF03
:102F2000F40B4020AD3C400005064000106E400010
:102F3000DD3D400000B1704710B586B00B4C0C4A27
:102F4000142120460B4B9847A37862782178E079CA
:102F50000490A07903906079029020790190E07844
:102F600000900548054CA04706B010BD5410402005
:102F7000812F400059064000886D4000DD3D400033
:102F800000B1704710B586B00C4C0D4A0D49206851
:102F90000D4B98472068837842780178C47904946F
:102FA000847903944479029404790194C078009060
:102FB0000648074CA04706B010BD00BFEC004020FB
:102FC000352F400000983A003D064000B46D4000A7
:102FD000DD3D400008B50020014B984708BD00BF0B
:102FE0007504400020BB10B50C46A1B9114A1378F6
:102FF000B3FA83F35B0913700F4C04EB43240F4BBC
:10300000984700280E4A14BF40214FF48071204693
:103010000C4B984710BD01200B4B9847054B187877
:103020000A4A2146044B03EB4020094B9847DDE751
:10303000704700BFF10B4020F40B40207923400083
:10304000E52F40009106400075044000D52F400058
:10305000750640002DE9F04786B0254B4FF08042C1
:103060001A66C3F890205A655A62C3F88020196F17
:1030700021F080411967596F21F0804159675A60EA
:103080002D201C4DA8471C4C1C4B1C601C4A1D4B82
:103090001A601D4A1D4B1A60DFF87C80CDF8008055
:1030A0004FF4165701974FF4006602962D20A8475B
:1030B00069462046164DA847DFF860A0DAF80030D0
:1030C00000219868DFF85890C847DAF800300021EE
:1030D0005868C84720460F4B9847CDF80C80049796
:1030E000059603A92046A84706B0BDE8F08700BFB3
:1030F00000140E40A9134000001C0E403010402068
:10310000192E40002C1040203D2D4000281040205A
:10311000F10340002104400080D1F008F00040207D
:10312000A13E400008B5034B98470122024B1A709C
:1031300008BD00BF4D044000EC0B402008B5034B18
:1031400098470222024B1A7008BD00BF6504400078
:10315000ED0B402008B5044B1B7803B908BD034BA9
:103160009847034B9847F9E7F00B4020B523400000
:10317000910440000022014B1A707047F00B402070
:10318000054B064A9A60DA88B2F5806F28BF4FF483
:1031900080629A81012070473C104020F40B40204F
:1031A000054B064A9A60DA88B2F5806F28BF4FF463
:1031B00080629A81012070473C104020F40B40202F
:1031C00010B54FF0006154204D4CA0474FF0006106
:1031D0005520A0474FF000615620A0474FF00061F6
:1031E0005720A0474FF000615820A0474FF00061E2
:1031F0005920A0474FF000615A20A0474FF00061CE
:103200005B20A0474FF000615C20A0474FF00061B9
:103210005D20A0474FF0C0516D20A0474FF00061E6
:103220005F20A0474FF0C0511220A0474FF0C0517F
:103230001420A0474FF0C0510020A0474FF0C051CC
:103240007720A0474FF0C0516E20A0474FF000619B
:103250004F20A0474FF0C0517020A0474FF0C05101
:103260007120A0474FF0C0517D20A0474FF0006172
:103270005220A0474FF0C0516F20A0474FF000618F
:103280004020A0474FF000614120A0474FF000616F
:103290004220A0474FF000614320A0474FF000615B
:1032A0004420A0474FF000614520A0474FF0006147
:1032B0004620A0474FF000614720A0474FF0006133
:1032C0008020A0474FF000618120A0474FF00061AF
:1032D0008220A0474FF000618320A0474FF000619B
:1032E0008420A0474FF000618520A0474FF0006187
:1032F0000F20A0474FF000611020A04710BD00BF75
:103300008D1040002DE9F04F95B0C34BD3F880608D
:10331000C6F34E3E06F007000430C6F3C906B6FAFF
:1033200086F303F01F03BFF34F8F4FF0FF3404FA0F
:1033300000FC0EFA00F09C4006FA03F7B64D324648
:103340003B4643EA0001C5F86012013A2344B2F15A
:10335000FF3FF6D10EF1FF3E6044BEF1FF3FEED1DC
:10336000BFF34F8FAC4B5A6942F480325A61BFF3BE
:103370004F8FBFF36F8FD3F88060C6F34E3E06F0D9
:1033800007000430C6F3C906B6FA86F303F01F033C
:10339000BFF34F8F4FF0FF3404FA00FC0EFA00F039
:1033A0009C4006FA03F79C4D32463B4643EA000137
:1033B000C5F87412013A2344B2F1FF3FF6D10EF181
:1033C000FF3E6044BEF1FF3FEED1BFF34F8FBFF32E
:1033D0006F8F924C4FF4000323633E20904B98472D
:1033E000904B98479048914DA8474FF480732361C4
:1033F000C4F8A03023638E498E488F4B98478F4A7C
:10340000936A43F4807393628D48A8478D488E4B2E
:103410009847814BD3F88060C6F34E3E06F0070014
:103420000430C6F3C906B6FA86F303F01F03BFF3F0
:103430004F8F4FF0FF3404FA00FC0EFA00F09C406E
:1034400006FA03F7744D32463B4643EA0001C5F8DD
:103450007412013A2344B2F1FF3FF6D10EF1FF3E60
:103460006044BEF1FF3FEED1BFF34F8FBFF36F8FCC
:10347000DFF838A2DFF83892DFF83882DFF838C298
:10348000DFF838E2DFF838B2704FFF210726E02579
:10349000F8241F200022A7F52F6303F8021C03F86D
:1034A000011C02335345F8D103F8026C03F8011CE8
:1034B00002334B45F8D103F8021C03F8015C0233D8
:1034C0004345F8D103F8026C03F8015C023363450D
:1034D000F8D103F8024C03F8010C02337345F8D11C
:1034E00003F8022C03F8010C02335B45F8D103F812
:1034F000024C03F8012C0233BB42F8D1129307F5BA
:10350000C8731393129B1297139F03F8022C03F8AE
:10351000012C0233BB42F8D1129F07F548670BF527
:10352000486B0EF5486E0CF5486C08F5486809F5CF
:1035300048690AF5486A464B9F42ACD1454A464B1A
:103540001A60354BD3F88060C6F34E3E06F0070094
:103550000430C6F3C906B6FA86F303F01F03BFF3BF
:103560004F8F4FF0FF3404FA00FC0EFA00F09C403D
:1035700006FA03F7284D32463B4643EA0001C5F8F8
:103580007412013A2344B2F1FF3FF6D10EF1FF3E2F
:103590006044BEF1FF3FEED1BFF34F8FBFF36F8F9B
:1035A0002E4D2F4E2A7831462E48204CA047337896
:1035B0002A782D4D2D49097811912D4909781091BE
:1035C0002C4909780F912C4909780E912B490978DB
:1035D0000D912B4909780C912A4909780B912A49B8
:1035E00009780A91294909780991294909780891A6
:1035F00028490978079128490978069127490978C7
:1036000005912749097804912649097803912649AB
:103610000978029156E000BF00ED00E0000E0E4078
:10362000A9134000C1314000146D4000DD3D400051
:1036300000A3E111086D40009102400000400840E5
:103640001C6D400049569A0001004020F20A0071AA
:10365000F2A23A71010000A550180E40EE00007170
:10366000EF0000712C6D4000346D400001010071CD
:1036700000010071FF000071FE000071FD0000718B
:10368000FC000071FB000071FA000071F90000718C
:10369000F8000071F7000071F6000071F50000718C
:1036A000F4000071F3000071F200007192010071EA
:1036B00022030071B204007142060071D20700714A
:1036C0006209007180490978019180490978009167
:1036D0007F492846A0477F4B1B787F4A12787F4955
:1036E000097811917E49097810917E4909780F91E6
:1036F0007D4909780E917D4909780D917C490978B9
:103700000C917C4909780B917B4909780A917B4996
:10371000097809917A49097808917A4909780791D5
:1037200079490978069179490978059178490978A4
:10373000049178490978039177490978029177498A
:103740000978019176490978009176492846A04781
:10375000754B1B78754A127875490978119175492E
:1037600009781091744909780F91744909780E917C
:10377000734909780D91734909780C917249097858
:103780000B91724909780A91714909780991714937
:10379000097808917049097807917049097806916C
:1037A0006F49097805916F49097804916E49097844
:1037B00003916E49097802916D49097801916D492B
:1037C000097800916C492846A0476C4B1B786C4ADD
:1037D00012786C49097811916B49097810916B49FD
:1037E00009780F916A4909780E916A4909780D9113
:1037F000694909780C91694909780B9168490978F8
:103800000A916849097809916749097808916749D7
:103810000978079166490978069166490978059102
:1038200065490978049165490978039164490978E3
:1038300002916449097801916349097800916349CB
:103840002846A047624B1B78624A12786249097881
:103850001191624909781091614909780F91614984
:1038600009780E91604909780D91604909780C91A9
:103870005F4909780B915F4909780A915E49097897
:1038800009915E49097808915D49097807915D4978
:10389000097806915C49097805915C490978049199
:1038A0005B49097803915B49097802915A49097883
:1038B00001915A490978009159492846A047594829
:1038C000594B9847B2E000BFF1000071F000007161
:1038D00002010071EF001071EE0010710101107112
:1038E00000011071FF001071FE001071FD001071D9
:1038F000FC001071FB001071FA001071F9001071DA
:10390000F8001071F7001071F6001071F5001071D9
:10391000F4001071F3001071F2001071F1001071D9
:10392000F000107102011071EF002071EE002071A3
:103930000101207100012071FF002071FE00207143
:10394000FD002071FC002071FB002071FA00207145
:10395000F9002071F8002071F7002071F600207145
:10396000F5002071F4002071F3002071F200207145
:10397000F1002071F000207102012071EF00307120
:10398000EE0030710101307100013071FF003071C3
:10399000FE003071FD003071FC003071FB003071B1
:1039A000FA003071F9003071F8003071F7003071B1
:1039B000F6003071F5003071F4003071F3003071B1
:1039C000F2003071F1003071F0003071020130719D
:1039D000EF004071EE004071010140710001407143
:1039E000FF004071FE004071FD004071FC0040711D
:1039F000FB004071FA004071F9004071F80040711D
:103A0000F7004071F6004071F5004071F40040711C
:103A1000F3004071F2004071F1004071F00040711C
:103A200002014071252B4D00010040201C4AD2F8B4
:103A30008060C6F34E3E06F007000430C6F3C906A8
:103A4000B6FA86F303F01F03BFF34F8F516921F4D9
:103A5000803151614FF0FF3404FA00FC0EFA00F09F
:103A60009C4006FA03F7154632463B4640EA0301FE
:103A7000C5F87412013A2344B2F1FF3FF6D10EF1BA
:103A8000FF3E6044BEF1FF3FEED1BFF34F8FBFF367
:103A90006F8F044A044B1A6015B0BDE8F08F00BF69
:103AA00000ED00E0010000A550180E402DE9F047A0
:103AB0000F4B01221A61C3F8A020041E10DD1E4620
:103AC00017469246DFF830900A4DDFF83080C6F88E
:103AD00034A04846A84737634046A847013CF6D182
:103AE000034B01225A61C3F8A020BDE8F08700BF54
:103AF00000140E4001004020086F0F00939526002F
:103B00002DE9F041514B00221A705A709A70DA7008
:103B10001A7101225A714E4B98474E4B984702201A
:103B20004D4EB0474D4C4FF480752561C4F8A05000
:103B300065634B4FB847B8474A484B4B98474B4B88
:103B400098471420B0474A4B98474A4B98474FF440
:103B5000000323632561C4F8A05025634CF28E5006
:103B6000454B98474548D0F88020C2F34E3502F0C7
:103B700007030433C2F3C902B2FA82F101F01F0154
:103B8000BFF34F8F446924F4803444614FF0FF3019
:103B900000FA03FE05FA03F3884002FA01F1374FF9
:103BA00016460C4643EA040CC7F874C2013E0444AE
:103BB000B6F1FF3FF6D1013D7344B5F1FF3FEFD1C0
:103BC000BFF34F8FBFF36F8F01222D4B1A70BFF3DE
:103BD0005F8F62B62B4B9847DFF8B4804046264F84
:103BE000B847294D294E2E60204CA0474046B84783
:103BF0002E60A0474046B8472E60A0471C4B984710
:103C00001C4B98471E4C00252F46104EDFF8848031
:103C100004E001232370BFF35F8F62B672B6BFF377
:103C20005F8F27703378002BF3D1084B2846013083
:103C3000C0B213F8012F002AF9D00028E9D072B6DB
:103C4000BFF35F8F2570C047E8E700BF3410402006
:103C5000E9044000390D4000AD3A4000000E0E402E
:103C600055304000786D4000DD3D40000533400098
:103C7000612C4000D52C40000100402000ED00E008
:103C8000E70040205508400050180E40010000A5F4
:103C90006BAF03034D14400008B50248024B984730
:103CA00008BD00BF306E4000DD3D400000B17047F0
:103CB00010B584B0174C184A4FF480612046174B5A
:103CC00098472378572B10D0124883784278017890
:103CD000847903944479029404790194C078009023
:103CE0000F48104CA04704B010BD6378442BEBD1B3
:103CF000A378532BE8D16379012B08D0022BE3D1B1
:103D0000607B094B98470948064B9847DCE7084B0E
:103D10009847D9E7F40B4020ED2E400021064000E3
:103D2000F06D4000DD3D4000AD3A4000E46D4000E4
:103D3000993C400010B501240D4B1C700022114627
:103D400010460C4B984703220B4B1A700022114669
:103D500010460A4B98470422094B1A700020094B61
:103D6000187002460146084B9847204610BD00BF18
:103D7000F00B4020AD3C4000EE0B4020352F4000C2
:103D8000EF0B4020F10B4020E52F400070B50F4EA7
:103D90000F4D761BB61018BF002405D0013455F81E
:103DA000043B9847A642F9D10A4E0B4D761B03F00F
:103DB000F9F8B61018BF002406D0013455F8043BBA
:103DC0009847A642F9D170BD70BD00BFB06F4000EA
:103DD000B06F4000B86F4000B06F40000FB400B546
:103DE000074983B004AB086853F8042B816801933A
:103DF00000F066F903B05DF804EB04B0704700BF53
:103E0000F000402070B4860746D0541E002A41D0EE
:103E1000CAB2034602E014F1FF343BD303F8012B8E
:103E20009D07F8D1032C2ED9CDB245EA05250F2CDC
:103E300045EA054519D903F110022646103E0F2E1A
:103E400042F8105C42F80C5C42F8085C42F8045CF2
:103E500002F11002F2D8A4F1100222F00F0204F0D5
:103E60000F041032032C13440DD91E462246043A87
:103E7000032A46F8045BFAD8221F22F00302043218
:103E8000134404F003042CB1C9B21C4403F8011B11
:103E90009C42FBD170BC704714460346C2E700BF8A
:103EA00000290CBF022200224FF4806300F000B80A
:103EB0002DE9F043614C256883B004460F469046D7
:103EC0001E4615B1AB6B002B64D0B8F1020F06D0C3
:103ED000B8F1010F00F29F80002EC0F29C80636E4B
:103EE000D80734D52146284601F088F8216B41B126
:103EF00004F14003994202D0284601F0FDF9002365
:103F00002363B4F90C300022A26162601A063AD42D
:103F100023F44A6323F00303B8F1020FA3811DD0F9
:103F200001AB6A462146284601F084FCA389184368
:103F3000A081002E32D1009E304601F0F3FC0746EE
:103F400000286BD0A38943F08003A38128E0A389D4
:103F50009905C7D4A06D01F069FCC3E70025616E27
:103F6000002604F1430243F002030120A660CE07BD
:103F7000A38122602261606101D498053ED5284664
:103F800003B0BDE8F0832169284601F0B5F9B4F922
:103F90000C30BDE7284601F089F896E7002FCBD01A
:103FA000AB6B002B33D0009BB4F90C2027609E42F2
:103FB0001CBF42F40062A281B8F1010F04BF42F0BD
:103FC0000102A28192B212F00803276166610ED04D
:103FD000D1071AD5656E7642002315F00105A6615A
:103FE000A36009D00025284603B0BDE8F083A36094
:103FF000656E15F00105F5D19305C0D4A06D01F0F3
:1040000017FC284603B0BDE8F083A660F0E7284619
:1040100001F04CF8C7E74FF0FF35B0E7DDF800904E
:10402000B14504D0484601F07DFC074620B9B4F9FB
:104030000C304FF0FF3592E74E4683E7F00040200A
:104040002DE9F84F4B6E9C0493462FD59368126868
:1040500053B30E46074602F1080919E920045FEA46
:104060009A0817D0043D002401E0A04510D0324644
:1040700055F8041F384601F0BBF8431C04F1010455
:10408000F3D10023CBF80830CBF80430BDE8F88F2B
:10409000DBF808302AF0030AA3EB0A03CBF8083058
:1040A00009F10809002BD8D10020EAE701F00AFA4B
:1040B0000023CBF80830CBF80430BDE8F88F00BF00
:1040C0002DE9F04FADB01D468B4690460793069004
:1040D00018B1836B002B00F0F380DBF86430BBF980
:1040E0000C00DF0781B202D48E0540F1FC808C0405
:1040F0000AD4DBF8643040F4005123F40053ABF8E9
:104100000C10CBF8643089B2080740F1B380DBF8BB
:104110001030002B00F0AE8001F01A030A2B00F0E3
:10412000B58000230DF170090B9311931093039345
:10413000CDF83C90CA46CDF810B098F8003044460F
:10414000FBB1252B02D11CE0252B03D014F8013F35
:10415000002BF9D1A4EB08059DB1109B119ACAF868
:10416000008001332A44072BCAF80450119210939F
:104170007ADD002A40F0B084039B10922B44CA469B
:1041800003932378002B00F0E08300204FF000031E
:104190008DF8373004F1010862780546064603467B
:1041A0004FF0FF3408F10108A2F12001582900F274
:1041B000DE82DFE811F02102DC02DC022902DC02EF
:1041C000DC02DC02DC02DC02DC0289029502DC0299
:1041D000A200BD02DC029F01A401A401A401A4016C
:1041E000A401A401A401A401A401DC02DC02DC02FC
:1041F000DC02DC02DC02DC02DC02DC02DC02B201FA
:10420000DC02DC02DC02DC02DC02DC02DC02DC02BE
:10421000DC02DC029701DC02DC02DC02DC02DC02F4
:104220009B01DC02DC025302DC02DC02DC02DC0269
:10423000DC02DC02DC02DC02DC02DC025A021B02D1
:10424000DC02DC02DC026E021B02DC02DC02730216
:10425000DC02F50182010902D702DC029A02DC02CB
:10426000A700DC02DC022E020AF1080A039B2B44A1
:10427000039386E75946069800F0ACFD18BBBBF8DF
:104280000C1001F01A030A2B7FF44BAFBBF90E3070
:10429000002BFFF646AFDBF86430DB0705D48F0553
:1042A00003D4DBF8580001F0C3FA2B4642465946C6
:1042B000069800F04DFD039003982DB0BDE8F08FF7
:1042C00000F0F4FE09E7DBF86430D90704D4BBF84A
:1042D0000C309A0540F1AA844FF0FF330393039802
:1042E0002DB0BDE8F08FDBF8580001F09FFABBF964
:1042F0000C0081B2FBE67642079243F0040398F883
:1043000000204FE708969E0600F150840799DD06CD
:104310000A4600F1EF83580640F1EC830E88043121
:104320000027012207914FF000018DF8371000257A
:10433000611C00F0168123F08001029156EA07010A
:1043400040F01481002C40F05C83002A40F0B783D9
:1043500013F00103059300F057840DF1B00B3023E7
:104360000BF8413D059BA342B8BF234601930DB115
:1043700001330193029B13F00203099302D0019BC6
:1043800002330193029B13F084030A9340F01782D7
:10439000089B019A9D1A002D40F31182102D40F3C5
:1043A0009084109B119AC44ED6461027A2461946F7
:1043B000069C07E001F1020C0EF1080E0146103DCB
:1043C000102D11DD481C1032072811928EE8C00014
:1043D0001090EFDD002A40F0E481103D102D1146D1
:1043E0004FF0010CCE46EDDC54466146F2462A44BD
:1043F00007291192CAF80060CAF80450109100F31E
:10440000EC829DF837500AF1080A481C002D40F054
:10441000DE81099B002B00F0F88102320EA90223F5
:104420000728119210908AE80A0040F3EA81002AD6
:1044300040F08C830A9B802B4FF001001146CA4646
:1044400040F0E781089B019D5E1B002E40F3E18157
:10445000102E9A4D40F35084D4461027A246069C55
:1044600007E001F1020E0CF1080C0146103E102E7F
:1044700011DD481C1032072811928CE8A000109022
:10448000EFDD002A40F09D82103E102E4FF0010E0D
:104490001146CC46EDDC5446E2463244BEF1070FED
:1044A00011928AE86000CDF840E000F369830AF1D8
:1044B000080A0EF101007146ABE1089613F02002E4
:1044C00040F08C8313F0100140F01A8313F0400287
:1044D00000F0168307980A460146043106880791C2
:1044E000002720E7089643F01003E7E7089643F01B
:1044F000100308E743F0800398F8002052E6A2F189
:104500003001002618F8012B06EB860601EB460663
:10451000A2F130010929F5D946E60896002840F0B5
:10452000088443F010039E0600F14C83DD0600F181
:10453000F382580640F1F082079DB5F900602A46E3
:10454000F7170432304639460792002871F100020D
:10455000C0F25D83611C9DF837504FF001027FF47B
:10456000EAAE56EA070100F04D820293012A00F0FC
:104570008C82022A40F05C820B98CB46330906F00D
:104580000F0143EA07733A091E461746435C0BF8CE
:10459000013D56EA0703F1D1A9EB0B030593E1E6D0
:1045A000002840F0C083990600F16783DA0600F125
:1045B000F1805B0640F1EE80079A1368043207929F
:1045C000BDF80C201A80B8E507983D4A08960B9272
:1045D00006687822302104308DF8392043F0020338
:1045E000079000278DF8381002229CE608960028D4
:1045F00099D08DF8375096E798F80020002D7FF479
:10460000D1AD01202025CDE543F0010398F800202D
:10461000C8E50896002840F0938329490B919F062E
:1046200000F1E8820798DE06014600F170825D061F
:1046300040F16D820431068807910027D80740F1C8
:10464000228256EA070100F01E8230218DF83920BF
:1046500043F002038DF83810022264E60896002821
:1046600040F06B8317490B91D9E7079908960A68C0
:104670008DF848204FF000000A468DF837000432CC
:1046800001200190079205900DF1480B0293002440
:1046900070E643F0400398F8002083E598F8002086
:1046A0006C2A03BF98F8012043F0200308F10108A9
:1046B00043F0100376E500BF706E4000806E40004E
:1046C000546E4000406E400007990E680A46002E66
:1046D00002F10402FFF60FAE079298F8002061E5A0
:1046E00098F8002001202B255CE507990896D1F861
:1046F00000B04FF000028DF837200E1DBBF1000F07
:1047000000F0E582671C00F0C48222460021584672
:10471000019301F0D5FB019B002800F0E582A0EB9E
:104720000B020592079602939DF83750002419E674
:1047300098F800202A2A08F1010700F0E982A2F186
:1047400030010929B8464FF000043FF62DAD18F8A6
:10475000012B04EB840401EB4404A2F1300109298C
:10476000F5D921E543F0200398F800201AE50896D2
:10477000002840F0DB82002A00F0E78001218DF85C
:1047800048204FF0000201918DF8372005910DF17E
:10479000480B7BE7079A136804320792039A1A6062
:1047A000CBE40FAA04992046FFF74AFC002840F00A
:1047B00039811099119A01F1010CCE46FFE510994B
:1047C000119A481C9DF83750002D3FF422AE01325B
:1047D0000DF137050121072811921090CAF80050F9
:1047E000CAF8041040F30881002A40F0BC81099BFC
:1047F000002B3FF41FAE0EAB022208461C931D9205
:10480000CA4601460AF1080A01300A9B802B3FF490
:1048100019AE059BE41A002C2EDD102CB34D1EDDC5
:10482000D6461026069FDDF810A006E0881C0EF183
:10483000080E1946103C102C10DD4B1C1032072BB3
:1048400011928EE860001093F0DD002A65D1103CD3
:10485000102C4FF001001146CE46EEDCF246224409
:1048600007281192CAF80050CAF80440109000F3CB
:1048700085800AF1080A01300599CAF800B00A4497
:1048800007281192CAF80410109040F38280002A81
:1048900040F01881029B1092580735D5089B01996A
:1048A0005C1A002C40F3E780CA46102C40F31882B3
:1048B00010998F4E069FDDF810B0102506E0881C79
:1048C0000AF1080A1946103C102C11DD4B1C10325D
:1048D000072B1192CAF80060CAF804501093EEDD5D
:1048E00042BB103C102C4FF001001146CA46EDDCD3
:1048F000224407281192CAF80060CAF804401090B8
:1049000051DD002A40F09B81039B089A01998A425D
:10491000ACBF9B185B1803934EE00FAA5146384674
:10492000FFF78EFB002840F03F811099119A481C38
:10493000CE467FE70FAA59463846FFF781FB60B99C
:104940001099119A481CCA46BDE7119BDDF810B0BA
:10495000002B40F0D48100231093DBF8643013F077
:10496000010FBBF80C3002D19A0540F1DE805B06E6
:104970003FF5B2AC03982DB0BDE8F08F002A40F0AF
:104980000681059A1D9201231192CDF870B0109303
:10499000CA460AF1080A029B590704D5089B0199E7
:1049A0005C1A002C81DC039B089901988142ACBF02
:1049B0005B181B18039372BB00231093CA46FFF7C2
:1049C000BCBB0FAA04992046FFF73AFB50BB1099D5
:1049D000119A01F1010ECC4648E5002A40F04081D1
:1049E0009DF83710002900F01B8101220DF13701DD
:1049F00010461D921C91CA4601460AF1080A013070
:104A000007E5029B012A00F09880022A0DD102934B
:104A100000260027B0E50FAA04990698FFF710FBBF
:104A20000028C9D0DDF810B097E7029300260027D0
:104A3000494600E05946F20842EA4772F80806F093
:104A4000070307461646303356EA070201F8013CD1
:104A500001F1FF3BEED1029AD6077FF59DAD302BD9
:104A60003FF49AAD023930230BF8013CA9EB010366
:104A700005938B4676E4039B089A8A42ACBF9B1849
:104A80005B18039398E702224DE4002F08BF0A2E1B
:104A900052D3CB46304639460A22002301F0ACFF00
:104AA00030320BF8012D3046394600230A2201F03E
:104AB000A3FF06460F4656EA0703EBD16CE50594C3
:104AC000CB464FE40FAA04990698FFF7B9FA0028DD
:104AD000A8D1119ACA465EE70FAA04990698FFF773
:104AE000AFFA00289ED1CA46FFF7C0BB806E4000D7
:104AF000706E40000431166807910122002712E40D
:104B00000798014604310668079100270BE40E68F8
:104B100004310791002791E507990E680A46F717B7
:104B200004320792304639460FE5DBF8580000F0B2
:104B30007FFEBBF80C301AE7029B02930DF1B00B1D
:104B4000303601230BF8416D05930BE40FAA04994D
:104B50000698FFF775FA00287FF464AF1099119A50
:104B6000481CCA4651E60FAA04990698FFF768FA4E
:104B700000287FF457AF1099119A481CCA4648E4A0
:104B8000002A40F0918001201146CA4641E60FAA52
:104B900004990698FFF754FA00287FF443AF109861
:104BA000119A0130CA4667E6D346D6E6079E073615
:104BB00026F0070202F10801D2E9006707910122FD
:104BC000FFF7B1BB079E073626F00706D6E90001BE
:104BD00006F10802079206460F46B6E4079E07361E
:104BE00026F0070202F10801D2E9006707910022CE
:104BF000FFF799BB079E073626F0070101F1080071
:104C00000790D1E9006719E5CB46FFF7ABBB2D252F
:104C1000764267EB47078DF837500122FFF788BBD4
:104C2000099BB3B911460120CA46F2E5DBF85800EA
:104C300000F0FEFD4FF0FF330393FFF750BB0FAAC8
:104C400004990698FFF7FCF900287FF4EBAE119A5F
:104C5000A9E60EAB02221C931D920120CA46D0E5A4
:104C60000FAA04990698FFF7EBF900287FF4DAAE53
:104C70001099119A481CCA46A4E5079A039913682B
:104C8000CD170846043229460792C3E90001FFF711
:104C900054BA58460796029301F072FC002405901E
:104CA0009DF83750FFF75EBB0FAA04990698FFF7EF
:104CB000C7F900287FF4B6AE1099119A481CCA466D
:104CC000A7E51099119A204E0131FFF790BB062CF1
:104CD00028BF0624059407960194DFF870B0D5E448
:104CE0001098194E013003E605949DF83750079649
:104CF00002930446FFF736BB8646FFF7CEBB069805
:104D00000FAA5946FFF79CF900283FF424AE24E689
:104D1000079998F801200C68043144EAE474B84615
:104D20000791FFF73FBA8DF837503CE48DF83750C4
:104D300021E58DF83750FFF7F4BB8DF8375091E43B
:104D40008DF8375069E400BF706E4000686E400017
:104D50002DE9F0410C46ADF58D6D8989666EE589CA
:104D6000199621F002010646E069ADF80C101746CD
:104D70004FF48061626AADF80E5098461AAD002378
:104D8000079016A809920693009504950291059143
:104D900000F048FD43463A4669463046FFF790F931
:104DA000051E07DB3046694600F028F9002818BFC9
:104DB0004FF0FF35BDF80C305B0603D5A38943F0F7
:104DC0004003A381169800F02FFD28460DF58D6D48
:104DD000BDE8F08138B5304B1B6805460C4613B171
:104DE0009A6B002A38D0B4F90C2093B218070CD56E
:104DF0002069A8B113F001021ED0636900225B4252
:104E0000A361A260F0B1002038BDD9063CD5580797
:104E100026D4206942F00803A3819BB20028E9D17F
:104E200003F42072B2F5007FE4D02846214600F05A
:104E30002FFDA3892069DDE7990758BF6269A26049
:104E40000028E0D1B4F90C301A06DDD543F0400358
:104E5000A3814FF0FF3038BD184600F027F9C2E7B4
:104E6000216B51B104F14003994204D0284600F06F
:104E700043FAB4F90C200023236300232069636004
:104E800022F024022060C5E742F0400209232B6093
:104E90004FF0FF30A28138BDF0004020024B13B12B
:104EA000024800F005B87047000000001D514000A6
:104EB000002301461A46184601F076BCB1F90C30C1
:104EC0009AB22DE9F0410D46110780463AD46A683E
:104ED00043F40063002AAB816FDDAC6A002C49D03B
:104EE00000229BB2D8F80060C8F8002013F480526A
:104EF00067D02A6D5F0705D569682B6B521A0BB115
:104F0000EB6BD21A0023E9694046A047441C3CD011
:104F1000B5F90C302A692A6023F400630022AB81C2
:104F2000DB046A6047D4296BC8F8006011B305F14F
:104F30004003994202D0404600F0DEF90020286389
:104F4000BDE8F0812E69AEB12C682E6091070CBFD0
:104F50006B690023A41BAB600AE0234632466F6AEC
:104F6000E9694046B8470028A4EB0004064404DD84
:104F7000002CF2DC0020BDE8F081AB8943F0400357
:104F8000AB814FF0FF30BDE8F081D8F800401D2C18
:104F9000F3D8194BE340DB4313F00103EDD1B5F92E
:104FA0000C206B6022F400632969AB81DA0429606C
:104FB000B9D5002CB7D12865B5E7EA6B002A8CDC9F
:104FC000D8E70123E9694046A047431C024602D0C6
:104FD000AB89AC6A8EE7D8F80030002BF8D01D2BD7
:104FE00001D0162B02D1C8F80060C3E7AB8943F0AB
:104FF0004003AB81BDE8F0810100402038B50D468B
:10500000044608B1836BBBB1B5F90C0088B16B6E77
:10501000DB0701D4810517D520462946FFF74EFF4F
:105020006B6EDA07044602D4AB899B0507D5204690
:1050300038BD0446204638BD00F038F8E4E7A86DD6
:1050400000F0F6FB204638BDA86D00F0EFFBE3E76B
:10505000014900F0AFBB00BF9168400010B50023CC
:1050600004468181C28103604360836043660361BB
:1050700043618361194608225C30FEF7C3FE07488E
:105080000749084A084B2062E4616162A262E36258
:1050900004F15800BDE8104000F0C4BBE5644000D6
:1050A00009654000456540006565400010B504464F
:1050B000124800F0BBFBA26BD2B904F53B73104859
:1050C000C4F8E8320321C4F8E022E063C4F8E41233
:1050D00060680421FFF7C2FF01220921A068FFF7E1
:1050E000BDFF02221221E068FFF7B8FF0123A3638E
:1050F0000248BDE8104000F09BBB00BF7410402088
:1051000051504000014800F091BB00BF8810402082
:10511000014800F08DBB00BF8810402038B50A4C14
:105120000A4D641BA4100AD004F18043013B05EB37
:105130008305013C55F804399847002CF9D1BDE8A6
:10514000384001F039BF00BFC86F4000C46F400055
:105150002DE9F04782B080468946144600F054FBA2
:10516000012836D04A4604F15C0301A9404601F00B
:10517000CDFA421C064625D0A8B39DF804E00025D0
:105180000DF1040A09E023685A1C226083F800E04C
:105190000135B54227D215F80AE0A368013B002B80
:1051A000A360F0DAA769BB4271462246404602DBA3
:1051B000BEF10A0FE7D101F051FA431CE8D102B069
:1051C000BDE8F087A38943F04003A38102B0BDE8A6
:1051D000F08709F1FF33FE2BC4D85FFA89FE06463B
:1051E0008DF804E0CBE7484602B0BDE8F08700BF89
:1051F00030B5536E13F0010FB2F90C30144683B082
:1052000005469AB201D190051CD5900406D4626E71
:1052100043F4005342F40052A381626628462246BA
:10522000FFF796FF636EDA07054602D4A3899B0554
:1052300002D5284603B030BDA06D00F0F9FA28462B
:1052400003B030BDA06D019100F0F0FAB4F90C305C
:1052500001999AB2D9E700BFF8B5244F0C4606462B
:1052600000F07CFFBB685D68C4F57E610F3125F0FE
:105270000305294421F47F6121F00F01A1F5805439
:10528000B4F5805F07DB0021304601F019F9BB68F7
:105290002B44984204D0304600F066FF0020F8BD51
:1052A0006142304601F00CF901300DD0104BBA6864
:1052B00019682D1B45F001053046091B5560196022
:1052C00000F052FF0120F8BD0021304601F0F8F84F
:1052D000BA68831A0F2BDEDD064C0549246843F0BB
:1052E0000103001B53600860D5E700BF9006402013
:1052F000F40F4020980A4020002944D02DE9F041C5
:105300000D46804600F02AFF55F8047C694927F0D5
:105310000103A5F10804E2188E685068B24220F03B
:1053200003005ED0FE0750600BD455F8087CE41BE8
:1053300001F1080EA56875453B446DD0E768EF6044
:10534000BD6015186D68ED073ED543F0010262603F
:10535000E350B3F5007F17D2DB08581C9A104D6854
:1053600051F83070A7600123934001EBC0022B433A
:10537000083AE2604B6041F83040FC604046BDE8CE
:10538000F04100F0F1BE70475A0A042A52D89A0937
:1053900002F13907FF0002F13805C819CA59083867
:1053A00090424FD0516821F003018B4232D2926873
:1053B0009042F7D1C368A060E3609C60C46040463F
:1053C000BDE8F04100F0D0BE95683B4FBD420344BC
:1053D00040D0D068E86043F0010285606260E3502D
:1053E000B7E7FF07034407D455F8082CA41A134461
:1053F000A068E268C2609060304A126843F0010021
:10540000934260608C60B9D32D4B40461968FFF71A
:1054100023FFB3E71046CDE711184968C90744D404
:105420009168D268CA60034443F0010091606060F3
:10543000E350A3E7142A16D802F15C07FF0002F13B
:105440005B05AAE7AA1001234D6893402B434B60EC
:105450000346B0E743F001024C610C61E560A560D2
:105460006260E3508AE7542A06D81A0B02F16F07EC
:10547000FF0002F16E0590E7B2F5AA7F06D8DA0BBD
:1054800002F17807FF0002F1770586E740F25450F9
:10549000824206D89A0C02F17D07FF0002F17C05DA
:1054A0007BE74FF47E777E2577E743F0010161606B
:1054B000136063E790064020980640209C0A402035
:1054C000241040209368002B73D02DE9F04F8B8976
:1054D00083B00C4619070090164626D5226922B3E0
:1054E00013F0020035682CD04FF00009B04FC846C9
:1054F000B246B84543464A4628BF3B460098B8F1F5
:10550000000F50D0E169666AB047002858DDDAF82C
:1055100008301B1A8144A8EB0008CAF80830002B99
:10552000E7D1002003B0BDE8F08F21460098FFF7D7
:1055300051FC002840F03381A389356813F0020044
:10554000D2D113F0010945D14F46019637B39A05E0
:10555000D4F8088040F183804745C346C0F0AB8053
:1055600013F4906F40F0AC802068BA465A46494622
:1055700000F090FDA2682368A2EB08025B44A260E1
:105580002360019A9368A3EB0A03D144A7EB0A07AF
:105590009360002BC5D0A389002FD8D1D5F80090F7
:1055A0006F680835D2E7D5F80090D5F80480083543
:1055B0009FE70020704721460098FFF71FFD70B35A
:1055C000B4F90C3043F040034FF0FF30A38103B037
:1055D000BDE8F08F814633464E46A8469A464D4672
:1055E0004EB380B3206823696269B145CB4628BFBA
:1055F000B34698425F4604D9A36813449B4500F321
:10560000A68093454BDB1346676AE16900982A46FA
:10561000B847071ED4DDB9EB0709CCD00120DAF872
:105620000830DB1B3D44F61BCAF80830002B3FF462
:1056300078AF002ED5D108F1080313E96000984631
:105640000833002EF9D032460A21284600F038FCF3
:10565000002800F0A1800130A0EB0509C2E7206816
:105660002369984202D863699F425DD2B84528BF3A
:10567000B8464246494600F00DFDA3682268A3EBF8
:1056800008034244A36022600BB1C24679E7214679
:105690000098FFF7B3FC002892D1C24671E75A4642
:1056A000294600F0F7FCA2682368A2EB0B025B44DA
:1056B000A2602360AFE72068B846BA46BB4655E70C
:1056C00062692068216902EB4208A0EB010A08EB3D
:1056D000D8780AF101004FEA68083844404542464C
:1056E00084BF804642465B0544D51146009800F0D1
:1056F00021F98346002855D05246216900F030FC3C
:10570000A38923F4906343F08003A3810BEB0A0089
:10571000A8EB0A03C4F810B0C4F814802060A3609A
:10572000B846BA46BB4621E76FF00041B94228BFF0
:1057300039464A4691FBF3F10098666A03FB01F390
:10574000E169B047B0F1000A3FF71BAF38E71A46EE
:105750002946019300F09EFC2268019B00981A44A0
:1057600022602146FFF74AFC019B00287FF428AF06
:105770001F4650E7009800F0FDFC83460028C5D185
:10578000009D21692846FFF7B7FDB4F90C300C22C3
:1057900023F080032A6015E706F1010922E74FF0A4
:1057A000FF30BFE6009A0C231360B4F90C3009E710
:1057B00000FCFF7F2DE9F84310F538771FD08846AD
:1057C00006464FF000097D68BC68013D11D4A389ED
:1057D000012B05F1FF3508D9B4F90E30013321460C
:1057E000304602D0C04749EA00096B1C04F1680446
:1057F000EDD13F68002FE6D14846BDE8F883B946B1
:105800004846BDE8F88300BF044B054A1B685B6B44
:10581000002B08BF134693F828017047F000402082
:1058200024054020704700BF704700BF704700BF8D
:10583000704700BF70B50C46B1F90E10002990B04A
:1058400015461E4614DB01AA01F084F800280FDB80
:10585000029A02F47042A2F50052B2FA82F25209A0
:105860004FF480634FF4006032602B6010B070BD65
:10587000A289002312F08000336004D04022184631
:105880002A6010B070BD4FF480632B6010B070BD03
:105890008A8992070B4606D501F1430201211A605D
:1058A0001A6159617047F0B583B001AB6A460C4686
:1058B0000646FFF7BFFF00990546304600F03AF86C
:1058C000B4F90C30D8B1019A154F0099F76343F041
:1058D0008003A3812060206161611AB92B43A381F9
:1058E00003B0F0BD3046B4F90E1001F047F8A0B196
:1058F000A38923F0030343F001031BB2EEE79A05EB
:10590000EED423F0030304F1430243F00203012128
:10591000A381226022616161E2E7B4F90C30DDE726
:1059200051504000024B0146186800F003B800BF18
:10593000F00040202DE9F04F01F10B06162E83B048
:10594000054640F29E8036F0070600F1BD80B14268
:1059500000F2BA8000F002FCB6F5FC7FC0F0938242
:10596000730A00F0B880042B00F27981B30903F1C7
:10597000390003F1380EC300BF4F3B44A3F10801C7
:105980005C68A14206D10CE0002A80F2AA80E4689B
:10599000A14206D0636823F003039A1B0F2AF3DDAC
:1059A00070463C69DFF8E4E2744500F0AB8163685F
:1059B00023F003039A1B0F2A00F39081002AC7F8F3
:1059C00014E0C7F810E080F29D80B3F5007F80F00E
:1059D0006181DB0803F1010C99107A6857F83C806B
:1059E000C4F8088001238B4007EBCC01134308392E
:1059F000E1607B6047F83C40C8F80C40821001240D
:105A000094409C4200F28B801C4206D120F003009F
:105A100064001C4200F10400FAD007EBC009CC4638
:105A20008046DCF80C309C4507D16DE1002A80F2FD
:105A30007B81DB689C4500F06781596821F0030198
:105A40008A1B0F2AF2DDD3F80CC0D3F8088000932C
:105A50009C19284646F0010642F001055E60C8F830
:105A60000CC0CCF808807C613C61C4F80CE0C4F840
:105A700008E065605A5000F077FB009B03F10804D2
:105A80001EE0102920D800F069FB10261823022000
:105A9000794F3B44A3F108025C68944200F03D81D9
:105AA0006368E168A66823F00303234428465A6824
:105AB000F16042F001028E605A6000F055FB08343C
:105AC000204603B0BDE8F08F00240C2320462B6055
:105AD00003B0BDE8F08F40204FF400734FF03F0E4D
