:020000040040BA
:10000000289040203D474000394740003947400094
:1000100039474000394740003947400000000000A0
:100020000000000000000000000000003947400010
:100030003947400000000000394740003947400080
:1000400039474000394740003947400039474000B0
:1000500039474000394740003947400039474000A0
:100060003947400000000000F133400005344000F3
:1000700019344000394740003947400039474000B3
:100080002D3440004134400039474000394740009A
:100090003947400039474000394740003947400060
:1000A0003947400039474000394740003947400050
:1000B0003947400039474000394740003947400040
:1000C0003947400039474000893A400039474000ED
:1000D0003947400039474000394740003947400020
:1000E0003947400039474000394740003947400010
:1000F0003947400039474000394740003947400000
:1001000039474000394740003947400039474000EF
:10011000394740003947400000000000000000005F
:10012000394740003947400039474000396D4000A9
:1001300039474000394740003947400039474000BF
:1001400039474000394740003947400039474000AF
:1001500039474000000000000000000000000000DF
:10016000000000000000000010B5054C237833B9F2
:10017000044B13B10448AFF300800123237010BD7A
:10018000400B4020000000006CF640000C4B43B1D7
:100190000C480D4910B5AFF300800C48036823B933
:1001A00010BD0A48036833B97047094B002BF7D0DC
:1001B000BDE810401847064B002BF5D0184700BF8C
:1001C000000000006CF64000440B40206CF640003C
:1001D0000000000008B5014B984708BD69154000B4
:1001E00008B5014B984708BD151640002DE9F041B0
:1001F00086B006468C1C154DDFF85880144F15E06C
:100200002278FF2A1ED01A0A8DF804208DF80530B6
:100210000223029330238DF81430012304930391B9
:1002200001A93046A84708280DD00434214634F8E7
:10023000023C4FF6FF729342E2D0FE2BE3D14046E0
:10024000B847F2E7002006B0BDE8F081E1014000C8
:100250008D004020C2DB03002DE9F0418CB08046C8
:1002600000230093019330248DF818408DF8084046
:100270000A238DF8093002270397CDF810D0012604
:10028000059602A9294DA8478DF82C408DF81C40F1
:100290000B238DF81D30089701AB09930A9607A927
:1002A0004046A847019B009A43EA0223C3F3072371
:1002B000262B03D001200CB0BDE8F0810023009371
:1002C000019302938DF81C4004228DF81D2008979D
:1002D0008DF82C400A9601AB099307A94046A84720
:1002E0000CAB112243F8282D099307A94046104B67
:1002F0009847CDF824D007A94046A847029B009A0A
:100300009A4201D00120D6E701AB099307A94046E4
:10031000074B9847CDF824D007A94046A847019B32
:100320000098C01A18BF0120C5E700BFD5014000E2
:10033000E101400008B5082914D8DFE801F01505EF
:100340001707090B0D0F11000B4910E00B490EE0C8
:100350000B490CE00A490AE0084908E0094906E0AF
:10036000094904E0012008BD084900E00849094B9B
:100370009847002008BD00BFE0E44000D4E44000FE
:10038000D8E44000F4E44000FCE44000E4E4400031
:10039000B8E24000ED01400010B5064B19688B7FB4
:1003A000003318BF01234A7B096803480078034CD7
:1003B000A04710BD5C0B4020840B4020791F4000FB
:1003C00008B10420704710B50E4B9B7A033BDBB29B
:1003D000012B0DD900220C4B1A700A4C0B4B1C60E0
:1003E0000B4B9847A07A022814BF0020012010BDB3
:1003F000044B02229A72074A1A6001225A730022A1
:100400009A77E7E7600B4020840B40205C0B40208C
:1004100099034000801A060038B5049C520242EA53
:10042000C36242EA017242EAC0722178114341F28A
:100430003430054B9847054608B9284638BD034B6C
:1004400098472070F9E700BF6120400085204000F8
:1004500010B5094B1B681989090441F60930074B8F
:100460009847044608B9204610BD034B18680E3063
:10047000034B9847F7E700BF5C0B4020612040002A
:100480008D20400008B5044B1B7803B108BD002047
:10049000024B9847FAE700BF840B40203D20400004
:1004A00008B50422034B9A72FF22034B1A70034BC8
:1004B000984708BD600B4020840B40203D1F400042
:1004C0002DE9F04395B0A74B98470446012805D085
:1004D000A54B9847204615B0BDE8F08314AE08231D
:1004E00006F8453DA14B1B680127DF7200251D73EF
:1004F0001D819F4B984700962B4606222946384679
:100500009C4EB04729464FF480409B4B984730B9EA
:10051000964B1B6803249C72934B9847DAE74FF481
:10052000D57145F20850944B9847002840F09380CD
:100530004FF00009002144F205508F4B98470028E6
:1005400040F09780894B1B68DB7A13F0010F40F075
:10055000B580002145F20310874B98470028D7D07B
:10056000824D2E68854B9847000C30812B68DB7AD2
:1005700013F0010F34D0824B98470028C8D02B6865
:100580005A7CC2F3C30002F007027E4951F82210E0
:100590004FF47A7202FB01F27B4951F8201002FB02
:1005A00001F21A609A7B920940F00B82997D587D86
:1005B0001A7D920242EA800242EAA112187ED97D97
:1005C000490041EAE011C2F30B02013201F00701D8
:1005D00002318A40D97C01F00F018A40920A5A60A8
:1005E000624B1B681989090443F20710624B984754
:1005F00000288DD05D4B1B68DA7A12F0010F40F0B5
:10060000ED815A4B1B68DB7A13F0040F00F09C82DB
:1006100009250027574EA5F1090303AA13440093A7
:100620003B462A4639463846B04701350D2DF2D1B2
:100630009DF80D309DF80C9009EB03299DF80E30C4
:1006400009EB03499DF80F3009EB03694E464FF063
:100650000008484F39E2494B9847B0F1FF3F00F09E
:100660004783C0F30B00B0F5D57F7FF451AFB94697
:1006700060E7424B984710F0E04F3FF463AF41F220
:10068000893544F205583C4E3C4F00F4FC1140467D
:10069000B04700283FF43CAFB847002802DB013DDB
:1006A000F3D135E710F0006F04D1304B1B68042202
:1006B000DA724EE72D4B1B680522DA72B9F1000F92
:1006C000324F14BFB9464FF4FC1940F635054FF0D0
:1006D0000008294E294F414641F23710B04748B132
:1006E000494644F22950B04720B1B847002820DBE2
:1006F000013DF0D11D4B1B680222DA7200214FF43C
:1007000080401D4B984700283FF402AF41F2690535
:10071000DFF87880184E194F414644F20150B04737
:1007200000283FF4F5AEB847002831DB013DF3D196
:10073000EEE610F0804F05D00C4B1A68D37A43F0E8
:100740000803D372094B1B68DB7A13F0010F3FF4E7
:1007500000AF002145F60230074B984700287FF490
:10076000F8AED5E6C1034000850440005C0B402094
:100770003F204000190440006120400085204000D7
:100780005104400040E540005CE5400000801F400F
:1007900000F0C040B0F1804F27D0002145F6023074
:1007A000A74B984700283FF4B3AEA64B1B68012225
:1007B0001A814FF4803141F20310A14B9847002871
:1007C0003FF4A6AEA04B984700283FF4A1AE9D4B46
:1007D0001A68937BC3F38303013B032B0CD8DFE838
:1007E00013F0CC00CF00D200D500964B1A68D37A14
:1007F00043F00803D372D0E712231373537CC3F37F
:10080000C30003F00703914951F823104FF47A73A2
:1008100003FB01F38E4951F8201003FB01F3136031
:10082000917D507D137D9B0243EA800343EAA1132F
:10083000C3F30B0340F6FF718B420FD0107ED17DC6
:10084000490041EAE011013301F0070102318B4018
:10085000D17C01F00F018B409B0A53601189090480
:1008600043F20710764B984700283FF451AE754B82
:100870001B681B7B3F2B40F29680002100910123D7
:100880004FF400727348744DA84700283FF440AEFF
:100890000025724E03A8B04700283FF439AE013559
:1008A000ADB2322DF6D1039E06F00206654B1B68F1
:1008B0009A7D597D1B7D9B0243EA810343EAA21383
:1008C000C3F30B0340F6FF7293420ED1634F04A8AB
:1008D000B84700283FF41CAE0135ADB2352DF6D92E
:1008E000584B1A68049B5B0853605C4F7F2D50D9AE
:1008F0005B4B18785B4B984703281DD9584B1878E9
:10090000584B9847054604284BD0574B5749082861
:1009100018BF194643F20610494B984700283FF488
:10092000F7AD534B984710F0800F7FF4F1AD454B76
:100930001B685D734F4B98474F4B9847B6B1A8B1B2
:100940004E4943F206103E4B984700283FF4E0AD75
:10095000474B984710F0800F7FF4DAAD394B1B6896
:1009600001229A77464A1A60424B98470A254FF46B
:10097000007841F21017324E1DE0142313733DE747
:10098000222313733AE73023137337E7402313739B
:1009900034E704A8B84700283FF4BAAD0135ADB23A
:1009A000A4E73849B6E7334B9847DFE7013D15F038
:1009B000FF053FF4ADAD41463846B0470028F5D0BD
:1009C0000EE1D97D987D5A7D120442EA00220A4345
:1009D000C2F31502013252025A6001E61989090474
:1009E00041F23710164B984700283FF491AD012390
:1009F0000093082200212448174DA84700283FF4FF
:100A000087AD012104A8214B984700283FF480AD11
:100A10001F4B984700283FF47BAD9DF8103003F042
:100A20000F03012B36D033B1022B38D0054B1B6896
:100A300010221A73E5E5034B1B6810221A73E0E5D8
:100A4000612040005C0B40205104400040E5400024
:100A500000E5400008110800BD204000852140004D
:100A6000840B4020691F40000000B7010002B7015D
:100A70008520400099034000731F40000001B90326
:100A8000007519030001B70133110800F921400076
:100A900089224000984B1B681A221A73B1E59DF811
:100AA0001230DB09944B1B6814BF302220221A73CA
:100AB000A7E59DF81130002B3FF42AAD02331E4408
:100AC00009F580739E423FF623AD002504AB2B440D
:100AD00000934346721941464046B8470135032DFD
:100AE000F4D19DF81030FF2B3FF412AD222BE0D152
:100AF0009DF81230002BDCD104AD06F106094FF051
:100B000000087E4F00954346324641464046B8476E
:100B1000013601354E45F5D19DF81530322B28BFF1
:100B20003223754A1268C3F3C30003F00703744904
:100B300051F823104FF47A7303FB01F3714951F814
:100B4000201003FB01F313606F4B18786F4B98472D
:100B5000032822D9684B1B68DB7A13F0040F46D1B7
:100B6000654B1B68DA7A12F0010F14D01989090459
:100B700041F23710664B984700283FF4C9AC022178
:100B800041F20610624B984700283FF4C1AC5A4B23
:100B90001B6804225A735F4B98475F4B984780B19C
:100BA000554B1B68DB7A13F0040F41D1524B1B6885
:100BB000DA7A12F0010F02D01B7B102B5DD8554B57
:100BC00098474D4B1B68DB7A13F0010F08D04FF4A8
:100BD000007141F210104E4B984700283FF498AC3A
:100BE000454B1B6800229A724C4B984772E404AB49
:100BF00000930023082219461846404DA8470028B4
:100C00003FF486AC9DF91030002BA9DA14AB022218
:100C100003F8402D00930123072200211846A8471E
:100C200000283FF475AC344B1B6804225A7397E7D5
:100C300004AB009300231322194618462F4DA847F2
:100C400000283FF465AC9DF8103013F0010FADD0D3
:100C500014AB022203F8402D00930123132200213C
:100C60001846A84700283FF453AC234B1B680122C9
:100C70009A771A6852001A6098E740252A460021A0
:100C800004A8274B9847012300932A462549264864
:100C9000264DA84700283FF43BAC012104A8244B73
:100CA000984700283FF434AC224B984700283FF483
:100CB0002FAC214B984710F0800F7FF429AC9DF8A2
:100CC000203003F00F030F2B3FF479AF9DF82D3048
:100CD0009DF82C2053EA02237FF41AAC174B984757
:100CE000054B1B6801229A771A6852001A6066E762
:100CF0004FF000091EE400BF5C0B402019044000C7
:100D000040E540005CE54000840B4020691F400046
:100D10006120400099034000731F4000850440009B
:100D2000CDB7400001FFFF8006110800BD20400044
:100D3000F921400089224000852040003F204000EA
:100D400008B5054B984708B1002008BD034B9847EC
:100D5000034B1B68D87A08BDC103400085044000DE
:100D60005C0B402008B5054B984708B1002008BD32
:100D7000034B9847034B1B68586808BDC1034000EC
:100D8000850440005C0B4020002070472DE9F047AF
:100D900082B08A469146264B9847804618B1404615
:100DA00002B0BDE8F087234C234E244D244F336816
:100DB0001989090441F20D10A84728B1B84710F469
:100DC000807F17D1013CF2D11E4B98474FF00508A8
:100DD000E5E71B4B98471C4B034033B91B4BA3F86B
:100DE00000901B4BA3F80090D9E7164B98474FF0A3
:100DF0000508D4E7174B1848B9F1010F98BF1846FA
:100E00000D4B1B68DB7A13F0080F01D14FEA4A2A19
:100E1000012300934B464FF4007251460F4CA047FC
:100E20000028D6D1074B98474FF00508B7E700BF19
:100E3000C1034000410D03005C0B402061204000D5
:100E40008520400085044000000058E4800B4020CD
:100E5000820B40201111080012111000BD2040002B
:100E600010B50C46064B984720B90022054B1A8056
:100E7000052010BD034A13881C1B1480002010BDE0
:100E8000F9214000800B402010B50446134B9847D1
:100E900008B9052010BD84B10022114B1A80114BF6
:100EA0001B88012B0FD0002143F20C100E4B9847EA
:100EB00068B10E4B9847002010BD094B1B88002BD2
:100EC000EDD0002010BD094B9847002010BD002137
:100ED00043F20C10044B9847EBE700BF8922400017
:100EE000800B4020820B40206120400085044000A0
:100EF00070B582B00E461546164B98470446B8B9F1
:100F0000154B1648012D98BF1846154B1B68DB7A08
:100F100013F0080F08BF7602012300932B464FF40D
:100F2000007231460F4EB04728B90F4B9847052441
:100F3000204602B070BD0D4B98470D4B034023B9BE
:100F40000C4B1D800C4B1D80F2E7074B9847052486
:100F5000EEE700BFC103400018910800199110008E
:100F60005C0B4020BD2040008504400085204000EF
:100F7000000058E4800B4020820B402010B50C4646
:100F8000064B984720B90022054B1A80052010BD5A
:100F9000034A13881C1B1480002010BDED22400062
:100FA000800B402010B50446124B984708B9052025
:100FB00010BD84B10022104B1A80104B1B88012BEE
:100FC0000FD0002143F20C100D4B984768B90D4B20
:100FD0009847052010BD084B1B88002BEDD0002042
:100FE00010BD084B9847002010BD064B98470020C5
:100FF00010BD00BF7D234000800B4020820B4020AD
:10100000612040008504400010B504460F4B98470E
:10101000012818D018B1022810D0012010BD0C4BA7
:101020001B5D0BB1022010BD20460A4B984700F013
:101030000300002814BF0020022010BD0022044B32
:101040001A55022010BD032010BD00BFC10440008E
:10105000880B4020410D400008B50020014B984707
:1010600008BD00BF0910400008B50120014B98479A
:1010700008BD00BF0910400038B504460D46044BBA
:1010800098474000013828602046024B984738BDF9
:10109000650D40000910400008B501460020014BD5
:1010A000984708BD7910400008B501460120014B62
:1010B000984708BD79104000014B18700120704717
:1010C000880B4020014B587001207047880B40204E
:1010D00008B50020014B984708BD00BF890D4000AE
:1010E00008B50120014B984708BD00BF890D40009D
:1010F000012070470120704710B5144601220A4BA9
:10110000984720B102280CBF0220012010BD012108
:101110002046064B984708B1012010BD044B984764
:10112000003018BF012010BD8D0D4000610E400041
:10113000890E400008B50A4601460020014B984739
:1011400008BD00BFF910400008B50A46014601205D
:10115000014B984708BD00BFF910400010B5144678
:1011600001220A4B984720B102280CBF022001201F
:1011700010BD01212046064B984708B1012010BD43
:10118000044B9847003018BF012010BDF10E4000FD
:101190007D0F4000A50F400008B50A46014600201B
:1011A000014B984708BD00BF5D11400008B50A46D5
:1011B00001460120014B984708BD00BF5D1140006A
:1011C0002DE9F041A64BA74A5A60A2F580725A60F9
:1011D000BFF34F8FBFF36F8FA34BD3F8902222F052
:1011E0000102C3F89022D3F8942222F00102C3F83E
:1011F0009422BFF34F8FBFF36F8F0A20DFF88082F6
:10120000C0470B20C0470C20C0471020C04711200A
:10121000C047964B4FF0010EC3F810E0C3F8A0E0B2
:10122000C3F830E0924C04226261C4F8A0206266E8
:10123000C4F8902062656262C4F88020216F21F0BA
:1012400004012167616F21F004016167894FD7F8BC
:10125000141141F01001C7F8141108212166C4F8D7
:10126000901061656162C4F88010206F20F0080062
:101270002067606F20F008006067616010252566B8
:10128000C4F8905065656562C4F88050206F20F006
:1012900010002067606F20F0100060676560802696
:1012A0001E61C3F8A0601E634FF480702061C4F813
:1012B000A00060634FF400002061C4F8A0006063E8
:1012C0004FF480602061C4F8A00020634FF080706C
:1012D0005861C3F8A0004FF000705861C3F8A00037
:1012E00065480261C0F8A02002631961C3F8A0102C
:1012F0001963C0F810E0C0F8A0E0C0F830E00A20A0
:10130000C04702236361C4F8A0304FF0804363619B
:10131000C4F8A0304FF000436361C4F8A0304FF030
:1013200000615420554CA0474FF000615520A04764
:101330004FF000615620A0474FF000615720A047B2
:101340004FF000615820A0474FF000615920A0479E
:101350004FF000615A20A0474FF000615B20A0478A
:101360004FF000615C20A0474FF000615D20A04776
:101370004FF0C0516D20A0474FF000615F20A047A3
:101380004FF0C0511220A0474FF0C0511420A04789
:101390004FF0C0510020A0474FF0C0517720A04728
:1013A0004FF0C0516E20A0474FF000614F20A04782
:1013B0004FF0C0517020A0474FF0C0517120A0479E
:1013C0004FF0C0517D20A0474FF000615220A04750
:1013D0004FF0C0516F20A0474FF000614020A04760
:1013E0004FF000614120A0474FF000614220A0472C
:1013F0004FF000614320A0474FF000614420A04718
:101400004FF000614520A0474FF000614620A04703
:101410004FF000614720A0474FF000613046A047E1
:101420004FF000618120A0474FF000618220A0476B
:101430004FF000618320A0474FF000618420A04757
:101440004FF000618520A0474FF000610F20A047BA
:101450004FF000612846A047C7F82451BDE8F0814D
:10146000000C0E400C08005A00ED00E000140E4085
:10147000000E0E400080084000100E407132400007
:1014800075354000284B99424BD8A3F57A539942C1
:101490002DD910B4254CA4FB0234A40B033C244BDF
:1014A0000B449B00B2FBF3F2033AFF2C1DD9002141
:1014B00001316408FF2C01D90629F9D9FF2A07D97F
:1014C000062905D801315208FF2A01D90629F9D980
:1014D00013029BB2090401F4E0210B43E4B223435D
:1014E000036100205DF8044B70470021E6E74900E6
:1014F000B2FBF1F2033AFF2A11D90023013352085B
:10150000FF2A01D9062BF9D9110289B21B0403F471
:10151000E0230B43D2B21A4302610020704700233C
:10152000F2E70120704700BF801A0600F119760526
:101530000012FD3F08B54FF0FF328262026A80223E
:101540000260026B08220260202202600422026014
:101550000A684968034B9847012814BF00200120FE
:1015600008BD00BF85144000CA68002A4CD070B482
:101570008C68002646604B681B0203F4407343F4FA
:1015800080530D7C2D0405F4FE052B434360C6609B
:101590004D685DB10B78012D02DD4E7846EA0323DC
:1015A000022D04DD897841EA032300E00023C360B3
:1015B00001230360022512E0056013F0020F1BD027
:1015C000036B2370036A13F0010FFBD0036A002042
:1015D00070BC7047036B04F8013B013AF2D0036A18
:1015E00013F4807F14D147F23051012AE4D013F074
:1015F000020FEFD1002AE5D0036A13F4807F05D1F2
:101600000139F2D10920E3E7012070470520DFE727
:101610000520DDE7CB68002B43D070B48C68002632
:1016200046600A7C120402F4FE024D682D0205F4A5
:1016300040752A434260C6604D685DB10A78012D4D
:1016400002DD4E7846EA0222022D04DD897841EA65
:10165000022200E00022C26004E014F8012B426381
:10166000013B0FD0026A12F4807F1ED112F0040FEA
:10167000F3D1026A12F4807F15D112F0040FECD17D
:10168000002BF6D1036A13F4807F11D113F0040FFD
:10169000F8D002230360036A13F0010FFBD000208F
:1016A00004E001207047052000E0052070BC704771
:1016B0000520FBE770B50B4C4FF400756561C4F86D
:1016C000A0504FF480732361C4F8A03040F2BE40B4
:1016D000054EB0472561C4F8A05040F2BE40B04767
:1016E000012070BD00120E408D00402038B50A4C1C
:1016F0004FF480732361C4F8A03040F2BE40074D20
:10170000A8474FF400736361C4F8A03040F2BE40B4
:10171000A847012038BD00BF00120E408D004020B8
:101720002DE9F04F85B0019002910392394B4FF4AF
:1017300080725A61C3F8A02007254FF0000A1C46AA
:101740004FF40076B14640F2BE48334F4FF0010BE4
:1017500008E02661C4F8A0604046B847013DB5F1F5
:10176000FF3F10D0C4F81490C4F8A0904046B8478A
:10177000E36B13F4807FECD00BFA05F343EA0A0A1B
:101780005FFA8AFAE5E7019B1946039A01F802A07D
:10179000029B013B9A4223DB1E4C4FF48073636132
:1017A000C4F8A0304FF400756561C4F8A05040F251
:1017B000BE40194EB0472561C4F8A05040F2BE406B
:1017C000B0476561C4F8A05040F2BE40B047224621
:1017D000D36B13F4007FFBD0012005B0BDE8F08F80
:1017E0000C4C4FF480752561C4F8A0504FF400767E
:1017F0006661C4F8A06040F2BE40074FB84726615A
:10180000C4F8A06040F2BE40B8476561C4F8A0507B
:10181000E2E700BF00120E408D00402030B9074BB8
:101820004FF480721A61C3F8A0207047034B4FF445
:1018300080725A61C3F8A020704700BF00120E40AA
:101840002DE9F84F06468A460825DFF8A09040F2B9
:10185000BE48254FF009C8474046DFF894B0D84746
:101860004FF400747C61C7F8A0404046D8473C6103
:10187000C7F8A0407600F6B24046D847681E10F080
:10188000FF05E7D104F1804404F561244FF480732F
:101890006361C4F8A0304FF400736361C4F8A030F2
:1018A00040F2BE40D847CB20D847E36B13F4807F8B
:1018B00002D02846BDE8F88F4FF400722261C4F8C8
:1018C000A0204FF480722261C4F8A02040F2BE40F4
:1018D000D847BAF1000F01D10125EAE74CF28E504A
:1018E000D8470125E5E700BF00120E401D18400053
:1018F0008D00402008B508430021014B984708BDE2
:10190000411840002DE9F04107460D461446114BA1
:101910009847064610B93046BDE8F08121460120BF
:101920000D4B984706460028F5D07DB100240B4E9C
:10193000224629463846B047804618B10134E4B201
:10194000A542F5D1064B98474646E4E74FF000081C
:10195000F8E700BFB5164000F51840002117400019
:10196000ED1640002DE9F84F05460F4614469946FE
:101970001D4B9847064610B93046BDE8F88F214602
:1019800000201A4B984706460028F5D057B307F1B8
:10199000FF385FFA88F808F101080024013FA346E8
:1019A000DFF854A0BC420CBF494659462878D047BE
:1019B000064618B1013401354445F3D1B9F1000FA1
:1019C00005D10B4B4FF400725A61C3F8A02040F2CE
:1019D0005F20084B9847064B4FF480725A61C3F85A
:1019E000A020C9E70026E9E7B5164000F518400039
:1019F00000120E408D0040204118400008B558B13B
:101A00000A4B4FF400525A61C3F8A0201A46D36B18
:101A100013F4005FFBD008BD044B4FF400521A6171
:101A2000C3F8A0204D20024B984708BD00120E407D
:101A30005532400008B530B1084B4FF480625A610E
:101A4000C3F8A02008BD054B4FF480621A61C3F8AB
:101A5000A0204A20024B984708BD00BF00120E404C
:101A60005532400008B5094B4FF480621A61C3F843
:101A7000A0204FF400521A61C3F8A0200120044BAB
:101A800098470120034B984708BD00BF00120E4045
:101A9000351A4000FD19400010B50020064B98474C
:101AA0004FF47D70054CA0470020054B98474FF43C
:101AB0007D70A047012010BD351A40008D004020E8
:101AC000FD19400008B50D4BDB6B13F4005F0BD123
:101AD0000A4B4FF400525A61C3F8A0201A46D36B48
:101AE00013F4005FFBD008BD044B4FF400521A61A1
:101AF000C3F8A0204D20024B984708BD00120E40AD
:101B0000553240002DE9F84304460827DFF8789065
:101B10004FF47D761A4DE009C8473046A847DFF8F4
:101B20006C80C0473046A847C0476400E4B23046E6
:101B3000A847781E10F0FF07EDD1124C4FF48063D8
:101B40006361C4F8A030C04740F22A300C4B98477C
:101B5000E36B13F4806F02D03846BDE8F8834FF48E
:101B60007D70074CA047C047064B4FF480621A6156
:101B7000C3F8A0204FF47D70A0470127ECE700BF19
:101B80008D00402000120E40351A4000C51A40005A
:101B9000F8B507460E46134B9847054608B9284640
:101BA000F8BDA220104B984705460028F7D0B6B1E3
:101BB0007C1E013E57FA86F60B4F14F8010FB8470A
:101BC000054608B1B442F8D10120084B98474FF4BC
:101BD0007D70074B98470120064B9847DFE70025AB
:101BE000F2E700BF991A4000051B4000FD194000B4
:101BF0008D004020351A40002DE9F04F83B0834618
:101C000001919246284B4FF480625A61C3F8A0209C
:101C100007244FF00008254F99464FF47D7609E0E0
:101C20003046234DA847B8473046A847013CB4F199
:101C3000FF3F0CD0B847D9F83C3013F4806FEFD099
:101C40000123A34043EA08085FFA88F8E8E70BF8A5
:101C50000A80154B4FF480621A61C3F8A020019BE3
:101C6000013B9A4510DB0120124B98470F4DA847C6
:101C70004FF47D700E4CA047A8474FF47D70A047ED
:101C8000012003B0BDE8F08F00200A4DA847074EA1
:101C9000B0474FF47D70064CA047B0470120A847DD
:101CA0004FF47D70A047EBE700120E40C51A4000CC
:101CB0008D004020351A40002DE9F04107460D46C1
:101CC000184B9847064610B93046BDE8F081A3206E
:101CD000154B984706460028F6D0FDB10024134E58
:101CE000224629463846B047804618B10134E4B24E
:101CF000A542F5D14FF47D700D4CA04700200D4D4D
:101D0000A8474FF47D70A04701200B4B98474FF434
:101D10007D70A0470120A8474646D5E74FF0000850
:101D2000E8E700BF991A4000051B4000F91B40007E
:101D30008D004020351A4000FD194000012801D9CE
:101D40000120704708B54001014B1B58984708BD5A
:101D50009CE54000012801D90120704708B50346E1
:101D6000034800EB431043680846984708BD00BF8E
:101D70009CE5400001288CBF002001207047000036
:101D8000012801D90120704708B5034B03EB40102F
:101D9000C368984708BD00BF9CE54000012801D9F1
:101DA0000120704710B50C460346044800EB431071
:101DB000436911462046984710BD00BF9CE540008E
:101DC000012801D90120704710B50C46034604488C
:101DD00000EB4310836911462046984710BD00BFB1
:101DE0009CE540002DE9F04180B90C469046002A60
:101DF0000FDD8F18084E094D306821462B68984733
:101E00000134BC42F8D14046BDE8F0814FF0FF38C4
:101E1000F9E78046F7E700BF040F4020FC0E4020A2
:101E20000138022815D82DE9F0410E4614469AB122
:101E30000D46DFF838800C4FD8F8000015F8011B6C
:101E40003B68984700280ADBA81B013CF4D1BDE899
:101E5000F0814FF0FF3070471046BDE8F0814FF041
:101E6000FF30BDE8F08100BF000F4020040F40208C
:101E700070B44FF080435D689C68D868D9695A6D2A
:101E800080261E605D609C60D860D9615A65002222
:101E90001A6505221A6070BC7047000008B501F091
:101EA0003F03184311F4807F04D011F4006F0ED06B
:101EB00040F4845011F4804F18BF40F400604FF09C
:101EC00080431A615861184601F480520DE011F404
:101ED000005F14BF40F4865040F48250EAE713F4E8
:101EE0001B0F0CD113F0010F0DD1036C002AF6D09B
:101EF00013F41F0FF6D0104B9847002008BD0E4B6F
:101F00009847002008BD11F4005F03D1012008BDEF
:101F1000012008BD4FF080431B6C4FF0FF324FF0A3
:101F2000804103F03003202BF2D00B6C013AF8D142
:101F3000014B9847002008BD711E400010B51220CB
:101F4000084CA0473A20A0474FF0804372229A6085
:101F5000DA6111225A654FF4E0625A6005221A6074
:101F600010BD00BF7535400000280CBF04200020C4
:101F700070470120704700007BB34FF08040436DF5
:101F800043F4807343652B4BB3EB410F37D310B44D
:101F90002948B0FBF1F301FB130129BB023B4FF0D1
:101FA0008041486820F0FF0048604C68C3F3470058
:101FB0002043486013F0010F18D04B6843F480337E
:101FC0004B60042A19D0082A0CBFC02200224FF00F
:101FD0008043DA605DF8044B70474FF08040436DFA
:101FE00023F480734365CEE7013BD8E74FF080418F
:101FF0004B6823F480334B60E3E78022E7E74FF040
:102000008043596821F0FF015960596859604FF0C9
:1020100080414B6823F480334B60042A07D0082AA0
:102020000CBFC02200224FF08043DA60704780224C
:10203000F9E700BF7FD1F00880D1F00870474FF07A
:1020400080435A6822F460525A6000221A614FF4A9
:1020500010625A611A46136C13F0010FFBD07047DF
:1020600010B54FF080435A6822F460525A60002441
:102070001C659C610A4601462046014B984710BDED
:102080009D1E40004FF08043186A704710B4031D36
:1020900014304FF08044226A110E03F8041C110C16
:1020A00003F8031C110A03F8021C03F8012C043383
:1020B0008342F0D15DF8044B7047000070B59DF885
:1020C000104084B34FF480754FF0804425654FF085
:1020D00080456C6844F4C0546C6012F0030F27D044
:1020E0006C6844F400546C6000F40044002C14BF8D
:1020F0004FF480344FF4A02410F4803F1FD143EA02
:1021000002454FF08046B56110F4003F2BD110F42A
:10211000802F2BD110F4002F18D110F4801F18BF7E
:1021200044F4002412E000254FF080442565CEE7FA
:102130004FF080456C6824F400546C60D4E744F49C
:102140000014C2F308054FF08046B5610026094D22
:102150002E60094D2A80094A13800A46014620460E
:10216000074B984770BD44F42014EFE744F4801403
:10217000ECE700BF900B40208A0B40208C0B4020E6
:102180009D1E400008B54FF08041164A0B6C13426B
:102190001DD113F0020FF9D04FF080431B6B036089
:1021A000114A136804331360104A1188104A1288C8
:1021B00002FB01F2934212D34FF08041094A0B6CAB
:1021C000134208D113F0006FF9D0012008BD094B6C
:1021D0009847002008BD074B9847002008BD012004
:1021E00008BD00BF000060C0900B40208A0B40205B
:1021F0008C0B4020711E400030B589B005460C465E
:10220000202200216846184B98470122174B1A627A
:10221000174B1B8804FB03F415F0030F1AD1154B61
:102220000393A30800934FF08042536823F40053B4
:102230005360114B019302950C4D6A4600212846CC
:102240000E4B98470120E8610D4A13681C44146046
:1022500009B030BD0B4B039300944FF0804253689C
:1022600043F400535360E4E7CDB7400000800740DB
:102270008A0B40200130040000020040AD464000BF
:10228000900B40200120040070B5124B1B88124AAD
:10229000128802FB03F2114B1C684FF0804010497A
:1022A000104E09E0104B984701220E4B1A62002095
:1022B00070BD13F0006F0AD1036C0B42F2D1A24241
:1022C000F7D9F56D15F0010FF3D0012070BD012095
:1022D00070BD00BF8A0B40208C0B4020900B40202B
:1022E000000060C000800740711E400030B589B01A
:1022F00005460C46202200216846184B98470122CB
:10230000174B1A62174B1B8804FB03F415F0030FDD
:102310001AD1154B0393A30800934FF080425368E2
:1023200023F4005353600195104B02930C4D6A4601
:10233000002128460E4B98470120E8610D4A13689A
:102340001C44146009B030BD0B4B039300944FF054
:102350008042536843F400535360E4E7CDB7400034
:10236000008007408A0B402011500100000200400D
:10237000AD464000900B40201140010070B5124B5B
:102380001B88124A128802FB03F2114B1C684FF0A3
:1023900080401049104E09E0104B984701220E4B27
:1023A0001A62002070BD13F0006F0AD1036C0B425B
:1023B000F2D1A242F7D9F56D15F0010FF3D001204B
:1023C00070BD012070BD00BF8A0B40208C0B4020E7
:1023D000900B4020000060C000800740711E40004C
:1023E00010B40B78002B0CBF002204224B780BB1E9
:1023F00042F008028B780BB142F01002CB780BB19F
:1024000042F040020B790BB142F080024B795B0342
:1024100003F4C0438C7943EA0443CC7943EA046370
:1024200013430360184B5A685B68D20E23F078435D
:1024300043EA02730A7A042A06D8DFE802F003149A
:10244000171C1F0023F40043CA68541E0F4A02EAF7
:10245000044209690139C1F30A010A431343436085
:102460005DF8044B704743F41043EDE723F48053C9
:1024700043F40043E8E743F40053E5E723F0405317
:1024800023F46043E0E700BF00C004400000FF0702
:1024900071B1016841F48051016072B9026822F49F
:1024A000006202608365009B4365019B0365704782
:1024B000016821F480510160EFE7026842F4006294
:1024C0000260EFE730B485688468A54203D0856870
:1024D0008468AC42FBD161B1C4F3015000EB8005CC
:1024E000C4F3034000EB450014F4800F18BF0C3018
:1024F000086042B1C4F3023101EB8101C4F303204F
:1025000000EB4101116043B1C4F3021202EB8202FD
:1025100004F00F0404EB42041C6030BC7047000060
:10252000F0B4446814F0010F05D00C2903D90C391C
:102530004FF4800700E000271C4CA4FB0356F6086C
:1025400006EB8605A3EB450343EA0613A4FB0265ED
:10255000ED0843EA053305EB8505A2EB450543EAA3
:1025600005233B43A4FB0142D20843EA025302EB9A
:102570008202A1EB420143EA0141836913F0040F97
:10258000FBD0036843F001030360836913F0010F7C
:10259000FBD00123C3618160036823F00103036062
:1025A000C06A00F00100F0BC704700BFCDCCCCCCBD
:1025B000F0B4049EC568C468A54203D0C568C46869
:1025C000AC42FBD199B1C4F3033000EB8000C4F3FB
:1025D000032707EB4007C4F3021000EB800504F06B
:1025E0000F0000EB4500642505FB0070086042B158
:1025F000C4F3005081000844C4F3034101EB4001DF
:10260000116043B1C4F3017202EB8202C4F30361AF
:1026100001EB42021A6016B1C4F342543460F0BCBC
:102620007047000070B42A4DA5FB0346F608039CD2
:10263000640544EA067406EB8606A3EB460344EA07
:102640000363A5FB0264E40843EA045304EB840437
:10265000A2EB440243EA02421E4BA3FB01439B0947
:1026600042EA03121C4BA3FB01435B09A5FB036475
:10267000E40804EB8404A3EB44031A43A5FB0143E1
:10268000DB0803EB8304A1EB440142EA0122A5FB32
:102690000315ED0805EB8505A3EB450542EA053278
:1026A000836913F0040FFBD0036843F00203036057
:1026B000836913F0010FFBD00123C361C26003687B
:1026C00023F002030360C06A00F0020070BC704790
:1026D000CDCCCCCCD34D62101F85EB51436913F0A8
:1026E000020F04D0C1F30801C1610020704701202E
:1026F0007047436913F0010F05D08369C3F30803E2
:102700000B6000207047012070470000514B1B7880
:10271000FF2B00F09D80F0B482B0EFF31083B3FA8A
:1027200083F35B09009372B6BFF35F8F00224A4BBD
:102730001A70009C474A1378013313702CB10122A0
:10274000454B1A70BFF35F8F62B68368434A93604C
:102750000023136153620193414BA3FB01239A0CA5
:102760004FF47A7303FB02F33E4AA2FB03239B0858
:10277000019A934205D9019A01320192019A9A4233
:10278000F9D3364D01222A604FF0E0440022228026
:1027900002262E6022800192019A9A4205D2019A65
:1027A00001320192019A9A42F9D32C4A042414600E
:1027B0004FF0E04501262E80146002262E80146022
:1027C00003262E8014602C80146005272F8014604F
:1027D00006272F80146007272F80146008242C8080
:1027E0001660426852002A444CF6FE2414800022EF
:1027F0000192019A9A4205D2019A01320192019AFC
:102800009A42F9D3154A05231360006802238340D6
:1028100003F1E0430020188010604FF0E04318807F
:10282000114BA3FB01139B090193019943F6095333
:1028300003FB01F30193019B0949A1FB03139B0CCB
:102840000193019BC3F30B03536002B0F0BC7047CC
:10285000FEE700BF080F40207701402000400840FD
:1028600083DE1B43ABAAAAAAD34D62100F4B1B7881
:1028700003B9FEE782B0EFF31083B3FA83F35B0989
:10288000019372B6BFF35F8F0022094B1A70019952
:10289000064A1378013B137029B10122044B1A70C8
:1028A000BFF35F8F62B602B0704700BF080F4020D1
:1028B0007701402010B4AC2303600B684A68B3FB77
:1028C000F2F31B095C1E4FF6FE72944208D80362B5
:1028D0008B6843605023036000205DF8044B704711
:1028E0000120FAE7402303607047436913F0020FA9
:1028F00002D0C1610020704701207047436913F086
:10290000010F03D083690B700020704701207047CE
:10291000704770477047704710B51048104B984784
:102920001C2100200F4B98470F4CA0470028FCD0DB
:102930000E4B98470E4A0F4B9A620F4CA047002847
:10294000FCD002200D4B984700200D4B98470D4BB3
:1029500098470248024B984710BD00BF80D1F0084D
:1029600011494000F13440004535400055354000E4
:10297000013F182000060E406535400055344000E8
:102980008D34400005484000014B1878704700BF67
:10299000940B402008B5064B9847C378054A13703E
:1029A000012B01D0012008BD034B984708BD00BF93
:1029B000792C4000940B40207599400008B5044BD9
:1029C0001B78012B00D008BD024B9847FBE700BFE6
:1029D000940B4020BD6D400008B5134B1B7813F0DD
:1029E000800F05D103F06003402B0FD0002008BDFD
:1029F00003F06003402B01D0002008BD0A4B5B7838
:102A00000BB1002008BD094B984708BD064B5B7809
:102A10003BB9054BDB880BB9002008BD044B984738
:102A200008BD002008BD00BF100F4020E96D400028
:102A3000C96D400010B582B000920B4602460021DD
:102A40008120024CA04702B010BD00BF21434000CE
:102A500010B582B000920B46024600210220024CC3
:102A6000A04702B010BD00BF2143400010B582B0A6
:102A700000920B46024600218320024CA04702B080
:102A800010BD00BF2143400010B582B000920B463C
:102A9000024600210420024CA04702B010BD00BF36
:102AA0002143400010B582B000920B46024600213F
:102AB0008520024CA04702B010BD00BF214340005A
:102AC00010B582B000920B46024600210620024C4F
:102AD000A04702B010BD00BF21434000104B1B684F
:102AE0001A6853881A4403781844904211D24378E4
:102AF000042B10D08B4209D003781844904206D2A0
:102B00004378042B09D08B42F6D107E070470020B0
:102B1000704700207047002070470020704700BFBA
:102B2000A40B402008B5034B987800F07F00024BBF
:102B3000984708BD100F40207D404000194B1B787E
:102B40004BB3194B1B681B681A79824225D970B4A4
:102B5000164A13605C881C44A34220D2002501263B
:102B600007E0124A13600FE01A7813443546A34277
:102B70000CD25A78042AF7D19A788242F4D1DA78C2
:102B80008A42F1D1002DECD1012002E0074A136006
:102B9000002070BC70470020704700207047002064
:102BA000F7E700BFA00B4020A40B4020A80B40205B
:102BB0002DE9F84304460021134B9847804610B98D
:102BC0004046BDE8F883114B1B685B6853F82490BE
:102BD000D9F80C309847014620460B4B9847804661
:102BE0000028EDD00A4B1C6805260A4D0A4F3146D5
:102BF0002046A847044610B18078B847F7E7D9F8CF
:102C000004309847DCE700BF3D2B4000A40B402078
:102C1000A80B4020DD2A4000D14040002DE9F041C2
:102C20008046104B98470346C8B10F4B1C680526D9
:102C30000E4D0F4F31462046A847044638B18288D2
:102C4000C1788078B84703460028F3D107E0094BE4
:102C50001B685B6853F828301B6898470346184682
:102C6000BDE8F0813D2B4000A80B4020DD2A40004C
:102C70002D444000A40B4020014B1868704700BF52
:102C8000A80B402070B50D4B1B7883B10C4B1B6813
:102C90001B681B795BB100240A4E094D2046B047E2
:102CA0000134E4B22B681B681B79A342F6D80022DA
:102CB000024B1A700122044B1A8070BDA00B4020F9
:102CC000A40B4020B12B4000960B402038B50D4B93
:102CD0001B78B3B10C4B1B681A6812798AB10024B7
:102CE000094D06E00134E4B22B681A681279A24259
:102CF00007D95B6853F824301B69002BF2D0984742
:102D0000F0E738BDA00B4020A40B4020F8B5884B5D
:102D100000229A811A615A611B7813F0800F14D136
:102D200013F0600F00F0D580814B1B7803F01F0378
:102D3000012B00F06C817E4B1B7803F01F03022BEC
:102D400000F0C78100231846F8BD794AD288002ACE
:102D500000F0E88113F0600FE6D113F01F0306D1F5
:102D600073494978062914D0082974D051B1012B30
:102D700079D0022BD8D16E4B5B78002B00F09B8072
:102D8000002388E1022AD6D102216A486A4B98477B
:102D9000BBE0674B5A88130A013B0E2B00F2788187
:102DA000DFE813F00F001D00370076017601760191
:102DB000760176017601760176017601760176015B
:102DC0002F005E4B186801785B4B9847584BDA88A8
:102DD0009B89934240F29980554B9A8195E0D2B2FB
:102DE000564B1B685B7C9342A5D9544B5B6853F8E8
:102DF00032004188504B98474D4B9B6802225A70D5
:102E0000E4E74E4B9868002895D041884A4B984794
:102E1000DCE7D2B2012A1BD0AAB1022A84D1484AE7
:102E20000A24013A4749002312F8010F21F8020F42
:102E30000133DBB2A342F7D3610002314148017094
:102E40003D4B9847C2E704213F483B4B9847BDE7BD
:102E50003E4A1724E5E7012A7FF46DAF01213C4883
:102E6000354B984751E0324949780A2981D1012AE6
:102E700040F0CD80364B1B78002B00F0C8802C4BE7
:102E80001C79344B1D682B681B79A34240F2BF802C
:102E900000212046304B984700283FF445AF6B682F
:102EA00053F82430DB6898472C4B187001211846E2
:102EB000214B984729E0022A7FF43DAF1C4B18793B
:102EC000274B9847274B1880022118461A4B9847E2
:102ED0001BE013F01F0340F08380154A5278013A3B
:102EE000082A7DD8DFE812F013007C00D6007C00B1
:102EF00009007C007C007C0042000D4BDB88002B2D
:102F00007FF419AF184A0A4B1A6101231BE7084BDB
:102F1000DB88002B7FF40FAF054B5B88012B7FF420
:102F20000AAF044A138823F002031380EDE700BFC1
:102F3000100F4020960B4020C5404000AC004020C0
:102F40006C014020200140205001402054014020CD
:102F5000A00B4020A40B40203D2B40009C0B4020A8
:102F60002D414000980B4020252B40006F4BDB8803
:102F7000002B7FF4E0AE6E4B984700283FF4D4AEB0
:102F80006A4B9A786B4B1B685B7C9A423FF7CCAEDE
:102F9000694B9847654B9A78684B1A70002AB4D0F1
:102FA0006FF060431344634A526802EBC300644904
:102FB000086052F833301B79002BA6D00024264637
:102FC000604D0F4631462046A84700283FF4ACAE7E
:102FD0000134E4B23B681B681B79A342F2D894E742
:102FE000012B0AD0022B7FF49FAE504B5B78012B54
:102FF0002BD0032B39D000234DE04C4A52780B2ABA
:10300000F0D14A4BDB8813B94C4B1B7873B94B4B4F
:103010001B78002B00F08880444B1C79484B1D68BE
:103020002B681B79A3423AD800238CE63F4B1C79CE
:103030005D882046444B984700283FF475AEE9B2BE
:103040002046404B9847034625E0384BDB88002B51
:103050007FF471AE354B5B88002B7FF46CAE334B45
:1030600018793A4B9847034615E0304BDB88002B24
:103070007FF461AE2D4B5B88002B7FF45CAE2B4C54
:103080002079334B98472079324B9847034602E02A
:10309000002300E00023002B7FF455AE44E600211E
:1030A00020462D4B984700283FF445AE6B6853F8F7
:1030B0002450EB68984701462046274B9847002844
:1030C0003FF439AEAB689847034600287FF43BAE27
:1030D00031E61A4B1B780BB3194B1A6813681B792E
:1030E000F3B100241C4E164F536853F82450EB687C
:1030F000984701462046B047034600283FF423AED8
:10310000AB689847034600287FF41DAE0134E4B253
:103110003A6811680979A142E6D814E6002312E65C
:10312000002310E600230EE600230CE6100F4020DB
:10313000A5404000AC004020852C4000A00B402062
:10314000A40B40201D2C4000B12B40004542400004
:1031500025464000414140003D2B40004264B1F112
:10316000C05F3AD013D8B1F1006F25D0B1F1805FC4
:103170000AD1036F13430367436F416F0B4023EA88
:1031800002034367426070470029FBD17047B1F1E9
:10319000205F21D009D8B1F1005FF3D1036F134351
:1031A0000367436F13434367ECE7B1F1405F13D00C
:1031B000B1F1605F10D0E5E710B4016F046FD34345
:1031C00021401C4619400167436F416F0B4023406B
:1031D000436742605DF8044B7047036F016F0B401B
:1031E00023EA02030367436F13434367CAE741645B
:1031F00012F0010F0DD1016612F00A0F0BD001621F
:1032000012F0020F09D112F0080F08D0C0F8841094
:1032100005E04166F0E74162F2E7C0F880104161E5
:103220000160704710B4019C41644CB901664BB118
:1032300001654AB94163016101605DF8044B704763
:103240004166F4E74165F4E70163F4E7C06C704759
:10325000806C7047054B03EB50135B0200F01F00BE
:10326000012202FA00F05863704700BF07072000F0
:1032700070B582B00D46464C04EB5014640201F068
:10328000F043B3F1005F59D00AD8B3F1805F2FD07B
:10329000B3F1C05F3FD0B3F1006F16D0002012E051
:1032A000B3F1405F5DD0B3F1605F5AD0B3F1205FFE
:1032B000F4D100F01F0101262A4606FA01F120464A
:1032C000344B9847304602B070BD00F01F00012615
:1032D000864032464FF0006120462F4B984715F04C
:1032E000010F02D126660120EDE766660120EAE7BC
:1032F00000F01F000126864032464FF080512046E4
:10330000254B984715F0010F02D126660120DAE718
:1033100066660120D7E700F01F000126864032468E
:103320004FF0C05120461C4B984715F0010F02D1B9
:1033300026660120C7E766660120C4E700F01F008B
:103340000126864032464FF000512046124B9847E6
:1033500015F0010F02D126660120B4E76666012050
:10336000B1E705F0605200F01F01012605EA0603EF
:103370000093C5F38003B2F1605F14BF0022012205
:1033800006FA01F12046054CA04730469BE700BFF6
:1033900007072000EF3140005D314000253240003A
:1033A0002DE9F041044688460E4B984705462046D5
:1033B0000D4B9847054013D00C4C04F1600603E018
:1033C000B4420DD010345DB120684045F8D1616839
:1033D0002942F5D0E3689847636825EA0305EFE7DB
:1033E000BDE8F0814D32400051324000AC0B40202E
:1033F00008B50A210148024B984708BD000E0E404F
:10340000A133400008B50B210148024B984708BD85
:1034100000100E40A133400008B50C210148024BBA
:10342000984708BD00120E40A133400008B5102196
:103430000148024B984708BD00140E40A1334000DC
:1034400008B511210148024B984708BD00160E40EF
:10345000A1334000032811D0042812D002280CBF49
:103460004FF480710021084A136B23F440730B431F
:103470001363936E13F0080FFBD070474FF4407145
:10348000F1E74FF40071EEE700060E40174A136BA8
:1034900023F0700318431063936E13F0080F0AD1E2
:1034A0004FF4006311498A6E12F0080F03D1013BFB
:1034B000F9D1012070470D4A136B23F0030343F049
:1034C00002031363936E13F0080F0AD14FF40063E5
:1034D00006498A6E12F0080F05D1013BF9D101208F
:1034E0007047002070470020704700BF00060E4064
:1034F000A0B90E48036A090289B20D4A1A400D4B61
:103500001343194301620246936E13F0010FFBD07F
:10351000064A116A084B0B431362704703490B6A52
:10352000064A1A40064B13430B62704700060E40D2
:10353000FCFFC8FF0100370000003701FCFFC8FE98
:1035400002003701024B986E00F48030704700BFD4
:1035500000060E404FF00052014B9A62704700BFC8
:1035600000060E40024B986E00F00200704700BF4C
:1035700000060E4000F07F00054BC3F80C01D3F8A5
:103580000C2142F01022C3F80C210020704700BF2C
:1035900000060E40024B187880F00100704700BF13
:1035A0001C0C402082B0014628BB244B1B781BB961
:1035B000224B197002B07047214B9B7803B9FEE78C
:1035C000EFF31083B3FA83F35B09009372B6BFF392
:1035D0005F8F00221B4B1A700098194A9378013BA9
:1035E00093700028E4D00122164B1A70BFF35F8F4E
:1035F00062B6DDE7FEE7114B1B78002BD8D1104BEC
:103600009B78FF2BF6D0EFF31083B3FA83F35B09BB
:10361000019372B6BFF35F8F00220A4B1A700198B4
:10362000074A9378013393700028C1D00122054BDB
:103630001A70BFF35F8F62B6BAE700BF1E0C40205E
:10364000080F40207701402082B0EFF31083B3FAD7
:1036500083F35B09019372B6BFF35F8F00220C4BBB
:103660001A70019B01210B4A116023B1084B19709C
:10367000BFF35F8F62B60222074B1A60074A00232E
:10368000136153619381064A137002B0704700BF03
:10369000770140202082034060810340100F4020CA
:1036A000240C40200522034B1A704FF40022024BD9
:1036B0001A607047240C4020F081034082B003223E
:1036C0000F4B1A70EFF31083B3FA83F35B09019386
:1036D00072B6BFF35F8F00220A4B1A7001980A4935
:1036E00001220A60094B1A6008220A601A6028B198
:1036F0000122044B1A70BFF35F8F62B602B07047AD
:10370000240C40207701402060810340F081034079
:1037100008B5024B1B6903B1984708BD100F402044
:1037200030B585B0EFF31083B3FA83F35B090193EF
:1037300072B6BFF35F8F00224F4B1A70019B0121BD
:103740004E4A116023B14C4B1970BFF35F8F62B6C4
:103750004B4B1B78032B5DD04A4B1B884A4A9489FC
:10376000E41AA4B2C4B9494A11880B449BB213802D
:10377000454AD2889A4252D0454B1B78002B4ED1F5
:10378000414B5B69002B67D09847002864D000222A
:103790003C4B1A803C4B9C893F2C5DD900223C4B12
:1037A0001A704024384B9968364B1888EFF3108311
:1037B000B3FA83F35B09029372B6BFF35F8F002203
:1037C0002D4B1A70029D334B1B6813F0020F47D12B
:1037D00054B101443048431C0A78D2B202701846F2
:1037E0000131DBB2A342F6D3264B1A8814441C8065
:1037F000BFF34F8FBFF36F8F0123284A13609032BE
:103800001360002D36D01A461B4B1A70BFF35F8F22
:1038100062B62FE0224B9847224B98472AE00422B9
:10382000174B1A70EFF31083B3FA83F35B0903931A
:1038300072B6BFF35F8F00220F4B1A70039A1023EA
:1038400016490B6090310B60A2B101220A4B1A702D
:10385000BFF35F8F62B60DE001220D4B1A70A1E736
:103860002DB10122044B1A70BFF35F8F62B60422A0
:10387000034B1A7005B030BD770140202082034011
:10388000240C4020200C4020100F4020220C40200F
:103890001D0C402030810340000010A060810340D7
:1038A0001137400049364000037D13F0010F13D05B
:1038B00010B50C46037D6FF300030375036853B125
:1038C000064951F8221011F4807F18BF42F080029F
:1038D00081682046984710BD704700BF00810340B3
:1038E000431E03EB43015F4A02EBC102127D12F05B
:1038F000010F00F0B680F0B583B00A46594901EBDC
:10390000C202D1689268914278D0521AB2F5803FD3
:103910001BD81704544C54F8205015F4807F18D04D
:1039200054F82050C5F302150824AC40013C144261
:1039300017D047F0080703EB43044A4D05EBC404D6
:10394000257D6FF3410525750BE04FF4803200278C
:10395000E0E754F82050C5F3C125012D37D047F0DA
:103960001407424C04EB001403EB43053D4E06EBF9
:10397000C5056D6829446160EFF31081B1FA81F1EA
:103980004909019172B6BFF35F8F002538490D7068
:10399000019DE16811F0100F22D147F02107A760C7
:1039A00003EB430006EBC001C8681044C8600A611D
:1039B0004FF0007000FA03F32E4A9361002D4ED0B1
:1039C00001222B4B1A70BFF35F8F62B647E054F8A9
:1039D0002050C5F302150824AC40A242C1D8BEE76E
:1039E0002DB10121224A1170BFF35F8F62B603EB44
:1039F00043021C4901EBC202D16891601A4A52F895
:103A0000202012F4807F21D003EB4302154901EB03
:103A1000C202127D12F0020F18D00122164B43F899
:103A20002020303B53F8203013F4803F02D0134B5A
:103A300043F820200122124B43F820204FF48052FB
:103A400002FA00F0A3F5F873986108E0024603EB70
:103A500043030021034800EBC3000A4B984703B01F
:103A6000F0BD7047280C40200081034000830340D4
:103A70007701402000800340608103409081034033
:103A8000F0810340A93840002DE9F04385B0874B11
:103A9000984720B9864B5B6813F0010F11D0844B17
:103AA0005B6813F0040F16D0814B04229A60D3F8A0
:103AB000043813F4405F0BD07E4B984705B0BDE847
:103AC000F08372B6BFF35F8F00227B4B1A70F5E76D
:103AD0007A4B9847F0E7764B5B6813F0020F33D1CF
:103AE000734B5B6813F4805F26D0754B10221A600D
:103AF00008221A60F03B1B6813F0040F2AD1714BA7
:103B00001B6813F0010F05D06F4B1B6813F0010FFA
:103B100040F08B806B4B1B6813F0020F40F08880E5
:103B2000684B1B6813F0080F40F03581654B1B682C
:103B300013F0100F40F04281644E01235C4A4FF0B5
:103B4000007E4FF4805C84E10222594B9A605B4B0B
:103B50009847B3E75E4B1B78002B47D1594B1B6846
:103B6000C3F30A53082B46D1564B1868C0F30A50CA
:103B700048B1584B584C5A1C1978DBB219551346AA
:103B8000D2B28242F7D3554B9847002839D004224D
:103B9000534B1A60504B93F90030002B37DB4E4BE0
:103BA000DB88002B3ED000224E4B1A804E4B1A80F1
:103BB0000121474B19701021494B1960EFF3108315
:103BC000B3FA83F35B09019372B6BFF35F8F3A4B8D
:103BD0001A70019B454A1160002B3FF46FAF012220
:103BE000354B1A70BFF35F8F62B667E7404B98475B
:103BF000404B9847B2E7404B98470422384B1A6035
:103C00005CE73D4B98470422354B1A6056E700238A
:103C1000344A1380344A138002222D4B1A70374BDA
:103C200098474BE7364B984748E7344B984745E76A
:103C3000274B1B78012B0BD0022B04D0042B02D076
:103C40002D4B984701E02A4B98472A4B984735E778
:103C50001C4B1868C0F30A501F4B9B89224A1488DA
:103C60002218934201DA1B1B98B21B4B996821441E
:103C700078B1184A531C1278D2B20A7001311A4630
:103C8000DBB28342F6D30444A4B2174B1C80402815
:103C900038D0114B9C815B6913B1984700285AD0EA
:103CA00002220F4B1A60164B984707E795354000E4
:103CB000008003409D6D400077014020CD2C4000E6
:103CC0002082034030810340C0810340348103409F
:103CD000240C4020000010A0100F40200D2D4000AB
:103CE00060810340220C4020200C4020F0810340E2
:103CF0001137400049364000A536400021374000CA
:103D0000BD364000A84BDA88A84B1B8823449A4252
:103D1000BFDDA54B9B89A34223D0A54B02221A608D
:103D200010221A60EFF31083B3FA83F35B09029356
:103D300072B6BFF35F8F00219E4B1970029B9E49A4
:103D40000A60002B3FF4BAAE01229A4B1A70BFF3FF
:103D50005F8F62B6B2E6994B98470222944B1A6085
:103D6000ACE6914B5B6953B1984770B18F49944A67
:103D70000B88108803440B8000231380CDE78F4B02
:103D8000984702228A4B1A6098E68C4B9847022289
:103D9000874B1A6092E60822854B1A60303B1B68FD
:103DA00013F0010F7FF48AAE864B1B78032B7FF450
:103DB00085AE4FF40022804B1A607FE610227C4BC8
:103DC0001A60303B1B6813F0020F7FF477AE7D4B17
:103DD0001B78012B07D0042B7FF470AE4FF4002228
:103DE000754B1A606AE6784B984767E6774B03EBAA
:103DF0000013DA6812F0010F7FF460AE744A51616B
:103E0000DB681B0C08D0734A7C00E51902EBC50582
:103E1000E968CB1AEB60AB606F4B98474EE66F4B8F
:103E2000012249F80320624949F801204FF48042F9
:103E300049F8032007EB470702460021654800EBDD
:103E4000C700674B984739E601330436072B00F06B
:103E5000D580D8B21D465F1EB84614690EFA07F128
:103E60000C4202D054682142C0D111690CFA05F508
:103E70002942E9D04FEA830906F19004D6F8901060
:103E800011F0010F03D0316811F0010FC7D1216883
:103E900011F4805FD8D0316811F4405FD4D14FF471
:103EA00080524E4B49F80320A3F508735D6108EB7F
:103EB0004808484B03EBC80898F814206FF38202B7
:103EC00088F81420474A59F8023023F4007349F85F
:103ED0000230394B4FF4002249F803204FF480227E
:103EE00049F80320EAE50822394B9A60394D00244D
:103EF00001273B4E0134E4B2224639462846B047FA
:103F00001835062CF6D1384B9847314B1A6822F0F9
:103F10007F021A601A6842F080021A60314908680C
:103F2000324A024042F030020A600A6842F002025D
:103F30000A60DA6942F00102DA61EFF31082B2FA44
:103F400082F25209039272B6BFF35F8F0021194AC1
:103F500011700399184A04201060022010604FF479
:103F600080529A6129B10122124B1A70BFF35F8F00
:103F700062B61F4B9847A1E5154BD3F8002822F4F1
:103F80008042C3F8002801225A6110229A61D3F8B6
:103F9000002842F48042C3F800280020154B9847BF
:103FA000154B98478AE500BF100F4020220C402097
:103FB0006081034077014020F0810340A536400036
:103FC000200C4020240C4020BD36400000830340DC
:103FD00000800340280C4020E1384000208203404C
:103FE000A938400000810340852C400083E6FFFF94
:103FF00049364000A53540006D6D40001B4B5B68A5
:1040000013F0080F7FF46FAF184B1B6913F0010F0B
:1040100004D0164B5B6813F0010FADD1134B1B6935
:1040200013F0100F3FF44AAD104B5B6813F0100F04
:104030003FF444AD0D4AD2F8003823F48043C2F86F
:1040400000381346D3F8042812F4804F03D15A687D
:1040500012F0010FF6D0054B10225A610120986131
:10406000034B9847034B984728E500BF0080034067
:10407000A5354000856D400000207047084B1A6848
:1040800022F080021A601A6822F07F0200F07F009E
:1040900002431A601A6842F080021A60704700BF3B
:1040A00000800340024B186800F07F00704700BF9B
:1040B00000800340024B186AC0F3CA00704700BF7B
:1040C00000800340014B986099817047100F402099
:1040D00000F00F02062A00D9704770B51048C36976
:1040E000012101FA02F423EA0403C36100F58070A0
:1040F00050F8223023F0020340F82230561E094CBB
:1041000006FA01F5A81904EBC000074B984735449F
:1041100004EBC504237D6FF38203237570BD00BFDC
:1041200000800340280C4020A938400000F00F0018
:10413000024B53F82000C0F3C0407047C0810340D9
:1041400000F00F03062B5DD8364A52F8232012F4F4
:10415000002F59D110B483B0591E01EB4104324AEB
:1041600002EBC402127D12F0040F4FD112F0010FC6
:1041700051D1EFF31082B2FA82F25209019272B673
:10418000BFF35F8F0024294A1470019C10F0800F48
:1041900018D1274951F8232022F4007241F8232036
:1041A0004021244A42F823104FF40021903242F873
:1041B0002310002C33D001201C4B1870BFF35F8FED
:1041C00062B624E01C4A52F8232012F4405FE0D08B
:1041D00001EB4101144A02EBC1010A7D42F00402E5
:1041E0000A754FF48052154941F8232002FA03F36F
:1041F000134A93618CB101200C4B1870BFF35F8F91
:1042000062B604E00020704701207047012003B02F
:104210005DF8044B70470020F9E70120F7E7012023
:10422000F5E700BFC0810340280C40207701402003
:10423000008103406081034030810340F0810340EE
:104240000080034000F00F00062851D810B5431E2F
:1042500003EB43012C4A02EBC102127D12F0040F62
:1042600048D00A46284901EBC202117D6FF3820152
:10427000117582004FF48051244C44F82010814085
:10428000A4F508746161224951F8201011F4002F3F
:1042900014D02049515811F0400F06D040201E493B
:1042A00050504FF48020903150504FF40020174967
:1042B00050501A48115841F40071115003EB430259
:1042C000114901EBC202127D12F0010F01D1012050
:1042D00010BD08465900CA1800EBC202147D6FF3E6
:1042E000000414750B4450F833309847012010BD7A
:1042F000002070478200064951F8201011F4002F69
:10430000C7D1012010BD00BF280C402020820340EF
:10431000C08103403081034060810340008103403D
:10432000F0B583B000F00F003A4C54F82040062856
:1043300064D8394CE569012484402C4261D0374C63
:1043400054F8204014F4002F5DD1441E04EB4406C1
:10435000334D05EBC6052D7D15F0040F55D1EFF358
:104360001085B5FA85F56D09019572B6BFF35F8FBB
:1043700000262C4D2E70019F04EB4405284E06EBC1
:10438000C5052D7D15F0010F09D0002F3FD001226A
:10439000244B1A70BFF35F8F62B600202FE004EB4E
:1043A00044051F4E06EBC5052E7D46F001062E7511
:1043B0002FB101261B4D2E70BFF35F8F62B6184DD3
:1043C00066003719FF0005EB070ECEF80420CEF883
:1043D00008300022CEF80C20CEF81020089AEA51BE
:1043E000002B08BF41F001019EF8143061F3410336
:1043F0008EF814300C4B9847012000E0002003B0E9
:10440000F0BD0020FBE70020F9E70020F7E70020DF
:10441000F5E700BF0081034000800340C0810340F6
:10442000280C402077014020E13840002DE9F04F72
:1044300083B000F00F04062C00F2DF80734BDD69BF
:104440000123A3402B4040F0DD8001F00305022D45
:1044500005D0032D20D0012D1ED00023CEE04FF03B
:10446000010E6B4E06EB840556F824C0694F0CEA2A
:104470000707C90201F4C05140B20028B8BF4FF489
:104480008073A2F5806080B2B0F57C4F07D3082A14
:1044900024D95200013A04E04FF0000EE1E740F267
:1044A000FF72B2FA82F241EA8E010B43C2F11C02A2
:1044B00043EA021323F4D06323F00303DB04DB0C91
:1044C0003B4346F824300127A740BFB2052C1CD837
:1044D000514A06234D484FF0010E06E00F22E0E757
:1044E000013B043AD9B28C420FD2C6690EFA03F1ED
:1044F0000E42F5D00F43BFB2C66926EA0101C16181
:10450000116821F002011160EAE704EB4403434E15
:1045100006EBC306DFF80491DFF8F080DFF800A1B6
:104520001DE001EB41033D4A52F83340002C6BD0B3
:104530002B6813F4807F18BF40F0800001EB41012D
:10454000364B03EBC1010246C9680120A047002396
:1045500054E0013404351836E3B2062B4BD8E0B2F0
:1045600047FA04F313F0010FF3D0611E01EB41038E
:1045700009EBC30393F814E00EF001026FF3000E91
:1045800083F814E02B6843F002032B60D8F81CE09A
:104590000123A34043EA0E03C8F81C302B6B13F42D
:1045A000802FBED02B6843F400732B60002AD0D03C
:1045B00056F80C3C56F8082C9A1A46F80C2C2B6826
:1045C00013F4807F18BF40F0800056F810BC56F8F6
:1045D00014CC01EB410109EBC101097D56F8183CEF
:1045E0000093ABEB02036244C1F34001D0470346A2
:1045F0000028AED102E0012300E00023184603B0FA
:10460000BDE8F08F0023F9E70023F7E700800340BF
:104610000081034083E6FFFF18810340280C4020FF
:104620002143400070B500F00F02541E4FF000739C
:10463000A34018494B61184B03EB021300259D6002
:104640004FF4805393404B61BFF34F8FBFF36F8F95
:1046500010F0800F08D104EB440401210F4800EB57
:10466000C4000F4B984770BD93000E4818440E4D80
:104670001D444FF4005601F5E071194404E02E602A
:104680000B6813F4005FFBD1036813F4405FF6D1AD
:10469000E1E700BF0080034000830340280C402076
:1046A000A938400030810340F081034000EB8111C4
:1046B000CB6D53680B6693684B66136823F07F439A
:1046C0000B671369C3F30B034B675369CB6793699C
:1046D00023F07F43C1F88030D36923F07F43C1F8D2
:1046E0008430D3688B67704770B586B004460E4639
:1046F0000423009302AB0F220E210D480D4DA84755
:1047000018B11025284606B070BD0546042E28BFF6
:10471000042656B102AA234604EB860152F8040B84
:1047200043F8040B8B42F9D1ECE73546EAE700BFCA
:10473000000C0E4001004020FEE7000000B583B0F1
:10474000254B264A9A4210D0254B234A9A420CD236
:10475000013B9B1A23F00303043313441F4951F810
:10476000040B42F8040B9A42F9D11E4B1E4A9A429E
:104770000AD2013B9B1A23F00303043313440021A4
:1047800042F8041B9342FBD1184A194B23F07F03D4
:104790009360EFF31083B3FA83F35B09019372B66E
:1047A000BFF35F8F0022134B1A700199124A1368EE
:1047B00043F470031360BFF34F8FBFF36F8F29B1C2
:1047C00001220C4B1A70BFF35F8F62B60B4B9847F8
:1047D0000B4B9847FEE700BF000040206CF64000FE
:1047E000300B402024104020400B402000ED00E022
:1047F000000040007701402088ED00E021B6400035
:1048000051A740003B4B1B6B03F00303012B1DD052
:1048100083B1022B36D0374B1B6B03F07003702B28
:104820005FD0344B1A6B3449C2F302120B68D34089
:104830000B607047314B5B6913F0800F14BF4FF46E
:1048400000424FF4FA422C4B1A60E4E7294B1B6AF2
:1048500013F0807F03D02A4A274B1A60DBE7294AEE
:10486000254B1A60234B1B6A03F07003102B05D0F5
:10487000202BD0D1224A204B1A60CCE7224A1E4B73
:104880001A60C8E71B4B1B6A13F0807F16D01C4AC6
:10489000194B1A60174B1B6B03F00303022BBAD1A1
:1048A000144A916A926A1448C1F30A41036801FBF1
:1048B0000333D2B2B3FBF2F30360ACE7114A0E4B01
:1048C0001A600C4B1B6A03F07003102B05D0202BD1
:1048D000E0D10B4A084B1A60DCE70B4A064B1A6022
:1048E000D8E7054A13680949A1FB03135B08136065
:1048F000704700BF00060E407801402010180E409F
:10490000001BB70000093D0000127A00ABAAAAAA5A
:10491000164B984213D9164B984215D9154B98420D
:1049200016D9154B984217D9144B984218D9144BE5
:10493000984294BF134A144A144B1A6070474FF0C0
:104940008062124B1A607047114A104B1A60704710
:10495000104A0E4B1A6070470F4A0C4B1A60704792
:104960004FF00422094B1A60704700BFBFF35E018D
:104970007FE7BD023FDB1C04FFCE7B05BFC2DA062A
:104980007FB639080005000400060004000C0E4044
:104990000001000400020004000300040A4B1B682D
:1049A00053B1094B1B681A180849914208DB10469D
:1049B000054A106018467047054A034B1A60F0E735
:1049C0004FF0FF30704700BFB80C4020FCFF45207F
:1049D000289240204FF0FF3070474FF400534B6057
:1049E000002070470120704700207047022815D82A
:1049F00010B504460B4B9847032806D12046094BB7
:104A00009847032801D1012010BD48B92046064B24
:104A10009847002814BF0420002010BD01207047D3
:104A2000012010BD3D1D4000811D400008B5054B13
:104A3000984720B102280CBF0320012008BD0020A8
:104A400008BD00BF3D1D40002DE9F04F83B08046FA
:104A50000D4614461F46154B984718B9012003B060
:104A6000BDE8F08F064601A94046114B9847B14674
:104A700006FB0742019B03FB06639A4201D904200F
:104A8000EDE7BA4677B176020027DFF828B02A466C
:104A900021464046D84738B901374C44354457453C
:104AA000F5D1DCE70020DAE70120D8E7751D4000EA
:104AB000551D40009D1D40002DE9F04F83B08046FC
:104AC0000D4614461F46154B984718B9012003B0F0
:104AD000BDE8F08F064601A94046114B9847B14604
:104AE00006FB0742019B03FB06639A4201D904209F
:104AF000EDE7BA4677B176020027DFF828B02A46FC
:104B000021464046D84738B901374C4435445745CB
:104B1000F5D1DCE70020DAE70120D8E7751D400079
:104B2000551D4000C11D400010B582B01446032938
:104B300025D8DFE801F01D070F02012313600020D4
:104B400002B010BD01A9114B9847019B01332360AE
:104B50000020F5E70E4B9847082812D84FF48B73C6
:104B600023FA00F010F0010F0DD000202070E7E7CD
:104B7000084B984700280CBF00200320E0E70420E2
:104B8000DEE70120DCE70120DAE700BF551D400029
:104B9000751D40003D1D400030B58BB0114C07AB7A
:104BA00008AA09A92046104DA84703AB009304ABFF
:104BB00005AA06A920460D4CA047049B1B04059896
:104BC00043EA4053099843EAC023089843EA401354
:104BD000079843EA50030698A0F2BC7043EA40608D
:104BE0000BB030BD60180E40C5244000B125400018
:104BF0003AB101388A1811F8013B00F8013F91429F
:104C0000F9D1704702398369023B994204D2837813
:104C1000806A01FB0300704700207047024600F1E4
:104C20000B010020C30143EA500312F8010B50FAB4
:104C300083F3D8B28A42F5D17047000098B108B525
:104C400002780AB9092008BDC2888A4201D0092029
:104C500008BD4078054B984700F00100002814BFBC
:104C60000320002008BD0920704700BF2D4A4000E6
:104C700038B5044601230A4600F1300140781D4D45
:104C8000A84708B1032038BD94F82F2294F82E329B
:104C900043EA02231BB2184A934201D0022038BDD6
:104CA00094F8692094F868301B0443EA026394F88E
:104CB0006620134394F8672043EA022323F07F43DE
:104CC0000E4A934213D094F8853094F8840000047F
:104CD00040EA036094F88230184394F8833040EA45
:104CE000032020F07F40801A18BF012038BD00202B
:104CF00038BD00BF494A400055AAFFFF4641540055
:104D0000F8B504682378303B092B02D865783A2D32
:104D100018D0B04B1C680C60002C00F04381154685
:104D20002378ABB16078AC4B984710F0010F0FD1EE
:104D3000002D00F0398100F0040000280CBF002095
:104D40000A20F8BD02340460002BE2D00B20F8BD2D
:104D5000002020706070A14B984710F0010F01D027
:104D60000320F8BD25B110F0040F01D00A20F8BDD2
:104D7000002120469A4B9847012806D00025032899
:104D800000F01481C8B10D20F8BD94F8F2310BB9D0
:104D90000D20F8BD94F8F93194F8F8512D0445EA46
:104DA000036594F8F6311D4394F8F73145EA03257D
:104DB000294620468A4B9847E1E794F83C2094F82E
:104DC0003B3043EA02231BB2B3F5007F01D00D2034
:104DD000F8BD94F8473094F8462052EA03220DD1EA
:104DE00094F8573094F85620120442EA036294F87B
:104DF00054301A4394F8553042EA0322E26194F8A1
:104E000040E084F803E00EF1FF33DBB2012B01D95F
:104E10000D20F8BD94F83D60A670002E00F0C8800B
:104E2000731E334201D00D20F8BD94F8423094F83F
:104E3000411041EA0321218111F00F0F40F0BA80A7
:104E400094F8440094F8433053EA00230DD194F8C9
:104E5000530094F852301B0443EA006394F8500066
:104E6000034394F8510043EA002394F83F0094F878
:104E70003E7057EA002700F09F8002FB0EFE07EB12
:104E8000111070448342C0F099801B1AB3FBF6F3F3
:104E9000002B00F0958040F6F576B3428CBF0226D9
:104EA00001264FF6F57C634500F2A4800233A3612E
:104EB0002844A0623D442562002900F089807544A1
:104EC0006562022E0BD15B0003F2FF13B2EB532F8E
:104ED0007CD34FF0FF3323610023E36051E003EB09
:104EE000430103F0010303EB5103EDE794F82F2294
:104EF00094F82E3243EA02231BB23A4A93424BD132
:104F000094F8332094F832301B0443EA026394F897
:104F10003020134394F8312043EA0223324A93426B
:104F20003CD194F8172294F816321B0443EA02632A
:104F300094F81422134394F8152243EA02232B4ACF
:104F400093422DD194F81F2294F81E321B0443EA99
:104F5000026394F81C22134394F81D2243EA0223AF
:104F6000E36094F81B2294F81A321B0443EA0263AC
:104F700094F81822134394F8192243EA0223236178
:104F8000032626701A4A138801339BB21380E380EC
:104F90000020E0622071F8BD0326F2E70326F0E767
:104FA0000326EEE70C20F8BD0020F8BD0120F8BD77
:104FB0000D20F8BD0D20F8BD0D20F8BD0D20F8BD69
:104FC0000D20F8BD0D20F8BD0D20F8BD0D20F8BD59
:104FD0000D20F8BDBC0C40202D4A4000ED4940009A
:104FE000714C400055AAFFFF5252614172724161FB
:104FF000C00C40200233A3612844A0622F442762E2
:105000000029E1D194F85F0094F85E10090441EAA8
:10501000006194F85C00014394F85D0041EA0021CE
:1050200061629B0003F2FF13B2EB532FCAD34FF020
:10503000FF3323610023E360637194F8613094F8D7
:10504000602042EA03222A446261012304F1300114
:105050006078034DA84700283FF448AF032690E747
:10506000494A40002DE9F047C76A8F4235D00E46C5
:10507000044603791BB92EBB0020BDE8F08700F180
:10508000300801233A4641464078184DA84738BBBE
:1050900000232371236AE26913449F42EBD2E5782F
:1050A000012DE8D94FF0010ADFF84090E3691F4471
:1050B00053463A4641466078C847013DEDB2012D5E
:1050C000F4D1D8E70123324604F130016078084D6D
:1050D000A84740B9E662BDE8F0870020BDE8F08748
:1050E0000120BDE8F0870120BDE8F087B94A400003
:1050F000494A400001296AD9F8B58369994268D2C2
:105100000C4606460378022B2FD0032B41D0012BEF
:1051100002D04FF0FF30F8BD01EB5107016A01EBFF
:1051200057212D4B984710B14FF0FF30F8BDC7F312
:105130000803334493F830500137316A01EB5721AB
:105140003046254B984710B14FF0FF30F8BDC7F3FC
:105150000807F01990F8300045EA002014F0010F1C
:1051600014BF0009C0F30B00F8BD016A01EB142164
:10517000194B984710B14FF0FF30F8BD600000F4B4
:10518000FF70304490F8313090F8300040EA03204E
:10519000F8BD016A01EBD4110F4B984710B14FF0E5
:1051A000FF30F8BDA00000F4FE7000F13002324480
:1051B000D17893781B0443EA0163304490F83000BF
:1051C0001843537840EA032020F07040F8BD0120D6
:1051D00070470120F8BD00BF65504000F8B5054696
:1051E0000C46C180816801293DD003689A699142CB
:1051F00001D30220F8BD61B91A78032A06D0002233
:10520000EA601A89A24221D80220F8BD596A002911
:10521000F5D09E783601B44210D3174F2868B847AE
:105220000146B0F1FF3F20D0012820D92B689B69AF
:1052300098421ED2A41BA4B2A642EFD9E960286806
:105240000E4B984700EB1410286103E05B6A03EBF8
:1052500014132B612B68303304F00F0403EB441458
:105260006C610020F8BD0220F8BD0120F8BD0220CD
:10527000F8BD0220F8BD00BFF5504000054C4000CD
:105280002DE9F041012940F28F808369994201D3D1
:1052900002278AE015460C4606460378022B4ED0BC
:1052A000032B5FD0012B03D00227012333717CE055
:1052B00001EB5108016A01EB58213D4B9847074625
:1052C0000028F2D1C8F3080314F0010F1CD03344B6
:1052D00093F8302002F00F0242EA051283F83020E2
:1052E00008F1010801233371316A01EB582130467E
:1052F0002F4B9847002853D1C8F30808C5F307126D
:10530000B04488F83020D0E7334483F8305008F1B7
:10531000010801233371316A01EB58213046244BD7
:10532000984700283ED1C8F3080806EB080393F815
:10533000303023F00F03C5F303221A43E0E7016A7C
:1053400001EB14211A4B984707460028ADD16300A2
:1053500003F4FF73334483F83050C5F3072283F816
:105360003120A2E7016A01EBD411114B984707469F
:1053700000289AD1A10001F4FE7101F130033344F9
:10538000DA781206314402F070422A4381F8302064
:10539000C2F307215970110C9970120EDA7084E76C
:1053A000074682E7074680E702273846BDE8F081D6
:1053B000655040002DE9F0410546884641B9C66870
:1053C00086B183699E4228BF01263446274F17E0E5
:1053D000264B9847034601283ED9AA69904240D3FC
:1053E0004646F2E70126F0E721462846B84703463D
:1053F00070B1B0F1FF3F34D0012832D0B4422FD089
:105400000134AB699C42EFD3012E27D90224EBE78C
:105410006FF0704221462846154B9847034610B955
:10542000B8F1000F0BD18BB9EC602B69B3F1FF3FE2
:105430001AD0013B2B6101236B71234611E02246F8
:10544000414628460A4B98470346ECE7012B0CBF20
:105450004FF0FF33012304E0012302E0002300E0CA
:1054600000231846BDE8F0812346FAE7F5504000D6
:105470008152400001292ED92DE9F84304460E46F9
:105480008369994203D302221046BDE8F883164F80
:105490004FF00009DFF8548003E02E46A369AB42C9
:1054A000F2D931462046B8470546B8B1012817D091
:1054B000B0F1FF3F16D04A4631462046C04702466B
:1054C0000028E1D12369B3F1FF3FE6D00133236126
:1054D00001236371E1E70222104670470022D3E7FF
:1054E0000222D1E70122CFE7F5504000815240006F
:1054F00038B5044600212E4B9847034650B923780F
:10550000032B09D00022114660782A4B9847031CD0
:1055100018BF0123184638BD6379002BF2D0002351
:10552000E36204F1300104F50C700B46002203F82D
:10553000012B8342FBD1552384F82E32AA2384F811
:105540002F32522384F8303084F83130612384F8CC
:105550003230412284F83320722084F8140284F817
:10556000150284F8162284F81732236984F8183259
:10557000C3F3072284F819221A0C84F81A221B0E8E
:1055800084F81B32E36884F81C32C3F3072284F8E2
:105590001D221A0C84F81E221B0E84F81F320123D0
:1055A00062696078044DA84700236371AAE700BFD1
:1055B00065504000294B4000B94A40002DE9F84FA2
:1055C000C4880134A4B214B90420BDE8F88F03697B
:1055D00013B90420BDE8F88F0E46054614F00F07F6
:1055E00010D101330361C16831B903681B89A3423B
:1055F00008D80420BDE8F88F00688378013B13EADF
:10560000141308D0EC802B68303303EB47136B6125
:105610000020BDE8F88F334B9847804601284FD9CA
:10562000B0F1FF3F4FD028688369984540D316B941
:105630000420BDE8F88FE9682B4B9847804610B9E5
:105640000720BDE8F88F012840D0B0F1FF3F40D0DF
:1056500000212868254B984700283DD12B6803F589
:105660000C713033002203F8012B8B42FBD12E68E2
:10567000414630461E4B9847F06200264FF0010B22
:10568000B246DFF868902B689978F2B291420BD954
:1056900083F804B051462868C8470136F8B92A682B
:1056A000D36A0133D362EEE71646DA6A961BDE62EE
:1056B000C5F80C80414628680D4B98472861A1E742
:1056C0000220BDE8F88F0120BDE8F88F0220BDE878
:1056D000F88F0120BDE8F88F0120BDE8F88F012088
:1056E000BDE8F88FF5504000B553400065504000CC
:1056F000054C40002DE9F04F85B005460021614B77
:105700009847804608BB4FF0FF0BD9465E4FDA46FC
:1057100094E00F2A1DD0B9F1000F04D120465B4B55
:105720009847824511D04FF6FF732B84AB69DA7A24
:1057300012F0010F79D104F10B0014F8011B13F8DA
:10574000012B91426BD18442F7D1404605B0BDE8B0
:10575000F08FD5F81C80B8F1000F68D016F0400F1C
:105760000CD094F80DA006F0BF06EB882B8494F8BB
:105770000DB0D34507D04FF0FF0958E0B145F6D042
:105780004FF0FF0953E094F800A02AF0400A0AF114
:10579000FF3A0AEB4A030AEB8303DFF8FC9009F1B6
:1057A0000D0A01200396CDF804B01E4602950FE0C5
:1057B0001846374B98478346FE2E5AD8751C38F842
:1057C0001600334B9847834557D12E46D14513D009
:1057D00019F8012BA3185978A35C43EA0123002888
:1057E000E6D14FF6FF729342F0D0DDF804B0029D8F
:1057F000DA464FF0FF091AE0DDF804B03246039EA6
:10580000029D237813F0400F04D018B138F81230FD
:10581000002BEDD1013E5FFA86F9DA4607E04FF042
:10582000FF0904E04FF0FF0901E04FF0FF090021FC
:105830002846184B98478046002886D12969286851
:10584000B8478046002880D16C69267876B1E37A23
:1058500003F03F02E52EE5D013F0080F3FF459AFF7
:105860000F2A3FF456AF4FF0FF09E0E74FF004086E
:105870006BE7DDF804B0029DBAE7DDF804B0029DE5
:10588000B6E700BFDD514000655040001D4C4000B0
:1058900015664000BD5540000CE640002DE9F04F74
:1058A00083B082460F460B782F2B0AD05C2B08D092
:1058B0000023CAF808303B781F2B04D9DFF8FC928C
:1058C00033E10137F4E700215046B74B98470346D0
:1058D0000022CAF814205DE1002B40F0558126F823
:1058E000022F631C15F8010F2F2818BF1F281BD982
:1058F0005C2819D0B3F5807F00F046811C464146F4
:10590000C8470246002800F03F817F28E7D82228B8
:1059100000F03F812A23A54998B29042DCD011F8CB
:10592000013F002BF8D1DAE71F44202834BF0425BB
:105930000025002C00F02D816FF0004323440BEB79
:1059400043023BF81330202B01D02E2B08D1013C11
:1059500000F01F8132F8023D202BF8D02E2BF6D01C
:10596000600000232BF81430DAF8183003F10B0133
:10597000202203F8012B9942FBD1BBF80030202BE9
:1059800001D02E2B1FD159460023013331F8022FAD
:10599000202AFAD02E2AF8D00BB145F003050238A0
:1059A0000BEB00023BF800102E2905D0013C03D080
:1059B00032F8021D2E29F9D1082200924FF000087A
:1059C000CDF8048004E00023E9E745F00305334601
:1059D0005E1C3BF81300002866D02028F5D02E2846
:1059E00001D1A642F1D1009B984518D2A64216D00B
:1059F0007F2831D82B283DD02C236D499AB2824282
:105A000043D011F8013F002BF8D1A0F141039BB224
:105A1000192B3DD8019B43F0020301932DE0009B1D
:105A20000B2B0FD0A64218BF45F00305A6423BD86A
:105A3000019B9B00DBB2019323460B2200924FF0A7
:105A40000808C5E745F00305DAF818301A78E52AA2
:105A500032D105221A702CE00021C84703460028E5
:105A600000F09F80534A134413F8800C45F0020560
:105A70000028BFD145F003055F20DAF8183003F89D
:105A80000800334608F10108A2E7002BF2D1BCE779
:105A9000A0F161039BB2192BEFD8019B43F00103E6
:105AA0000193203880B2E8E7DAF818301A78E52A4E
:105AB000CFD0009B082B52D0019A02F00C030C2B84
:105AC00054D002F00302032A50D015F0020F0BD17C
:105AD000019A02F0030BBBF1010F08BF45F010055E
