S01000005744535F555342322E73726563AB
S21440000048414020B1374000AD374000AD37400052
S214400010AD374000AD374000AD374000000000002F
S214400020000000000000000000000000AD37400067
S214400030AD37400000000000AD374000AD3740000F
S214400040AD374000AD374000AD374000AD374000DB
S214400050AD374000AD374000AD374000AD374000CB
S214400060AD374000000000000D2040002120400039
S21440007035204000AD374000AD374000AD3740003A
S214400080492040005D204000AD374000AD3740007D
S214400090AD374000AD374000AD374000AD3740008B
S2144000A0AD374000AD374000AD374000AD3740007B
S2144000B0AD374000AD374000AD374000AD3740006B
S2144000C0AD374000AD374000B5294000AD37400061
S2144000D0AD374000AD374000AD374000AD3740004B
S2144000E0AD374000AD374000AD374000AD3740003B
S2144000F0AD374000AD374000AD374000AD3740002B
S214400100AD374000AD374000AD374000AD3740001A
S214400110AD374000AD374000000000000000000052
S214400120AD374000AD374000AD374000D5414000C8
S214400130AD374000AD374000AD374000AD374000EA
S214400140AD374000AD374000AD374000AD374000DA
S214400150AD374000AD374000AD374000AD374000CA
S214400160AD374000AD37400010B5054C237833B965
S214400170044B13B10448AFF300800123237010BD35
S214400180A00A40200000000008B140000C4B43B1DC
S2144001900C480D4910B5AFF300800C48036823B9EE
S2144001A010BD0A48036833B97047094B002BF7D097
S2144001B0BDE810401847064B002BF5D0184700BF47
S2144001C00000000008B14000A40A402008B14000EA
S2144001D00000000008B5014B984708BD590740008D
S2144001E008B5014B984708BD050840002DE9F04189
S2144001F086B006468C1C154DDFF85880144F15E027
S2144002002278FF2A1ED01A0A8DF804208DF8053071
S2144002100223029330238DF8143001230493039174
S21440022001A93046A84708280DD00434214634F8A2
S214400230023C4FF6FF729342E2D0FE2BE3D140469B
S214400240B847F2E7002006B0BDE8F081E101400083
S21440025001004020C2DB03002DE9F0418CB080460F
S21440026000230093019330248DF818408DF8084001
S2144002700A238DF8093002270397CDF810D00126BF
S214400280059602A9294DA8478DF82C408DF81C40AC
S2144002900B238DF81D30089701AB09930A9607A9E2
S2144002A04046A847019B009A43EA0223C3F307232C
S2144002B0262B03D001200CB0BDE8F081002300932C
S2144002C0019302938DF81C4004228DF81D20089758
S2144002D08DF82C400A9601AB099307A94046A847DB
S2144002E00CAB112243F8282D099307A94046104B22
S2144002F09847CDF824D007A94046A847029B009AC5
S2144003009A4201D00120D6E701AB099307A940469F
S214400310074B9847CDF824D007A94046A847019BED
S2144003200098C01A18BF0120C5E700BFD50140009D
S214400330E101400008B5082914D8DFE801F01505AA
S2144003401707090B0D0F11000B4910E00B490EE083
S2144003500B490CE00B490AE0084908E00A4906E068
S2144003600A4904E0012008BD094900E009490A4B52
S2144003709847002008BD00BF38AB400024AB400083
S21440038028AB400030AB40004CAB400054AB400084
S2144003903CAB400008A94000ED0140002DE9F0418B
S2144003A0AA4BAB4A5A60A2F580725A60BFF34F8F91
S2144003B0BFF36F8FA74BD3F8902222F00102C3F809
S2144003C09022D3F8942222F00102C3F89422BFF37D
S2144003D04F8FBFF36F8F0A20DFF89482C0470B2001
S2144003E0C0470C20C0471020C0471120C0479A4B3A
S2144003F04FF0010EC3F810E0C3F8A0E0C3F830E0B9
S214400400964C04226261C4F8A0206266C4F890202C
S21440041062656262C4F88020216F21F00401216782
S214400420616F21F0040161678D494FF48040086197
S214400430C1F8A00008638B4FD7F8141141F01001A3
S214400440C7F8141108212166C4F8901061656162EE
S214400450C4F88010206F20F008002067606F20F0FE
S21440046008006067616010252566C4F89050656591
S2144004706562C4F88050206F20F010002067606FDF
S21440048020F010006067656080261E61C3F8A0609B
S2144004901E634FF480702061C4F8A00060634FF480
S2144004A000002061C4F8A00060634FF480602061C3
S2144004B0C4F8A00020634FF080705861C3F8A000D5
S2144004C04FF000705861C3F8A00067480261C0F85A
S2144004D0A02002631961C3F8A0101963C0F810E0A9
S2144004E0C0F8A0E0C0F830E00A20C04702236361AD
S2144004F0C4F8A0304FF080436361C4F8A0304FF09A
S21440050000436361C4F8A0304FF000615420574C5C
S214400510A0474FF000615520A0474FF0006156209D
S214400520A0474FF000615720A0474FF00061582089
S214400530A0474FF000615920A0474FF000615A2075
S214400540A0474FF000615B20A0474FF000615C2061
S214400550A0474FF000615D20A0474FF0C0516D208E
S214400560A0474FF000615F20A0474FF0C0511220D7
S214400570A0474FF0C0511420A0474FF0C051002074
S214400580A0474FF0C0517720A0474FF0C0516E2093
S214400590A0474FF000614F20A0474FF0C051702059
S2144005A0A0474FF0C0517120A0474FF0C0517D206A
S2144005B0A0474FF000615220A0474FF0C0516F2037
S2144005C0A0474FF000614020A0474FF00061412017
S2144005D0A0474FF000614220A0474FF00061432003
S2144005E0A0474FF000614420A0474FF000614520EF
S2144005F0A0474FF000614620A0474FF000614720DB
S214400600A0474FF000613046A0474FF00061812080
S214400610A0474FF000618220A0474FF00061832042
S214400620A0474FF000618420A0474FF0006185202E
S214400630A0474FF000610F20A0474FF000612846CA
S214400640A047C7F82451BDE8F08100BF000C0E401B
S2144006500C08005A00ED00E000140E40000E0E405C
S21440066000120E400080084000100E408D1E4000D4
S214400670A9214000284B99424BD8A3F57A5399427A
S2144006802DD910B4254CA4FB0234A40B033C244BB8
S2144006900B449B00B2FBF3F2033AFF2C1DD900211A
S2144006A001316408FF2C01D90629F9D9FF2A07D958
S2144006B0062905D801315208FF2A01D90629F9D959
S2144006C013029BB2090401F4E0210B43E4B2234336
S2144006D0036100205DF8044B70470021E6E74900BF
S2144006E0B2FBF1F2033AFF2A11D900230133520834
S2144006F0FF2A01D9062BF9D9110289B21B0403F44B
S214400700E0230B43D2B21A43026100207047002315
S214400710F2E70120704700BF801A0600F1197605FF
S2144007200012FD3F08B54FF0FF328262026A802217
S2144007300260026B082202602022026004220260ED
S2144007400A684968034B9847012814BF00200120D7
S21440075008BD00BF75064000CA68002A4CD070B479
S2144007608C68002646604B681B0203F4407343F4D3
S21440077080530D7C2D0405F4FE052B434360C66074
S2144007804D685DB10B78012D02DD4E7846EA0323B5
S214400790022D04DD897841EA032300E00023C3608C
S2144007A001230360022512E0056013F0020F1BD000
S2144007B0036B2370036A13F0010FFBD0036A00201B
S2144007C070BC7047036B04F8013B013AF2D0036AF1
S2144007D013F4807F14D147F23051012AE4D013F04D
S2144007E0020FEFD1002AE5D0036A13F4807F05D1CB
S2144007F00139F2D10920E3E7012070470520DFE701
S2144008000520DDE7CB68002B43D070B48C6800260B
S21440081046600A7C120402F4FE024D682D0205F47E
S21440082040752A434260C6604D685DB10A78012D26
S21440083002DD4E7846EA0222022D04DD897841EA3E
S214400840022200E00022C26004E014F8012B42635A
S214400850013B0FD0026A12F4807F1ED112F0040FC3
S214400860F3D1026A12F4807F15D112F0040FECD156
S214400870002BF6D1036A13F4807F11D113F0040FD6
S214400880F8D002230360036A13F0010FFBD0002068
S21440089004E001207047052000E0052070BC70474A
S2144008A00520FBE708B558B10A4B4FF400725A6171
S2144008B0C3F8A0201A46D36B13F4007FFBD008BDC4
S2144008C0044B4FF400721A61C3F8A0204920024B33
S2144008D0984708BD00120E40711E400008B530B162
S2144008E0084B4FF480725A61C3F8A02008BD054BF0
S2144008F04FF480721A61C3F8A0204820024B9847F4
S21440090008BD00BF00120E40711E400010B500200A
S214400910054B9847CB20054CA0470020044B9847F2
S214400920CB20A047012010BDDD084000010040203C
S214400930A508400008B50D4BDB6B13F4007F0BD1C8
S2144009400A4B4FF400725A61C3F8A0201A46D36B84
S21440095013F4007FFBD008BD044B4FF400721A61BD
S214400960C3F8A0204920024B984708BD00120E400D
S214400970711E40002DE9F84304460827DFF87090C2
S214400980CB26194DE009C8473046A847DFF86480B3
S214400990C0473046A847C0476400E4B23046A84740
S2144009A0781E10F0FF07EDD1104C4FF48073636152
S2144009B0C4F8A030C047CB200B4B9847E36B13F4EA
S2144009C0807F02D03846BDE8F883CB20064CA0474F
S2144009D0C047064B4FF480721A61C3F8A020CB2064
S2144009E0A0470127EEE700BF0100402000120E405E
S2144009F0DD08400035094000F8B507460E46124B64
S214400A009847054608B92846F8BDEE200F4B98474C
S214400A1005460028F7D0AEB17C1E013E57FA86F652
S214400A200A4F14F8010FB847054608B1B442F8D14A
S214400A300120074B98476620064B98470120064BF7
S214400A409847E0E70025F3E70D09400075094000A8
S214400A50A508400001004020DD0840002DE9F04F89
S214400A6083B0834601919246264B4FF480725A617A
S214400A70C3F8A02007244FF00008234F9946CB2602
S214400A8009E03046214DA847B8473046A847013CC4
S214400A90B4F1FF3F0CD0B847D9F83C3013F4807F10
S214400AA0EFD00123A34043EA08085FFA88F8E8E756
S214400AB00BF80A80134B4FF480721A61C3F8A020DB
S214400AC0019B013B9A450EDB0120114B98470E4D8A
S214400AD0A847CB200D4CA047A847CB20A0470120D5
S214400AE003B0BDE8F08F0020094DA847064EB0473A
S214400AF0CB20064CA047B0470120A847CB20A047B4
S214400B00EDE700BF00120E403509400001004020CE
S214400B10DD0840002DE9F04107460D46134B984747
S214400B20064610B93046BDE8F081EF20104B984796
S214400B3006460028F6D0B5B100240E4E2246294679
S214400B403846B047804618B10134E4B2A542F5D1E4
S214400B500120094B98476620084B98470120084BD0
S214400B6098474646DEE74FF00008F1E70D0940009B
S214400B70750940005D0A4000A5084000010040207D
S214400B80DD08400008B558B10A4B4FF400725A6170
S214400B90C3F8A0201A46D36B13F4007FFBD008BDE1
S214400BA0044B4FF400721A61C3F8A0204920024B50
S214400BB0984708BD00120E40711E400008B530B17F
S214400BC0084B4FF480725A61C3F8A02008BD054B0D
S214400BD04FF480721A61C3F8A0204820024B984711
S214400BE008BD00BF00120E40711E400010B5002028
S214400BF0054B9847CB20054CA0470020044B984710
S214400C00CB20A047012010BDBD0B40000100402076
S214400C10850B400008B50D4BDB6B13F4007F0BD102
S214400C200A4B4FF400725A61C3F8A0201A46D36BA1
S214400C3013F4007FFBD008BD044B4FF400721A61DA
S214400C40C3F8A0204920024B984708BD00120E402A
S214400C50711E40002DE9F84304460827DFF87090DF
S214400C60CB26194DE009C8473046A847DFF86480D0
S214400C70C0473046A847C0476400E4B23046A8475D
S214400C80781E10F0FF07EDD1104C4FF4807363616F
S214400C90C4F8A030C047CB200B4B9847E36B13F407
S214400CA0807F02D03846BDE8F883CB20064CA0476C
S214400CB0C047064B4FF480721A61C3F8A020CB2081
S214400CC0A0470127EEE700BF0100402000120E407B
S214400CD0BD0B4000150C4000F8B507460E46124BBB
S214400CE09847054608B92846F8BD80200F4B9847D8
S214400CF005460028F7D0AEB17C1E013E57FA86F670
S214400D000A4F14F8010FB847054608B1B442F8D167
S214400D100120074B98476620064B98470120064B14
S214400D209847E0E70025F3E7ED0B4000550C400000
S214400D30850B400001004020BD0B40002DE9F04FE0
S214400D4083B0834601919246264B4FF480725A6197
S214400D50C3F8A02007244FF00008234F9946CB261F
S214400D6009E03046214DA847B8473046A847013CE1
S214400D70B4F1FF3F0CD0B847D9F83C3013F4807F2D
S214400D80EFD00123A34043EA08085FFA88F8E8E773
S214400D900BF80A80134B4FF480721A61C3F8A020F8
S214400DA0019B013B9A450EDB0120114B98470E4DA7
S214400DB0A847CB200D4CA047A847CB20A0470120F2
S214400DC003B0BDE8F08F0020094DA847064EB04757
S214400DD0CB20064CA047B0470120A847CB20A047D1
S214400DE0EDE700BF00120E40150C40000100402009
S214400DF0BD0B40002DE9F04107460D46134B984782
S214400E00064610B93046BDE8F0818120104B984721
S214400E1006460028F6D0B5B100240E4E2246294696
S214400E203846B047804618B10134E4B2A542F5D101
S214400E300120094B98476620084B98470120084BED
S214400E4098474646DEE74FF00008F1E7ED0B4000D6
S214400E50550C40003D0D4000850B400001004020F1
S214400E60BD0B400008B558B10A4B4FF400525A61CA
S214400E70C3F8A0201A46D36B13F4005FFBD008BD1E
S214400E80044B4FF400521A61C3F8A0204D20024B89
S214400E90984708BD00120E40711E400008B530B19C
S214400EA0084B4FF480625A61C3F8A02008BD054B3A
S214400EB04FF480621A61C3F8A0204A20024B98473C
S214400EC008BD00BF00120E40711E400008B5094B19
S214400ED04FF480621A61C3F8A0204FF400521A61A2
S214400EE0C3F8A0200120044B98470120034B9847A5
S214400EF008BD00BF00120E409D0E4000650E40002B
S214400F0010B50020064B98474FF47D70054CA0471F
S214400F100020054B98474FF47D70A047012010BD38
S214400F209D0E400001004020650E400008B50D4B68
S214400F30DB6B13F4005F0BD10A4B4FF400525A613F
S214400F40C3F8A0201A46D36B13F4005FFBD008BD4D
S214400F50044B4FF400521A61C3F8A0204D20024BB8
S214400F60984708BD00120E40711E40002DE9F84318
S214400F7004460827DFF878904FF47D761A4DE0094E
S214400F80C8473046A847DFF86C80C0473046A84779
S214400F90C0476400E4B23046A847781E10F0FF070A
S214400FA0EDD1124C4FF480636361C4F8A030C04763
S214400FB040F22A300C4B9847E36B13F4806F02D014
S214400FC03846BDE8F8834FF47D70074CA047C047CD
S214400FD0064B4FF480621A61C3F8A0204FF47D7030
S214400FE0A0470127ECE700BF0100402000120E405A
S214400FF09D0E40002D0F4000F8B507460E46134B99
S2144010009847054608B92846F8BDA220104B984791
S21440101005460028F7D0B6B17C1E013E57FA86F644
S2144010200B4F14F8010FB847054608B1B442F8D143
S2144010300120084B98474FF47D70074B9847012096
S214401040064B9847DFE70025F2E700BF010F400058
S2144010506D0F4000650E4000010040209D0E400090
S2144010602DE9F04F83B0834601919246284B4FF4CA
S21440107080625A61C3F8A02007244FF00008254F2D
S21440108099464FF47D7609E03046234DA847B84749
S2144010903046A847013CB4F1FF3F0CD0B847D9F8DA
S2144010A03C3013F4806FEFD00123A34043EA080896
S2144010B05FFA88F8E8E70BF80A80154B4FF4806231
S2144010C01A61C3F8A020019B013B9A4510DB012022
S2144010D0124B98470F4DA8474FF47D700E4CA047D3
S2144010E0A8474FF47D70A047012003B0BDE8F08FBD
S2144010F000200A4DA847074EB0474FF47D70064C77
S214401100A047B0470120A8474FF47D70A047EBE7C3
S21440111000120E402D0F4000010040209D0E400062
S2144011202DE9F04107460D46184B9847064610B93C
S2144011303046BDE8F081A320154B98470646002868
S214401140F6D0FDB10024134E224629463846B04715
S214401150804618B10134E4B2A542F5D14FF47D7013
S2144011600D4CA04700200D4DA8474FF47D70A0477A
S21440117001200B4B98474FF47D70A0470120A847AD
S2144011804646D5E74FF00008E8E700BF010F4000AD
S2144011906D0F400061104000010040209D0E400051
S2144011A0650E40002DE9F04180B90C469046002A75
S2144011B00FDD8F18084E094D306821462B6898473A
S2144011C00134BC42F8D14046BDE8F0814FF0FF38CC
S2144011D0F9E78046F7E700BF30104020281040204F
S2144011E00138022815D82DE9F0410E4614469AB12A
S2144011F00D46DFF838800C4FD8F8000015F8011B74
S2144012003B68984700280ADBA81B013CF4D1BDE8A0
S214401210F0814FF0FF3070471046BDE8F0814FF048
S214401220FF30BDE8F08100BF2C1040203010402039
S21440123010B40B78002B0CBF002204224B780BB165
S21440124042F008028B780BB142F01002CB780BB11B
S21440125042F040020B790BB142F080024B795B03BF
S21440126003F4C0438C7943EA0443CC7943EA0463ED
S21440127013430360184B5A685B68D20E23F07843DA
S21440128043EA02730A7A042A06D8DFE802F0031417
S214401290171C1F0023F40043CA68541E0F4A02EA74
S2144012A0044209690139C1F30A010A431343436002
S2144012B05DF8044B704743F41043EDE723F4805346
S2144012C043F40043E8E743F40053E5E723F0405394
S2144012D023F46043E0E700BF00C004400000FF077F
S2144012E071B1016841F48051016072B9026822F41C
S2144012F0006202608365009B4365019B03657047FF
S214401300016821F480510160EFE7026842F4006210
S2144013100260EFE7436913F0020F04D0C1F30801FF
S214401320C1610020704701207047436913F0010FE8
S21440133005D08369C3F308030B6000207047012083
S21440134070470000514B1B78FF2B00F09D80F0B497
S21440135082B0EFF31083B3FA83F35B09009372B65F
S214401360BFF35F8F00224A4B1A70009C474A13789F
S214401370013313702CB10122454B1A70BFF35F8FB7
S21440138062B68368434A93600023136153620193B5
S214401390414BA3FB01239A0C4FF47A7303FB02F3F1
S2144013A03E4AA2FB03239B08019A934205D9019A21
S2144013B001320192019A9A42F9D3364D01222A60AF
S2144013C04FF0E0440022228002262E6022800192C6
S2144013D0019A9A4205D2019A01320192019A9A42A2
S2144013E0F9D32C4A042414604FF0E04501262E80A1
S2144013F0146002262E80146003262E8014602C80F3
S214401400146005272F80146006272F801460072756
S2144014102F80146008242C801660426852002A44AC
S2144014204CF6FE24148000220192019A9A4205D27C
S214401430019A01320192019A9A42F9D3154A05233C
S214401440136000680223834003F1E04300201880C5
S21440145010604FF0E0431880114BA3FB01139B092B
S2144014600193019943F6095303FB01F30193019B52
S2144014700949A1FB03139B0C0193019BC3F30B0388
S214401480536002B0F0BC7047FEE700BF3410402007
S214401490E70040200040084083DE1B43ABAAAAAAD0
S2144014A0D34D621010B4AC2303600B684A68B3FB9C
S2144014B0F2F31B095C1E4FF6FE72944208D8036294
S2144014C08B6843605023036000205DF8044B7047F0
S2144014D00120FAE7402303607047436913F0020F88
S2144014E002D0C1610020704701207047436913F065
S2144014F0010F03D083690B700020704701207047AE
S214401500704770477047704708B5044B98470020AF
S214401510034B9847034B984708BD00BF91214000B6
S214401520C9214000DD21400010B51048104B9847B7
S2144015303E2100200F4B98470F4CA0470028FCD078
S2144015400E4B98470E4A0F4B9A620F4CA047002806
S214401550FCD002200D4B984700200D4B98470D4B72
S21440156098470248024B984710BD00BF80D1F0080C
S214401570853940000D214000612140007121400026
S214401580013F182000060E40812140007120400097
S214401590A920400079384000014B1878704700BFBA
S2144015A0BC0A402008B5064B9847C378054A1370D6
S2144015B0012B01D0012008BD034B984708BD00BF52
S2144015C089184000BC0A4020AD66400008B5044B70
S2144015D01B78012B00D008BD024B9847FBE700BFA5
S2144015E0BC0A40205942400008B5134B1B7813F004
S2144015F0800F05D103F06003402B0FD0002008BDBC
S21440160003F06003402B01D0002008BD0A4B5B78F6
S2144016100BB1002008BD094B984708BD064B5B78C8
S2144016203BB9054BDB880BB9002008BD044B9847F7
S21440163008BD002008BD00BF3C1040208542400049
S2144016406542400010B582B000920B46024600212B
S2144016508120024CA04702B010BD00BF213440009C
S21440166010B582B000920B46024600210220024C82
S214401670A04702B010BD00BF2134400010B582B074
S21440168000920B46024600218320024CA04702B03F
S21440169010BD00BF2134400010B582B000920B460A
S2144016A0024600210420024CA04702B010BD00BFF5
S2144016B02134400010B582B000920B46024600210D
S2144016C08520024CA04702B010BD00BF2134400028
S2144016D010B582B000920B46024600210620024C0E
S2144016E0A04702B010BD00BF21344000104B1B681D
S2144016F01A6853881A4403781844904211D24378A3
S214401700042B10D08B4209D003781844904206D25E
S2144017104378042B09D08B42F6D107E0704700206F
S214401720704700207047002070470020704700BF79
S214401730CC0A402008B5034B987800F07F00024B57
S214401740984708BD3C1040207D314000194B1B781F
S2144017504BB3194B1B681B681A79824225D970B463
S214401760164A13605C881C44A34220D200250126FA
S21440177007E0124A13600FE01A7813443546A34236
S2144017800CD25A78042AF7D19A788242F4D1DA7881
S2144017908A42F1D1002DECD1012002E0074A1360C5
S2144017A0002070BC70470020704700207047002023
S2144017B0F7E700BFC80A4020CC0A4020D00A4020A5
S2144017C02DE9F84304460021134B9847804610B94C
S2144017D04046BDE8F883114B1B685B6853F824907D
S2144017E0D9F80C309847014620460B4B9847804620
S2144017F00028EDD00A4B1C6805260A4D0A4F314694
S2144018002046A847044610B18078B847F7E7D9F88D
S21440181004309847DCE700BF4D174000CC0A402014
S214401820D00A4020ED164000D13140002DE9F0416D
S2144018308046104B98470346C8B10F4B1C68052698
S2144018400E4D0F4F31462046A847044638B1828891
S214401850C1788078B84703460028F3D107E0094BA3
S2144018601B685B6853F828301B6898470346184641
S214401870BDE8F0814D174000D00A4020ED164000EC
S2144018802D354000CC0A4020014B1868704700BFF9
S214401890D00A402008B5014B984708BD313040007B
S2144018A070B50D4B1B7883B10C4B1B681B681B79BE
S2144018B05BB100240A4E094D2046B0470134E4B2DD
S2144018C02B681B681B79A342F6D80022024B1A707D
S2144018D00122044B1A8070BDC80A4020CC0A402022
S2144018E0C1174000BE0A402038B50D4B1B78B3B137
S2144018F00C4B1B681A6812798AB10024094D06E021
S2144019000134E4B22B681A681279A24207D95B68A0
S21440191053F824301B69002BF2D09847F0E738BDC7
S214401920C80A4020CC0A4020F8B5884B00229A814D
S2144019301A615A611B7813F0800F14D113F0600FB0
S21440194000F0D580814B1B7803F01F03012B00F07D
S2144019506C817E4B1B7803F01F03022B00F0C7817F
S21440196000231846F8BD794AD288002A00F0E8815C
S21440197013F0600FE6D113F01F0306D17349497880
S214401980062914D0082974D051B1012B79D0022BE6
S214401990D8D16E4B5B78002B00F09B80002388E10B
S2144019A0022AD6D102216A486A4B9847BBE0674B69
S2144019B05A88130A013B0E2B00F27881DFE813F0B9
S2144019C00F001D003700760176017601760176011C
S2144019D07601760176017601760176012F005E4B20
S2144019E0186801785B4B9847584BDA889B89934236
S2144019F040F29980554B9A8195E0D2B2564B1B687F
S214401A005B7C9342A5D9544B5B6853F832004188BF
S214401A10504B98474D4B9B6802225A70E4E74E4B1A
S214401A209868002895D041884A4B9847DCE7D2B260
S214401A30012A1BD0AAB1022A84D1484A0A24013A74
S214401A404749002312F8010F21F8020F0133DBB299
S214401A50A342F7D361000231414801703D4B98479D
S214401A60C2E704213F483B4B9847BDE73E4A152412
S214401A70E5E7012A7FF46DAF01213C48354B984796
S214401A8051E0324949780A2981D1012A40F0CD8077
S214401A90364B1B78002B00F0C8802C4B1C79344BFF
S214401AA01D682B681B79A34240F2BF800021204668
S214401AB0304B984700283FF445AF6B6853F82430C6
S214401AC0DB6898472C4B187001211846214B9847E5
S214401AD029E0022A7FF43DAF1C4B1879274B9847E4
S214401AE0274B1880022118461A4B98471BE013F0E4
S214401AF01F0340F08380154A5278013A082A7DD861
S214401B00DFE812F013007C00D6007C0009007C0061
S214401B107C007C0042000D4BDB88002B7FF419AF25
S214401B20184A0A4B1A6101231BE7084BDB88002B37
S214401B307FF40FAF054B5B88012B7FF40AAF044A56
S214401B40138823F002031380EDE700BF3C104020CB
S214401B50BE0A4020C531400020004020DC00402026
S214401B6094004020C0004020C4004020C80A4020C6
S214401B70CC0A40204D174000C40A40202D32400079
S214401B80C00A4020351740006F4BDB88002B7FF49F
S214401B90E0AE6E4B984700283FF4D4AE6A4B9A7836
S214401BA06B4B1B685B7C9A423FF7CCAE694B9847C1
S214401BB0654B9A78684B1A70002AB4D06FF0604331
S214401BC01344634A526802EBC3006449086052F803
S214401BD033301B79002BA6D000242646604D0F4696
S214401BE031462046A84700283FF4ACAE0134E4B264
S214401BF03B681B681B79A342F2D894E7012B0AD0B6
S214401C00022B7FF49FAE504B5B78012B2BD0032BDF
S214401C1039D000234DE04C4A52780B2AF0D14A4B3B
S214401C20DB8813B94C4B1B7873B94B4B1B78002B96
S214401C3000F08880444B1C79484B1D682B681B7904
S214401C40A3423AD800238CE63F4B1C795D88204659
S214401C50444B984700283FF475AEE9B22046404BC7
S214401C609847034625E0384BDB88002B7FF471AE5F
S214401C70354B5B88002B7FF46CAE334B18793A4B70
S214401C809847034615E0304BDB88002B7FF461AE67
S214401C902D4B5B88002B7FF45CAE2B4C2079334B6E
S214401CA098472079324B9847034602E0002300E0ED
S214401CB00023002B7FF455AE44E6002120462D4BF2
S214401CC0984700283FF445AE6B6853F82450EB68BD
S214401CD0984701462046274B984700283FF439AEA0
S214401CE0AB689847034600287FF43BAE31E61A4B74
S214401CF01B780BB3194B1A6813681B79F3B1002491
S214401D001C4E164F536853F82450EB6898470146CC
S214401D102046B047034600283FF423AEAB689847BA
S214401D20034600287FF41DAE0134E4B23A681168D9
S214401D300979A142E6D814E6002312E6002310E60D
S214401D4000230EE600230CE63C104020A531400060
S214401D5020004020A1184000C80A4020CC0A40205D
S214401D602D184000C117400045334000253740003D
S214401D70413240004D1740004264B1F1C05F3AD056
S214401D8013D8B1F1006F25D0B1F1805F0AD1036F4F
S214401D9013430367436F416F0B4023EA02034367D5
S214401DA0426070470029FBD17047B1F1205F21D0D7
S214401DB009D8B1F1005FF3D1036F13430367436F54
S214401DC013434367ECE7B1F1405F13D0B1F1605F76
S214401DD010D0E5E710B4016F046FD34321401C4692
S214401DE019400167436F416F0B4023404367426091
S214401DF05DF8044B7047036F016F0B4023EA020304
S214401E000367436F13434367CAE7416412F0010F09
S214401E100DD1016612F00A0F0BD0016212F0020FCC
S214401E2009D112F0080F08D0C0F8841005E04166CA
S214401E30F0E74162F2E7C0F8801041610160704708
S214401E4010B4019C41644CB901664BB101654AB976
S214401E504163016101605DF8044B70474166F4E7F9
S214401E604165F4E70163F4E7C06C7047806C7047E7
S214401E70054B03EB50135B0200F01F00012202FAF1
S214401E8000F05863704700BF0707200070B582B067
S214401E900D46464C04EB5014640201F0F043B3F197
S214401EA0005F59D00AD8B3F1805F2FD0B3F1C05F3E
S214401EB03FD0B3F1006F16D0002012E0B3F1405F80
S214401EC05DD0B3F1605F5AD0B3F1205FF4D100F03B
S214401ED01F0101262A4606FA01F12046344B984750
S214401EE0304602B070BD00F01F00012686403246E4
S214401EF04FF0006120462F4B984715F0010F02D156
S214401F0026660120EDE766660120EAE700F01F003E
S214401F100126864032464FF080512046254B984752
S214401F2015F0010F02D126660120DAE76666012029
S214401F30D7E700F01F000126864032464FF0C051DA
S214401F4020461C4B984715F0010F02D1266601200B
S214401F50C7E766660120C4E700F01F0001268640FA
S214401F6032464FF000512046124B984715F0010F6D
S214401F7002D126660120B4E766660120B1E705F087
S214401F80605200F01F01012605EA06030093C5F3E0
S214401F908003B2F1605F14BF0022012206FA01F10D
S214401FA02046054CA04730469BE700BF0707200069
S214401FB00B1E4000791D4000411E40002DE9F041B7
S214401FC0044688460E4B9847054620460D4B984794
S214401FD0054013D00C4C04F1600603E0B4420DD02B
S214401FE010345DB120684045F8D161682942F5D08B
S214401FF0E3689847636825EA0305EFE7BDE8F081A4
S214402000691E40006D1E4000D40A402008B50A21D3
S2144020100148024B984708BD000E0E40BD1F4000C9
S21440202008B50B210148024B984708BD00100E40EA
S214402030BD1F400008B50C210148024B984708BD1B
S21440204000120E40BD1F400008B510210148024B4B
S214402050984708BD00140E40BD1F400008B511212A
S2144020600148024B984708BD00160E40BD1F400071
S214402070032811D0042812D002280CBF4FF48071D8
S2144020800021084A136B23F440730B431363936E8B
S21440209013F0080FFBD070474FF44071F1E74FF450
S2144020A00071EEE700060E40174A136B23F07003EC
S2144020B018431063936E13F0080F0AD14FF4006371
S2144020C011498A6E12F0080F03D1013BF9D1012065
S2144020D070470D4A136B23F0030343F00203136368
S2144020E0936E13F0080F0AD14FF4006306498A6EC8
S2144020F012F0080F05D1013BF9D1012070470020AE
S21440210070470020704700BF00060E40A0B90E483A
S214402110036A090289B20D4A1A400D4B134319430C
S21440212001620246936E13F0010FFBD0064A116A15
S214402130084B0B431362704703490B6A064A1A4022
S214402140064B13430B62704700060E40FCFFC8FF69
S2144021500100370000003701FCFFC8FE02003701CF
S214402160024B986E00F48030704700BF00060E4069
S2144021704FF00052014B9A62704700BF00060E4077
S214402180024B986E00F00200704700BF00060E40FB
S2144021904FF44412034BDA611A46936E13F0400F25
S2144021A0FBD0704700060E4000F07F00054BC3F89A
S2144021B00C01D3F80C2142F01022C3F80C21002069
S2144021C0704700BF00060E40000200F4706040F00A
S2144021D00100014B9863704700060E402022014BD9
S2144021E01A60704700060E40034B1A6FC0F3120089
S2144021F010431867704700BF00060E407047000047
S214402200104A136F23F4C00343F480031367116A24
S2144022100D4B0B431362936E13F0080FFBD04FF435
S214402220FA7300BF013BFCD1064A136A13F0080F4D
S214402230FBD0044A136F23F4C00343F480031367B0
S214402240704700BF00060E40040037002DE9F843F3
S214402250431E042B00F20781DFE813F0050005005B
S21440226015001500F600814A136923F00403136134
S21440227001227F4B1A70BFF35F8F62B6BFF34F8F5A
S21440228030BFBDE8F883044603280CBF00204FF457
S2144022900010784B984772B6BFF35F8F0022744B9E
S2144022A01A700122744B1A70744B1F6A1D6B744A65
S2144022B0D2F800809E6A734A3A431A6205F00309D0
S2144022C0B9F1010F40F2898025F0030141F0010188
S2144022D019631A46936E13F0080FFBD011F0700F77
S2144022E008D021F07001654B19631A46936E13F0BF
S2144022F0080FFBD0644B9847604A936E13F4003F38
S214402300FBD05E4A116A614B0B4043F45C13136288
S214402310936E13F4803FFBD028F47063584A1360E2
S214402320042C5CD0524C01232370BFF35F8F62B6FF
S214402330574B984772B6BFF35F8F0023237017F052
S214402340020F55D04D4A136A52491940524B0B431F
S2144023501362116A514B0B4043F45C131362504BAB
S2144023603340002B6ED046F00056444B9E6202210E
S214402370B9F1020F04D1414A936E13F0020FFBD01D
S2144023803E4A136B23F0700305F07000034313635B
S214402390936E13F0080FFBD0394BC3F80080A3F5BB
S2144023A0C0631D631A46936E13F0080FFBD0334A82
S2144023B0936E0B42FCD000222F4B1A70394B1B6891
S2144023C01BB198470022374B1A600122284B1A70DF
S2144023D0BFF35F8F62B6BDE8F88329467EE7A2F575
S2144023E0C062116A304B0B4043F45C13136299E7AA
S2144023F017F0010FB3D0214B1B6A13F0010F0BD11E
S2144024001E490B6A294A1A40294B13430B620A4657
S214402410936E13F0010FFBD0184B1B6A13F0807FAE
S21440242008D1164A116A234B0B431362936E13F47A
S214402430803FFBD0114A116A184B0B4043F45C13A3
S21440244013628CE7002193E7084A136943F00403BC
S2144024501361194A194B1A600122054B1A70BFF3D3
S2144024605F8F62B630BFBDE8F88300BF00ED00E086
S214402470E7004020FD214000440B402000060E406F
S214402480000C0E400800370071214000FFFFC8FED8
S21440249001224000FCFFC8FE0200370187FFC8FF4C
S2144024A00000FF07480B4020FEFFC8FFFCFFC8FFA8
S2144024B00100370000003701040000A510180E4048
S2144024C0024B187880F00100704700BF440B402054
S2144024D082B0014628BB244B1B781BB9224B19708F
S2144024E002B07047214B9B7803B9FEE7EFF31083A9
S2144024F0B3FA83F35B09009372B6BFF35F8F002293
S2144025001B4B1A700098194A9378013B9370002829
S214402510E4D00122164B1A70BFF35F8F62B6DDE738
S214402520FEE7114B1B78002BD8D1104B9B78FF2B26
S214402530F6D0EFF31083B3FA83F35B09019372B6D8
S214402540BFF35F8F00220A4B1A700198074A9378B0
S214402550013393700028C1D00122054B1A70BFF397
S2144025605F8F62B6BAE700BF4D0B40203410402064
S214402570E700402082B0EFF31083B3FA83F35B09A1
S214402580019372B6BFF35F8F00220C4B1A70019B0B
S21440259001210B4A116023B1084B1970BFF35F8FBE
S2144025A062B60222074B1A60074A00231361536142
S2144025B09381064A137002B0704700BFE700402080
S2144025C020820340608103403C104020540B402052
S2144025D00522034B1A704FF40022024B1A607047D4
S2144025E0540B4020F081034082B003220F4B1A70F8
S2144025F0EFF31083B3FA83F35B09019372B6BFF32C
S2144026005F8F00220A4B1A7001980A4901220A601D
S214402610094B1A6008220A601A6028B10122044B4E
S2144026201A70BFF35F8F62B602B07047540B4020FB
S214402630E700402060810340F081034008B5024B2C
S2144026401B6903B1984708BD3C10402030B585B0A3
S214402650EFF31083B3FA83F35B09019372B6BFF3CB
S2144026605F8F00224F4B1A70019B01214E4A11602A
S21440267023B14C4B1970BFF35F8F62B64B4B1B7840
S214402680032B5DD04A4B1B884A4A9489E41AA4B26D
S214402690C4B9494A11880B449BB21380454AD28834
S2144026A09A4252D0454B1B78002B4ED1414B5B692A
S2144026B0002B67D09847002864D000223C4B1A80F5
S2144026C03C4B9C893F2C5DD900223C4B1A704024E1
S2144026D0384B9968364B1888EFF31083B3FA83F378
S2144026E05B09029372B6BFF35F8F00222D4B1A70C0
S2144026F0029D334B1B6813F0020F47D154B101447F
S2144027003048431C0A78D2B2027018460131DBB218
S214402710A342F6D3264B1A8814441C80BFF34F8F2F
S214402720BFF36F8F0123284A136090321360002D49
S21440273036D01A461B4B1A70BFF35F8F62B62FE037
S214402740224B9847224B98472AE00422174B1A7090
S214402750EFF31083B3FA83F35B09039372B6BFF3C8
S2144027605F8F00220F4B1A70039A102316490B6096
S21440277090310B60A2B101220A4B1A70BFF35F8FF3
S21440278062B60DE001220D4B1A70A1E72DB1012271
S214402790044B1A70BFF35F8F62B60422034B1A7065
S2144027A005B030BDE700402020820340540B402057
S2144027B0500B40203C104020520B40204C0B4020F9
S2144027C030810340000010A0608103403D26400059
S2144027D075254000037D13F0010F13D010B50C464D
S2144027E0037D6FF300030375036853B1064951F840
S2144027F0221011F4807F18BF42F080028168204684
S214402800984710BD704700BF00810340431E03EB4E
S21440281043015F4A02EBC102127D12F0010F00F045
S214402820B680F0B583B00A46594901EBC202D1687A
S2144028309268914278D0521AB2F5803F1BD817045E
S214402840544C54F8205015F4807F18D054F820503B
S214402850C5F302150824AC40013C144217D047F09B
S214402860080703EB43044A4D05EBC404257D6FF38C
S214402870410525750BE04FF480320027E0E754F819
S2144028802050C5F3C125012D37D047F01407424CE0
S21440289004EB001403EB43053D4E06EBC5056D689F
S2144028A029446160EFF31081B1FA81F14909019141
S2144028B072B6BFF35F8F002538490D70019DE16801
S2144028C011F0100F22D147F02107A76003EB430019
S2144028D006EBC001C8681044C8600A614FF000703B
S2144028E000FA03F32E4A9361002D4ED001222B4B63
S2144028F01A70BFF35F8F62B647E054F82050C5F3B6
S21440290002150824AC40A242C1D8BEE72DB1012131
S214402910224A1170BFF35F8F62B603EB43021C4935
S21440292001EBC202D16891601A4A52F8202012F494
S214402930807F21D003EB4302154901EBC202127D92
S21440294012F0020F18D00122164B43F82020303BDD
S21440295053F8203013F4803F02D0134B43F8202026
S2144029600122124B43F820204FF4805202FA00F026
S214402970A3F5F873986108E0024603EB4303002191
S214402980034800EBC3000A4B984703B0F0BD7047BE
S214402990580B40200081034000830340E70040205E
S2144029A0008003406081034090810340F0810340F3
S2144029B0D52740002DE9F04385B0874B984720B98E
S2144029C0864B5B6813F0010F11D0844B5B6813F0A5
S2144029D0040F16D0814B04229A60D3F8043813F4BF
S2144029E0405F0BD07E4B984705B0BDE8F08372B68B
S2144029F0BFF35F8F00227B4B1A70F5E77A4B984700
S214402A00F0E7764B5B6813F0020F33D1734B5B688D
S214402A1013F4805F26D0754B10221A6008221A6085
S214402A20F03B1B6813F0040F2AD1714B1B6813F060
S214402A30010F05D06F4B1B6813F0010F40F08B80E1
S214402A406B4B1B6813F0020F40F08880684B1B6886
S214402A5013F0080F40F03581654B1B6813F0100FDC
S214402A6040F04281644E01235C4A4FF0007E4FF4B2
S214402A70805C84E10222594B9A605B4B9847B3E7EF
S214402A805E4B1B78002B47D1594B1B68C3F30A5348
S214402A90082B46D1564B1868C0F30A5048B1584BDD
S214402AA0584C5A1C1978DBB219551346D2B282429A
S214402AB0F7D3554B9847002839D00422534B1A6019
S214402AC0504B93F90030002B37DB4E4BDB88002B06
S214402AD03ED000224E4B1A804E4B1A800121474B67
S214402AE019701021494B1960EFF31083B3FA83F342
S214402AF05B09019372B6BFF35F8F3A4B1A70019B26
S214402B00454A1160002B3FF46FAF0122354B1A70D7
S214402B10BFF35F8F62B667E7404B9847404B984796
S214402B20B2E7404B98470422384B1A605CE73D4B6F
S214402B3098470422354B1A6056E70023344A1380E0
S214402B40344A138002222D4B1A70374B98474BE776
S214402B50364B984748E7344B984745E7274B1B7812
S214402B60012B0BD0022B04D0042B02D02D4B9847C0
S214402B7001E02A4B98472A4B984735E71C4B186884
S214402B80C0F30A501F4B9B89224A1488221893424E
S214402B9001DA1B1B98B21B4B9968214478B1184A3E
S214402BA0531C1278D2B20A7001311A46DBB2834205
S214402BB0F6D30444A4B2174B1C80402838D0114B9F
S214402BC09C815B6913B1984700285AD002220F4B6C
S214402BD01A60164B984707E7C12440000080034020
S214402BE039424000E7004020E91840002082034078
S214402BF030810340C081034034810340540B402061
S214402C00000010A03C10402029194000608103407D
S214402C10520B4020500B4020F08103403D264000A0
S214402C2075254000D12540004D264000E92540004E
S214402C30A84BDA88A84B1B8823449A42BFDDA54B95
S214402C409B89A34223D0A54B02221A6010221A6009
S214402C50EFF31083B3FA83F35B09029372B6BFF3C4
S214402C605F8F00219E4B1970029B9E490A60002B85
S214402C703FF4BAAE01229A4B1A70BFF35F8F62B62A
S214402C80B2E6994B98470222944B1A60ACE6914BB9
S214402C905B6953B1984770B18F49944A0B88108846
S214402CA003440B8000231380CDE78F4B98470222C6
S214402CB08A4B1A6098E68C4B98470222874B1A60DC
S214402CC092E60822854B1A60303B1B6813F0010FD2
S214402CD07FF48AAE864B1B78032B7FF485AE4FF489
S214402CE00022804B1A607FE610227C4B1A60303BF5
S214402CF01B6813F0020F7FF477AE7D4B1B78012BD9
S214402D0007D0042B7FF470AE4FF40022754B1A6048
S214402D106AE6784B984767E6774B03EB0013DA682A
S214402D2012F0010F7FF460AE744A5161DB681B0CF1
S214402D3008D0734A7C00E51902EBC505E968CB1A52
S214402D40EB60AB606F4B98474EE66F4B012249F8FD
S214402D500320624949F801204FF4804249F8032095
S214402D6007EB470702460021654800EBC700674B64
S214402D70984739E601330436072B00F0D580D8B2A1
S214402D801D465F1EB84614690EFA07F10C4202D083
S214402D9054682142C0D111690CFA05F52942E9D0A0
S214402DA04FEA830906F19004D6F8901011F0010F0F
S214402DB003D0316811F0010FC7D1216811F4805F4C
S214402DC0D8D0316811F4405FD4D14FF480524E4B86
S214402DD049F80320A3F508735D6108EB4808484BA3
S214402DE003EBC80898F814206FF3820288F8142082
S214402DF0474A59F8023023F4007349F80230394BF9
S214402E004FF4002249F803204FF4802249F803206B
S214402E10EAE50822394B9A60394D002401273B4E9B
S214402E200134E4B2224639462846B0471835062CC7
S214402E30F6D1384B9847314B1A6822F07F021A6019
S214402E401A6842F080021A6031490868324A0240E5
S214402E5042F030020A600A6842F002020A60DA690A
S214402E6042F00102DA61EFF31082B2FA82F25209BE
S214402E70039272B6BFF35F8F0021194A117003990F
S214402E80184A04201060022010604FF480529A6165
S214402E9029B10122124B1A70BFF35F8F62B61F4BE7
S214402EA09847A1E5154BD3F8002822F48042C3F892
S214402EB0002801225A6110229A61D3F8002842F471
S214402EC08042C3F800280020154B9847154B98477A
S214402ED08AE500BF3C104020520B402060810340F2
S214402EE0E7004020F0810340D1254000500B4020B1
S214402EF0540B4020E92540000083034000800340F7
S214402F00580B40200D28400020820340D527400023
S214402F1000810340A118400083E6FFFF752540006E
S214402F20D1244000094240001B4B5B6813F0080F59
S214402F307FF46FAF184B1B6913F0010F04D0164B8C
S214402F405B6813F0010FADD1134B1B6913F0100FE4
S214402F503FF44AAD104B5B6813F0100F3FF444AD9E
S214402F600D4AD2F8003823F48043C2F8003813469E
S214402F70D3F8042812F4804F03D15A6812F0010F98
S214402F80F6D0054B10225A6101209861034B9847B2
S214402F90034B984728E500BF00800340D1244000FB
S214402FA02142400030B583B0EFF31083B3FA83F389
S214402FB05B09019372B6BFF35F8F0022194B1A70FC
S214402FC0019C0120184B9847184AD2F8003823F441
S214402FD08043C2F80038D2F8043813F4804FFAD051
S214402FE0124B1A6822F480721A6008259D610121EE
S214402FF0996110229A61042098619D609860022031
S2144030009860D9609A60D3F8002842F48042C3F8AA
S214403010002824B1034B1970BFF35F8F62B603B02C
S21440302030BD00BFE7004020D12440000080034070
S21440303010B582B0EFF31083B3FA83F35B090093C5
S21440304072B6BFF35F8F00223F4B1A70009C22205F
S2144030503E4B98473E4B98473E4BA02283F8222350
S21440306004225A604FF480203B4B98473B4B4FF02E
S2144030700072C3F80028D3F8002842F40042C3F890
S21440308000281A6822F480521A601A6842F4406295
S2144030901A60D3F8002822F48042C3F800281A4663
S2144030A0D2F8043813F4804FFAD000222C4853004C
S2144030B0991800EBC101097D134400EBC30301F0EE
S2144030C0FE016FF3820119750132062AEFD1234AB9
S2144030D0D2F8003843F48043C2F80038214B1B78BE
S2144030E01BBB01221F4B1A7000221F4B1A701F4B2E
S2144030F0DB78FF2B18D0EFF31083B3FA83F35B092A
S214403100019372B6BFF35F8F00220F4B1A7001997E
S214403110164AD3780133D37051B101220A4B1A7044
S214403120BFF35F8F62B603E0FEE70020104B984780
S214403130104B98472CB10122034B1A70BFF35F8F98
S21440314062B602B010BD00BFE7004020A921400093
S2144031500915400000E100E0E921400000800340FE
S214403160580B40204E0B40204D0B40203410402042
S214403170D1244000A52F400000207047084B1A6815
S21440318022F080021A601A6822F07F0200F07F0068
S21440319002431A601A6842F080021A60704700BF05
S2144031A000800340024B186800F07F00704700BF65
S2144031B000800340024B186AC0F3CA00704700BF45
S2144031C000800340014B9860998170473C10402036
S2144031D000F00F02062A00D9704770B51048C36940
S2144031E0012101FA02F423EA0403C36100F580706A
S2144031F050F8223023F0020340F82230561E094C85
S21440320006FA01F5A81904EBC000074B9847354469
S21440321004EBC504237D6FF38203237570BD00BFA6
S21440322000800340580B4020D527400000F00F0098
S214403230024B53F82000C0F3C0407047C0810340A3
S21440324000F00F03062B5DD8364A52F8232012F4BE
S214403250002F59D110B483B0591E01EB4104324AB5
S21440326002EBC402127D12F0040F4FD112F0010F90
S21440327051D1EFF31082B2FA82F25209019272B63D
S214403280BFF35F8F0024294A1470019C10F0800F12
S21440329018D1274951F8232022F4007241F8232000
S2144032A04021244A42F823104FF40021903242F83D
S2144032B02310002C33D001201C4B1870BFF35F8FB7
S2144032C062B624E01C4A52F8232012F4405FE0D055
S2144032D001EB4101144A02EBC1010A7D42F00402AF
S2144032E00A754FF48052154941F8232002FA03F339
S2144032F0134A93618CB101200C4B1870BFF35F8F5B
S21440330062B604E00020704701207047012003B0F9
S2144033105DF8044B70470020F9E70120F7E70120ED
S214403320F5E700BFC0810340580B4020E70040202F
S214403330008103406081034030810340F0810340B8
S2144033400080034000F00F00062851D810B5431EF9
S21440335003EB43012C4A02EBC102127D12F0040F2C
S21440336048D00A46284901EBC202117D6FF382011C
S214403370117582004FF48051244C44F8201081404F
S214403380A4F508746161224951F8201011F4002F09
S21440339014D02049515811F0400F06D040201E4905
S2144033A050504FF48020903150504FF40020174931
S2144033B050501A48115841F40071115003EB430223
S2144033C0114901EBC202127D12F0010F01D101201A
S2144033D010BD08465900CA1800EBC202147D6FF3B0
S2144033E0000414750B4450F833309847012010BD44
S2144033F0002070478200064951F8201011F4002F33
S214403400C7D1012010BD00BF580B4020208203408A
S214403410C081034030810340608103400081034007
S214403420F0B583B000F00F003A4C54F82040062820
S21440343064D8394CE569012484402C4261D0374C2D
S21440344054F8204014F4002F5DD1441E04EB44068B
S214403450334D05EBC6052D7D15F0040F55D1EFF322
S2144034601085B5FA85F56D09019572B6BFF35F8F85
S21440347000262C4D2E70019F04EB4405284E06EB8B
S214403480C5052D7D15F0010F09D0002F3FD0012234
S214403490244B1A70BFF35F8F62B600202FE004EB18
S2144034A044051F4E06EBC5052E7D46F001062E75DB
S2144034B02FB101261B4D2E70BFF35F8F62B6184D9D
S2144034C066003719FF0005EB070ECEF80420CEF84D
S2144034D008300022CEF80C20CEF81020089AEA5188
S2144034E0002B08BF41F001019EF8143061F3410300
S2144034F08EF814300C4B9847012000E0002003B0B3
S214403500F0BD0020FBE70020F9E70020F7E70020A9
S214403510F5E700BF0081034000800340C0810340C0
S214403520580B4020E70040200D2840002DE9F04F82
S21440353083B000F00F04062C00F2DF80734BDD6989
S2144035400123A3402B4040F0DD8001F00305022D0F
S21440355005D0032D20D0012D1ED00023CEE04FF005
S214403560010E6B4E06EB840556F824C0694F0CEAF4
S2144035700707C90201F4C05140B20028B8BF4FF453
S2144035808073A2F5806080B2B0F57C4F07D3082ADE
S21440359024D95200013A04E04FF0000EE1E740F231
S2144035A0FF72B2FA82F241EA8E010B43C2F11C026C
S2144035B043EA021323F4D06323F00303DB04DB0C5B
S2144035C03B4346F824300127A740BFB2052C1CD801
S2144035D0514A06234D484FF0010E06E00F22E0E721
S2144035E0013B043AD9B28C420FD2C6690EFA03F1B7
S2144035F00E42F5D00F43BFB2C66926EA0101C1614B
S214403600116821F002011160EAE704EB4403434EDF
S21440361006EBC306DFF80491DFF8F080DFF800A180
S2144036201DE001EB41033D4A52F83340002C6BD07D
S2144036302B6813F4807F18BF40F0800001EB4101F7
S214403640364B03EBC1010246C9680120A047002360
S21440365054E0013404351836E3B2062B4BD8E0B2BA
S21440366047FA04F313F0010FF3D0611E01EB410358
S21440367009EBC30393F814E00EF001026FF3000E5B
S21440368083F814E02B6843F002032B60D8F81CE064
S2144036900123A34043EA0E03C8F81C302B6B13F4F7
S2144036A0802FBED02B6843F400732B60002AD0D006
S2144036B056F80C3C56F8082C9A1A46F80C2C2B68F0
S2144036C013F4807F18BF40F0800056F810BC56F8C0
S2144036D014CC01EB410109EBC101097D56F8183CB9
S2144036E00093ABEB02036244C1F34001D04703466C
S2144036F00028AED102E0012300E00023184603B0C4
S214403700BDE8F08F0023F9E70023F7E70080034089
S2144037100081034083E6FFFF18810340580B40209A
S2144037202134400070B500F00F02541E4FF0007375
S214403730A34018494B61184B03EB021300259D60CC
S2144037404FF4805393404B61BFF34F8FBFF36F8F5F
S21440375010F0800F08D104EB440401210F4800EB21
S214403760C4000F4B984770BD93000E4818440E4D4A
S2144037701D444FF4005601F5E071194404E02E60F4
S2144037800B6813F4005FFBD1036813F4405FF6D177
S214403790E1E700BF0080034000830340580B402011
S2144037A0D527400030810340F0810340FEE700000B
S2144037B000B583B0254B264A9A4210D0254B234A63
S2144037C09A420CD2013B9B1A23F003030433134462
S2144037D01F4951F8040B42F8040B9A42F9D11E4B8C
S2144037E01E4A9A420AD2013B9B1A23F00303043333
S2144037F01344002142F8041B9342FBD1184A194B4C
S21440380023F07F039360EFF31083B3FA83F35B09EF
S214403810019372B6BFF35F8F0022134B1A70019963
S214403820124A136843F470031360BFF34F8FBFF31D
S2144038306F8F29B101220C4B1A70BFF35F8F62B6AF
S2144038400B4B98470B4B9847FEE700BF00004020C5
S21440385008B14000A00A402048214020A00A40204D
S21440386000ED00E000004000E700402088ED00E06A
S21440387061794000957440003B4B1B6B03F003039B
S214403880012B1DD083B1022B36D0374B1B6B03F078
S2144038907003702B5FD0344B1A6B3449C2F302125C
S2144038A00B68D3400B607047314B5B6913F0800F59
S2144038B014BF4FF400424FF4FA422C4B1A60E4E730
S2144038C0294B1B6A13F0807F03D02A4A274B1A6085
S2144038D0DBE7294A254B1A60234B1B6A03F070032B
S2144038E0102B05D0202BD0D1224A204B1A60CCE793
S2144038F0224A1E4B1A60C8E71B4B1B6A13F0807F98
S21440390016D01C4A194B1A60174B1B6B03F0030367
S214403910022BBAD1144A916A926A1448C1F30A41FA
S214403920036801FB0333D2B2B3FBF2F30360ACE7A8
S214403930114A0E4B1A600C4B1B6A03F07003102B97
S21440394005D0202BE0D10B4A084B1A60DCE70B4A27
S214403950064B1A60D8E7054A13680949A1FB0313CA
S2144039605B081360704700BF00060E40E80040202A
S21440397010180E40001BB70000093D0000127A00E8
S214403980ABAAAAAA164B984213D9164B984215D9F9
S214403990154B984216D9154B984217D9144B984256
S2144039A018D9144B984294BF134A144A144B1A60C1
S2144039B070474FF08062124B1A607047114A104BA6
S2144039C01A607047104A0E4B1A6070470F4A0C4BED
S2144039D01A6070474FF00422094B1A60704700BFC8
S2144039E0BFF35E017FE7BD023FDB1C04FFCE7B05D5
S2144039F0BFC2DA067FB63908000500040006000498
S214403A00000C0E4000010004000200040003000405
S214403A100A4B1B6853B1094B1B681A180849914258
S214403A2008DB1046054A106018467047054A034BA7
S214403A301A60F0E74FF0FF30704700BFE80B4020B9
S214403A40FCFF4520484340204FF0FF3070474FF47E
S214403A5000534B600020704701207047002070479D
S214403A60F0B51B4BD3F88070C7F34E3607F007000F
S214403A700430C7F3C907B7FA87FE0EF01F0EBFF330
S214403A804F8F4FF0FF3404FA00FC06FA00F004FAB9
S214403A900EF407FA0EFE1D463A46734643EA000108
S214403AA0C5F86012013A2344B2F1FF3FF6D1013E19
S214403AB06044B6F1FF3FEFD1BFF34F8F044A5369DE
S214403AC043F480335361BFF34F8FBFF36F8FF0BD26
S214403AD000ED00E0F0B51A4BD3F88070C7F34E36D1
S214403AE007F007000430C7F3C907B7FA87FE0EF0A1
S214403AF01F0EBFF34F8F5A6922F480325A614FF03F
S214403B00FF3404FA00FC06FA00F004FA0EF407FA52
S214403B100EFE1D463A46734643EA0001C5F8741247
S214403B20013A2344B2F1FF3FF6D1013E6044B6F17C
S214403B30FF3FEFD1BFF34F8FBFF36F8FF0BD00BF96
S214403B4000ED00E0F0B5184BD3F88070C7F34E3662
S214403B5007F007000430C7F3C907B7FA87FE0EF030
S214403B601F0EBFF34F8F4FF0FF3404FA00FC06FAE7
S214403B7000F004FA0EF407FA0EFE1D463A46734667
S214403B8043EA0001C5F87412013A2344B2F1FF3FFC
S214403B90F6D1013E6044B6F1FF3FEFD1BFF34F8F01
S214403BA0BFF36F8FF0BD00BF00ED00E010B48C4B4C
S214403BB0984231DDA0F5AF30A0F5C870092442F236
S214403BC02731884271DDA0F50C5028380922B0F51F
S214403BD0617FC0F2AB80A0F561700923592800F3DD
S214403BE0DB804F2800F3E580452800F3E5803B283E
S214403BF000F3E580312800F3E580272800F3E580D0
S214403C001D2800F3E580132800F3E580092840F3DB
S214403C10E5800A380121C1E0724B984204DDA0F5E8
S214403C209C3080380824CAE76F4B984205DDA0F5E3
S214403C308830A0F5B8700724C1E74EF65F23984257
S214403C4004DDA0F56A4060380624B8E74CF24F33EE
S214403C50984204DDA0F5434050380524AFE749F6C6
S214403C603F43984204DDA0F51C4040380424A6E7B4
S214403C7047F22F53984204DDA0F5EA40303803243B
S214403C809DE744F61F63984204DDA0F59C4020382B
S214403C90022494E742F20F73984204DDA0F51C50CC
S214403CA0103801248BE7002489E7B0F5FA5F03DB80
S214403CB0A0F5FA5008228AE741F65733984204DDC9
S214403CC0A0F5DA501838072281E741F26F73984220
S214403CD004DDA0F5BB501038062278E741F2873362
S214403CE0984204DDA0F59C50083805226FE7B0F5F1
S214403CF07A6F03DBA0F57A60042268E740F6B733B4
S214403D00984203DDA0F6B830032260E7B0F5FA6FBC
S214403D1003DBA0F5FA60022259E7B0F57A7F03DBB1
S214403D20A0F57A70012252E7002250E7B0F5487FAE
S214403D3003DBA0F54870082350E7B0F52F7F03DB80
S214403D40A0F52F70072349E7B0F5167F03DBA0F5F3
S214403D501670062342E7B0F5FA7F03DBA0F5FA704B
S214403D6005233BE7B0F5C87F03DBA0F5C870042306
S214403D7034E7B0F5967F03DBA0F5967003232DE776
S214403D80C72802DDC838022328E7632802DD6438E6
S214403D90012323E7002321E75A38092102EB0412C6
S214403DA003EB021301EB031300EB03105DF8044B27
S214403DB0704750380821F1E746380721EEE73C388F
S214403DC00621EBE732380521E8E728380421E5E705
S214403DD01E380321E2E714380221DFE70021DDE741
S214403DE08F5F01007F3801006F110100F0B583B08E
S214403DF005460C46002301932A4B984213D02A4B83
S214403E00984218D0294B98421DD0294B9D4222D02B
S214403E10284B9D4227D0284B9D422ED0274B9D4273
S214403E2035D003B0F0BD1F46254E21463846B04734
S214403E300028FAD1E9E71F46214E21463846B047CA
S214403E400028FAD1E4E71F461D4E21463846B047C3
S214403E500028FAD1DFE71F46194E21463846B047BC
S214403E600028FAD1DAE71E46164D01A93046A84783
S214403E700028FAD1019B2370D3E71E46114D01A9B5
S214403E803046A8470028FAD1019B2370C9E71E4652
S214403E900C4D01A93046A8470028FAD1019B237053
S214403EA0BFE700BF00080E40000A0E40001A0E4052
S214403EB0001C0E40004002400080024000C002400D
S214403EC0ED1440002B13400070B50C462A4B984228
S214403ED013D02A4B984219D0294B98421FD0294BD1
S214403EE0984225D0284B98422BD0284B984231D028
S214403EF0274B984237D0002070BD1E46254D2146A0
S214403F003046A8470028FAD1012070BD1E46214DF4
S214403F1021463046A8470028FAD1012070BD1E46EB
S214403F201C4D21463046A8470028FAD1012070BDD6
S214403F301E46184D21463046A8470028FAD1012093
S214403F4070BD1E46144D21463046A8470028FAD17B
S214403F50012070BD1E46104D21463046A847002819
S214403F60FAD1012070BD1E460B4D21463046A8476B
S214403F700028FAD1012070BD00080E40000A0E400D
S214403F80001A0E40001C0E400040024000800240D6
S214403F9000C00240DB1440001513400000B17047DB
S214403FA010B584B00A4C0B4A20460B4B9847A37872
S214403FB062782178A0790390607902902079019008
S214403FC0E07800900548064CA04704B010BD00BFFE
S214403FD0F40B4020156640004516400000AE4000F9
S214403FE0B179400000B1704710B586B00B4C0C4A12
S214403FF0142120460B4B9847A37862782178E079C5
S2144040000490A07903906079029020790190E0783E
S21440401000900548054CA04706B010BDEC20402057
S21440402031404000991640007CAD4000B1794000D8
S21440403000B1704710B586B00C4C0D4A0D4920684B
S2144040400D4B98472068837842780178C479049469
S214404050847903944479029404790194C07800905A
S2144040600648074CA04706B010BD00BFEC004020F5
S214404070E53F400000983A007D164000A8AD40005D
S214404080B179400008B50020014B984708BD00BFF5
S2144040900515400020BB10B50C46A1B9114A13784F
S2144040A0B3FA83F35B0913700F4C04EB43240F4BB6
S2144040B0984700280E4A14BF40214FF4807120468E
S2144040C00C4B984710BD01200B4B9847054B187872
S2144040D00A4A2146044B03EB4020094B9847DDE74C
S2144040E0704700BFF10B4020F40B40207931400070
S2144040F095404000D11640000515400085404000E0
S214404100B51640002DE9F04786B0254B4FF080426B
S2144041101A66C3F890205A655A62C3F88020196F11
S21440412021F080411967596F21F0804159675A60E4
S2144041302D201C4DA8471C4C1C4B1C601C4A1D4B7C
S2144041401A601D4A1D4B1A60DFF87C80CDF800804F
S2144041504FF4165701974FF4006602962D20A84755
S21440416069462046164DA847DFF860A0DAF80030CA
S21440417000219868DFF85890C847DAF800300021E8
S2144041805868C84720460F4B9847CDF80C80049790
S214404190059603A92046A84706B0BDE8F08700BFAD
S2144041A000140E40A9214000001C0E403010402054
S2144041B0C93E40002C104020ED3D400028104020D5
S2144041C0A5144000D514400080D1F008F0004020EF
S2144041D0A97B40000B4B9A6A5B6B12F4003F0FD0F2
S2144041E013F4003F0CD0074BDA6B42F00202DA635E
S2144041F04FF4003119639A6B42F002029A63D96217
S214404200704700BF00C0044008B5034B98470122E2
S214404210024B1A7008BD00BF01154000EC0B402051
S21440422008B5034B98470222024B1A7008BD00BFE0
S21440423003154000ED0B402008B5044B1B7803B92E
S21440424008BD034B9847034B9847F9E7F00B4020CF
S214404250B5314000071540000022014B1A707047E8
S214404260F00B4020054B064A9A60DA88B2F5806F1C
S21440427028BF4FF480629A81012070473C1040204E
S214404280F40B4020054B064A9A60DA88B2F5806FF8
S21440429028BF4FF480629A81012070473C1040202E
S2144042A0F40B4020F8B5064D6C1E7735054F064E8C
S2144042B014F8011F3846B047AC42F9D1F8BD00BFEC
S2144042C0F40B402068AF4000B1794000F8B5044692
S2144042D010F0800F40F086800122524B5A6340F225
S2144042E02A30514FB847514D08266E6340F22A3067
S2144042F0B8472E6314F0400F78D10122494B5A63D9
S21440430040F22A30484FB847484D08266E6340F280
S2144043102A30B8472E6314F0200F6BD10122414B50
S2144043205A6340F22A30404FB847404D08266E63E5
S21440433040F22A30B8472E6314F0100F5ED10122A7
S214404340384B5A6340F22A30374FB847374D082625
S2144043506E6340F22A30B8472E6314F0080F51D1EE
S2144043600122304B5A6340F22A302F4FB8472F4D28
S21440437008266E6340F22A30B8472E6314F0040FC6
S21440438044D10122274B5A6340F22A30264FB84781
S214404390264D08266E6340F22A30B8472E6314F046
S2144043A0020F37D101221F4B5A6340F22A301E4F6C
S2144043B0B8471E4D08266E6340F22A30B8472E6333
S2144043C014F0010F2AD00122164B1A6340F22A300D
S2144043D0154EB047154C0825656340F22A30B04765
S2144043E02563F8BD01220F4B1A6378E701220D4B77
S2144043F01A6385E701220B4B1A6392E70122094BA9
S2144044001A639FE70122074B1A63ACE70122054B6C
S2144044101A63B9E70122034B1A63C6E70122014B30
S2144044205A63D3E700100E400100402000140E40AF
S214404430F8B5484C0825256340F22A30464B984745
S2144044406563464BDC6B04F00104E40140F22A301D
S214404450414FB8473F4D08262E6340F22A30B847B2
S2144044606E633E4BDB6B13F0010F18BF44F0400405
S21440447040F22A30384FB847364D08262E6340F271
S2144044802A30B8476E63354BDB6B13F0010F18BF0D
S21440449044F0200440F22A302F4FB8472D4D0826CE
S2144044A02E6340F22A30B8476E632C4BDB6B13F01A
S2144044B0010F18BF44F0100440F22A30264FB84788
S2144044C0244D08262E6340F22A30B8476E63234BAD
S2144044D0DB6B13F0010F18BF344340F22A301E4FF7
S2144044E0B8471C4D08262E6340F22A30B8476E6304
S2144044F01A4BDB6B13F0010F18BF44F0040440F274
S2144045002A30154FB847134D08262E6340F22A30FE
S214404510B8476E63114BDB6B13F0010F18BF44F0C6
S214404520020440F22A300C4FB8470A4D08262E6344
S21440453040F22A30B8476E63084BDB6B13F0010F2E
S21440454018BF44F0010440F22A30034B98472046F7
S214404550F8BD00BF00140E400100402000100E4081
S214404560002920DDF0B5054647184FF6FF704FF09E
S214404570800E41F2210611E0490810F4004F14BFA6
S21440458083EA06001846013A06D043009BB2214211
S214404590F2D001339BB2EFE7BD4213D015F8014B82
S2144045A008227146F1E74FF6FF70102341F22102D0
S2144045B010F4004F4FEA400080B218BF5040013B15
S2144045C0F6D17047102341F2210210F4004F4FEA13
S2144045D0400080B218BF5040013BF6D1F0BD00000D
S2144045E02DE9F04F9BB00B20974CA0471020A047DA
S2144045F0964B08221A61C3F8A0201A6394490120FA
S2144046004861C1F8A0005A6341F6A250914B9847C2
S2144046100DF12F0412AE904DA84704F8010FA642A4
S214404620FAD10822894B1A638C4A03F58A631A60CA
S21440463017210CA88A4B98479DF84720C0F30F23B4
S2144046409A4204D19DF84830C0B283422ED07F4B68
S21440465008221A61C3F8A0201A637D4C0125256103
S214404660C4F8A05062207F4B98476561C4F8A050BC
S2144046707D4B98477D487E4B9847744B08221A617D
S214404680C3F8A0201A63A3F5806301221A61C3F819
S214404690A0205A61C3F8A020764C704D256076481D
S2144046A06C4B984725601BB0BDE8F08F674B0822DF
S2144046B01A61C3F8A0201A63654C01252561C4F829
S2144046C0A0504720674B98476561C4F8A0509DF8B6
S2144046D039300393DFF8C8A19DF83A30CAF8003065
S2144046E0DFF8C0B19DF83B30CBF80030DFF8B8813A
S2144046F09DF83C30C8F80030DFF8B0919DF83D306A
S214404700C9F800309DF83E305C4A13600C204E4B92
S21440471098475B4B04225A61C3F8A0205A66C3F8F8
S21440472090205A655A62C3F880201A6F22F004021D
S2144047301A675A6F22F004025A6704F500744FF461
S21440474000532361C4F8A0304FF480662661C4F855
S214404750A060236326634B483E4FB8474A4B984772
S2144047604A48B8476661C4F8A0606666C4F8906078
S21440477066656662C4F88060236F23F480632367AF
S214404780636F23F48063636700268DF814604FF0F0
S21440479002028DF815208DF816608DF81760374A9E
S2144047A010683B4CA0478DF81800D9F80000A04789
S2144047B08DF81900D8F80000A0478DF81A00DBF8ED
S2144047C00000A0478DF81B004FF002028DF81C2019
S2144047D0DAF80000A0478DF81D000398A0478DF832
S2144047E01E0080238DF81F308DF820308DF8213044
S2144047F08DF822308DF823308DF824608DF82560B2
S214404800122105A8234CA0471E48B8478DF81450DF
S21440481030238DF81530022105A8A047124B984743
S214404820DBF80030DAF80020D9F800100191D8F80B
S21440483000100091039918480D4CA047074A0D4BAD
S2144048401A601648B84718E7A921400000140E40E1
S21440485000100E400100402031444000010000A5F9
S21440486061454000CD424000054140008CAC4000D0
S214404870B179400050180E406BAF030394104020AF
S214404880000E0E4049569A00CD0E4000B6D7810124
S214404890AD3B4000F90F4000A4AC4000D65E070692
S2144048A06410402084104020DC184020B01840207F
S2144048B0F0B583B01020394B9847394B40221A61E7
S2144048C0C3F8A0205A6303F580634FF40071196162
S2144048D0C3F8A0104FF480721A61C3F8A020196381
S2144048E01A633048304B984702A8F52300F8043D39
S2144048F001212E4B984700238DF804308DF8053063
S2144049008DF8063064242A4D2A4F274E032101A8ED
S214404910A84728B93846B047631E13F0FF04F5D1C0
S2144049209DF804309DF80540A40904EB8304224812
S2144049301D4B9847214B4FF480715961C3F8A01026
S2144049404FF400725A61C3F8A0205966C3F890101D
S21440495059655962C3F88010196F21F48071196740
S214404960596F21F4807159675A66C3F890205A658A
S2144049705A62C3F880201A6F22F400721A675A6F80
S21440498022F400725A67A3F5806340221A61C3F886
S214404990A0201A63204603B0F0BD00BFA921400006
S2144049A0000E0E40086F0F0001004020D90C40005A
S2144049B0F50D40001B8B01003516030000120E401B
S2144049C0F0B5040C80B20E0C89B201FB00F701FB77
S2144049D004F106FB00F08DB205EB174515FA80F59D
S2144049E04FEA054E1EFA87F71F60000C00EB114099
S2144049F006FB040000EB15401060F0BD2DE9F04FBB
S214404A008FB01020B84B9847DFF804B34023CBF85C
S214404A101030CBF8A030CBF83430B44C4FF400789C
S214404A20C4F81080C4F8A0804FF48079C4F8109081
S214404A30C4F8A090C4F83080C4F83090AC48AD4D6F
S214404A40A8470EAB1A461E2302F8183D012192468F
S214404A501046A94FB847A948A847A2238DF820304A
S214404A6001215046B84700268DF820608DF8216019
S214404A700221CDF800A05046DFF898A2D0479DF816
S214404A8020309DF8211001EB03230193A4238DF8D9
S214404A90203001210098B8478DF820608DF82160BD
S214404AA002210098D0479DF820209DF8213003EB46
S214404AB002230293A6238DF8203001210098B847A0
S214404AC08DF820608DF8216002210098D0479DF82F
S214404AD020209DF8213003EB02230393A8238DF872
S214404AE0203001210098B8478DF820608DF821606D
S214404AF002210098D0479DF820209DF8213003EBF6
S214404B0002230493AA238DF8203001210098B84749
S214404B108DF820608DF8216002210098D0479DF8DE
S214404B2020209DF8213003EB02230593AC238DF81B
S214404B30203001210098B8478DF820608DF821601C
S214404B4002210098D0479DF820209DF8213003EBA5
S214404B500221069148238DF8203001210098B8475D
S214404B606748A8478DF8206001210098B8478DF81F
S214404B7020608DF821608DF8226003210098D04790
S214404B809DF820209DF821301B0203EB02439DF840
S214404B9022209918079158238DF82030012100983B
S214404BA0B8475748A8478DF820600121009D284601
S214404BB0B8478DF820608DF821608DF8226003217B
S214404BC02846D0479DF820309DF821502D0205EB11
S214404BD003459DF822302B44C4F81490C4F8A090A6
S214404BE0C4F81480C4F8A080C4F86490C4F89090C8
S214404BF0C4F85490C4F82490C4F88090226F22F4ED
S214404C0080722267626F22F480726267C4F86480A2
S214404C10C4F89080C4F85480C4F82480C4F88080D7
S214404C20226F22F400722267626F22F4007262677B
S214404C304021CBF81010CBF8A010CBF83010059AD6
S214404C401502AB4268D8ED1A0CAB0DAA0699284659
S214404C502C4CA0470D9C64020C9804EBD054C4F531
S214404C60FA640CAB0DAA29460498DFF89880C04732
S214404C700D9F7E060C9B06EBD3160CAB0DAA294661
S214404C800398C0470D990B060C9A03EB1223C3F307
S214404C900E00090A019AA2EB4141A1EBD3310CABBD
S214404CA00DAA00EBC1310798C0470D9BDB020C9A5A
S214404CB003EB5253B2B29B1AFF09029AA2EB074784
S214404CC0A7EB1646A3EB0643DB0B0F4880FB0420FE
S214404CD0E417C4EBA0000D4EA6FB0323DB0803EB52
S214404CE000400FB0BDE8F08FA921400000120E40F2
S214404CF0086F0F0001004020F909400035160300F8
S214404D00F7F10600C149400067666666CDCCCCCC5C
S214404D10000E0E40150B40005D1B0CAB0DAA06990D
S214404D2028461B4EB0470D9C64020C9804EBD054AA
S214404D3004F5FA640CAB0DAA29460498B0470D9FBB
S214404D407F060C9B07EBD3170CAB0DAA294603989E
S214404D50B0470D9B1B060C9903EB1123C3F30E00C3
S214404D60019A02EBD3310CAB0DAA00EBC131079888
S214404D70B0470D9BDB020C9A03EB5253BAB29B1A18
S214404D80029A02EB1747A3EB0743DB0B9DE700BFF6
S214404D90C149400010B54FF0006154204D4CA0472B
S214404DA04FF000615520A0474FF000615620A047C5
S214404DB04FF000615720A0474FF000615820A047B1
S214404DC04FF000615920A0474FF000615A20A0479D
S214404DD04FF000615B20A0474FF000615C20A04789
S214404DE04FF000615D20A0474FF0C0516D20A047B6
S214404DF04FF000615F20A0474FF0C0511220A047FF
S214404E004FF0C0511420A0474FF0C0510020A0479B
S214404E104FF0C0517720A0474FF0C0516E20A047BA
S214404E204FF000614F20A0474FF0C0517020A04780
S214404E304FF0C0517120A0474FF0C0517D20A04791
S214404E404FF000615220A0474FF0C0516F20A0475E
S214404E504FF000614020A0474FF000614120A0473E
S214404E604FF000614220A0474FF000614320A0472A
S214404E704FF000614420A0474FF000614520A04716
S214404E804FF000614620A0474FF000614720A04702
S214404E904FF000618020A0474FF000618120A0477E
S214404EA04FF000618220A0474FF000618320A0476A
S214404EB04FF000618420A0474FF000618520A04756
S214404EC04FF000610F20A0474FF000611020A04730
S214404ED010BD00BF8D1E40002DE9F04F95B0C34B6E
S214404EE0D3F88060C6F34E3E06F007000430C6F3A3
S214404EF0C906B6FA86F303F01F03BFF34F8F4FF091
S214404F00FF3404FA00FC0EFA00F09C4006FA03F761
S214404F10B64D32463B4643EA0001C5F86012013AB8
S214404F202344B2F1FF3FF6D10EF1FF3E6044BEF19E
S214404F30FF3FEED1BFF34F8FAC4B5A6942F48032FD
S214404F405A61BFF34F8FBFF36F8FD3F88060C6F3BD
S214404F504E3E06F007000430C6F3C906B6FA86F39E
S214404F6003F01F03BFF34F8F4FF0FF3404FA00FCEB
S214404F700EFA00F09C4006FA03F79C4D32463B463C
S214404F8043EA0001C5F87412013A2344B2F1FF3FE8
S214404F90F6D10EF1FF3E6044BEF1FF3FEED1BFF3C7
S214404FA04F8FBFF36F8F924C4FF4000323633E2026
S214404FB0904B9847904B98479048914DA8474FF450
S214404FC080732361C4F8A03023638E498E488F4B8C
S214404FD098478F4A936A43F4807393628D48A847F4
S214404FE08D488E4B9847814BD3F88060C6F34E3E33
S214404FF006F007000430C6F3C906B6FA86F303F097
S2144050001F03BFF34F8F4FF0FF3404FA00FC0EFA35
S21440501000F09C4006FA03F7744D32463B4643EA9E
S2144050200001C5F87412013A2344B2F1FF3FF6D1AD
S2144050300EF1FF3E6044BEF1FF3FEED1BFF34F8F0F
S214405040BFF36F8FDFF838A2DFF83892DFF8388288
S214405050DFF838C2DFF838E2DFF838B2704FFF21A9
S2144050600726E025F8241F200022A7F52F6303F823
S214405070021C03F8011C02335345F8D103F8026CB6
S21440508003F8011C02334B45F8D103F8021C03F821
S214405090015C02334345F8D103F8026C03F8015C27
S2144050A002336345F8D103F8024C03F8010C02338F
S2144050B07345F8D103F8022C03F8010C02335B4524
S2144050C0F8D103F8024C03F8012C0233BB42F8D166
S2144050D0129307F5C8731393129B1297139F03F806
S2144050E0022C03F8012C0233BB42F8D1129F07F57D
S2144050F048670BF5486B0EF5486E0CF5486C08F59E
S214405100486809F548690AF5486A464B9F42ACD15B
S214405110454A464B1A60354BD3F88060C6F34E3E40
S21440512006F007000430C6F3C906B6FA86F303F065
S2144051301F03BFF34F8F4FF0FF3404FA00FC0EFA04
S21440514000F09C4006FA03F7284D32463B4643EAB9
S2144051500001C5F87412013A2344B2F1FF3FF6D17C
S2144051600EF1FF3E6044BEF1FF3FEED1BFF34F8FDE
S214405170BFF36F8F2E4D2F4E2A7831462E48204C47
S214405180A04733782A782D4D2D49097811912D491D
S214405190097810912C4909780F912C4909780E917D
S2144051A02B4909780D912B4909780C912A490978A1
S2144051B00B912A4909780A91294909780991294980
S2144051C0097808912849097807912849097806916D
S2144051D0274909780591274909780491264909788D
S2144051E0039126490978029156E000BF00ED00E0A1
S2144051F0000E0E40A9214000954D400064AB400093
S214405200B179400000A3E11158AB4000451340007F
S214405210004008406CAB400049569A0001004020D0
S214405220F20A0070F2A23A70010000A550180E4033
S214405230EE000071EF0000717CAB400084AB400094
S2144052400101007100010071FF000071FE00007155
S214405250FD000071FC000071FB000071FA00007157
S214405260F9000071F8000071F7000071F600007157
S214405270F5000071F4000071F3000071F200007157
S2144052809201007022030070B20400704206007063
S214405290D207007062090070804909780191804900
S2144052A0097800917F492846A0477F4B1B787F4A64
S2144052B012787F49097811917E49097810917E4984
S2144052C009780F917D4909780E917D4909780D91AD
S2144052D07C4909780C917C4909780B917B4909787F
S2144052E00A917B49097809917A49097808917A495F
S2144052F0097807917949097806917949097805919D
S214405300784909780491784909780391774909786A
S2144053100291774909780191764909780091764952
S2144053202846A047754B1B78754A12787549097808
S2144053301191754909781091744909780F9174490B
S21440534009780E91734909780D91734909780C9143
S214405350724909780B91724909780A91714909781E
S21440536009917149097808917049097807917049FF
S214405370097806916F49097805916F490978049133
S2144053806E49097803916E49097802916D4909780A
S21440539001916D49097800916C492846A0476C4BAD
S2144053A01B786C4A12786C49097811916B490978D8
S2144053B010916B4909780F916A4909780E916A49AC
S2144053C009780D91694909780C91694909780B91DA
S2144053D0684909780A9168490978099167490978BE
S2144053E008916749097807916649097806916649A0
S2144053F009780591654909780491654909780391CA
S21440540064490978029164490978019163490978A9
S214405410009163492846A047624B1B78624A12783F
S2144054206249097811916249097810916149097871
S2144054300F91614909780E91604909780D9160494C
S21440544009780C915F4909780B915F4909780A9170
S2144054505E49097809915E49097808915D4909785D
S21440546007915D49097806915C49097805915C4940
S214405470097804915B49097803915B490978029160
S2144054805A49097801915A4909780091594928465C
S214405490A0475948594B9847B2E000BFF100007109
S2144054A0F000007102010071EF001071EE00107103
S2144054B00101107100011071FF001071FE001071A3
S2144054C0FD001071FC001071FB001071FA001071A5
S2144054D0F9001071F8001071F7001071F6001071A5
S2144054E0F5001071F4001071F3001071F2001071A5
S2144054F0F1001071F000107102011071EF00207180
S214405500EE0020710101207100012071FF00207122
S214405510FE002071FD002071FC002071FB00207110
S214405520FA002071F9002071F8002071F700207110
S214405530F6002071F5002071F4002071F300207110
S214405540F2002071F1002071F000207102012071FC
S214405550EF003071EE0030710101307100013071A2
S214405560FF003071FE003071FD003071FC0030717C
S214405570FB003071FA003071F9003071F80030717C
S214405580F7003071F6003071F5003071F40030717C
S214405590F3003071F2003071F1003071F00030717C
S2144055A002013071EF004071EE0040710101407120
S2144055B000014071FF004071FE004071FD004071E7
S2144055C0FC004071FB004071FA004071F9004071E8
S2144055D0F8004071F7004071F6004071F5004071E8
S2144055E0F4004071F3004071F2004071F1004071E8
S2144055F0F000407102014071252B4D000100402013
S2144056001C4AD2F88060C6F34E3E06F007000430CF
S214405610C6F3C906B6FA86F303F01F03BFF34F8FEF
S214405620516921F4803151614FF0FF3404FA00FC97
S2144056300EFA00F09C4006FA03F7154632463B4603
S21440564040EA0301C5F87412013A2344B2F1FF3F21
S214405650F6D10EF1FF3E6044BEF1FF3FEED1BFF300
S2144056604F8FBFF36F8F044A044B1A6015B0BDE8E6
S214405670F08F00BF00ED00E0010000A550180E407E
S2144056802DE9F0470F4B01221A61C3F8A020041EF3
S21440569010DD1E4617469246DFF830900A4DDFF87A
S2144056A03080C6F834A04846A84737634046A847E7
S2144056B0013CF6D1034B01225A61C3F8A020BDE855
S2144056C0F08700BF00140E4001004020086F0F0016
S2144056D0939526002DE9F041CB4B4FF400421A66D5
S2144056E0C3F890205A655A62C3F88020196F21F497
S2144056F000411967596F21F4004159671A604FF409
S21440570080371F66C3F890705F655F62C3F880702D
S214405710196F21F480311967596F21F48031596728
S2144057201F604FF480261E66C3F890605E655E621A
S214405730C3F88060196F21F480211967596F21F4EE
S214405740802159671E604FF480151D66C3F890503F
S2144057505D655D62C3F88050196F21F4801119674A
S214405760596F21F4801159671D6003F58063012449
S2144057701C66C3F890405C655C62C3F88040196F55
S21440578021F001011967596F21F0010159671C602A
S21440579002201866C3F8900058655862C3F8800027
S2144057A0196F21F002011967596F21F002015967FC
S2144057B0186004211966C3F8901059655962C3F8F9
S2144057C08010D3F870E02EF0040EC3F870E0D3F8E3
S2144057D074E02EF0040EC3F874E019604FF0080E23
S2144057E0C3F860E0C3F890E0C3F854E0C3F824E0A0
S2144057F0C3F880E0D3F870C02CF0080CC3F870C033
S214405800D3F874C02CF0080CC3F874C0C3F800E09A
S2144058104FF0100CC3F860C0C3F890C0C3F854C033
S214405820C3F824C0C3F880C0D3F8708028F01008AE
S214405830C3F87080D3F8748028F01008C3F87480DA
S214405840C3F800C04FF0200CC3F860C0C3F890C047
S214405850C3F854C0C3F824C0C3F880C0D3F87080DF
S21440586028F02008C3F87080D3F8748028F0200809
S214405870C3F87480C3F800C04FF0400CC3F860C053
S214405880C3F890C0C3F854C0C3F824C0C3F880C05F
S214405890D3F8708028F04008C3F87080D3F874803E
S2144058A028F04008C3F87480C3F800C04FF0800C5E
S2144058B0C3F860C0C3F890C0C3F854C0C3F824C04F
S2144058C0C3F880C0D3F8708028F08008C3F8708092
